:020000040800F2
:1000000000000320BD0100080902000809020008E1
:1000100009020008090200080902000800000000A7
:100020000000000000000000000000007F09000840
:100030000902000800000000C5090008EF090008D7
:100040000902000809020008090200080902000864
:100050000902000809020008090200080902000854
:100060000902000809020008090200080902000844
:100070000902000809020008090200080902000834
:100080000902000809020008090200080902000824
:100090000902000809020008090200080902000814
:1000A0000902000809020008090200080902000804
:1000B00009020008090200080902000809020008F4
:1000C00009020008090200080902000809020008E4
:1000D00009020008090200080902000809020008D4
:1000E00009020008090200080902000809020008C4
:1000F00009020008090200080902000800000000C7
:1001000009020008090200080902000809020008A3
:100110000902000809020008090200080902000893
:100120000902000809020008090200080902000883
:100130000902000809020008090200080902000873
:100140000902000809020008090200080902000863
:100150000902000809020008090200080902000853
:100160000902000809020008090200080902000843
:100170000902000809020008000000000000000059
:100180000902000809020008090200080902000823
:100190000902000809020008000000000000000039
:1001A0000000000000000000090200080902000829
:1001B000090200080902000809020008DFF830D02F
:1001C000002103E00B4B5B58435004310A480B4BB2
:1001D00042189A42F6D30A4A02E0002342F8043B4E
:1001E000084B9A42F9D300F011F800F03DF8FEE711
:1001F00000000320A00A0008C0010020D001002058
:10020000D0010020F0010020FEE700000B4B1A682F
:10021000002142F001021A6099601A6822F0A85287
:1002200022F410221A604FF48052DA601A6822F425
:1002300080221A60996100F003B800BF00100240EC
:10024000064B07498B4206D000228858985004324A
:10025000B2F5C47FF9D1034A9360704700000020D3
:100260000000000800ED00E0002108B5084600F09D
:1002700003F800F01FF8704708B500F007F8024BCC
:100280001869203000F02EF8340A0008002108B563
:10029000084600F089F828B100231A461946184686
:1002A00000F02CFB024800F047FB0028F4D108BD09
:1002B00040420F0008B500F001F80000BFF34F8F77
:1002C0000549064BCA6802F4E0621343CB60BFF3F2
:1002D0004F8F00BFFDE700BF00ED00E00400FA050E
:1002E00000207047036883F30888034A43680021AD
:1002F0001160BFF34F8F184700000140EFF31081EA
:1003000072B603681A69D20707D5426802F58032CF
:1003100042601A6922F001021A615B6A406818445F
:1003200001B962B6704700002DE9F0411D4C236809
:100330001B6913F001061EBF626802F5803262601D
:100340009B0729D5174F46F002064FF00008A56815
:1003500035B13846FFF7D2FFEB68C01A00280BDA38
:10036000A2682068B2B9114600F046FA2268D36844
:1003700023F00203D3600FE0D5E9043243B15A61A0
:100380006A691360D5E90130C5F814809847DEE743
:10039000E260F5E7D36843632368F6431E61BDE876
:1003A000F08100BFD401002030B5022889B003DD00
:1003B0004FF0FF3009B030BDA44B53F82030002B74
:1003C000F6D00029F4D01960A14B994200F0CD80FD
:1003D000B1F1804F00F0D180A3F59433994217D04A
:1003E00003F58063994213D003F5806399420FD0DF
:1003F00003F5943399420BD003F54063994207D03B
:1004000003F58063994203D003F580639942CFD10D
:10041000002840F0AC808F4B99425CD18E4B8F48C6
:10042000F02283F81D238E4A9268C2F8B4004FF080
:1004300000521A608B4B9A6D42F002029A659B6DD6
:1004400003F002030293029B874B99425CD1824BDB
:100450008248F02283F81823814A9268C2F8A000EB
:100460004FF080721A607F4B1A6E42F480321A6627
:100470001B6E03F480330593059B754B99425CD149
:100480007A4A136943F400631361794B99425CD152
:10049000764A936843F004039360764B99425CD1AB
:1004A000724A136943F40033CCE06B4B6B48F02283
:1004B00083F819236A4A9268C2F8A4004FF00072C8
:1004C0001A60684B1A6E42F400621A661B6E03F4DF
:1004D00000630093009B664B994266D15E4B5F4878
:1004E000F02283F81E235E4A9268C2F8B8004FF0EB
:1004F00080421A605B4B9A6D42F004029A659B6DD4
:1005000003F004030393039B5A4B99426FD1524B60
:100510005248F02283F81923514A9268C2F8A40085
:100520004FF000721A604F4B1A6E42F400321A6696
:100530001B6E03F400330693069BB1F1804F70D11C
:100540004A4A936843F0010393604B4B994271D13F
:10055000464A136943F400531361484B994272D1E0
:10056000424A136943F480236CE000289DD00023A5
:100570001A461946184600F0C1F90028F7D1364B43
:100580003648F02283F81C23354A9268C2F8B0003E
:100590004FF080521A60334B9A6D42F001029A6517
:1005A0009B6D03F001030193019B334B99427FF450
:1005B0004BAF294B2A48294AF02483F82E438568FB
:1005C000C5F8F8204FF480455D6083F82C438068BF
:1005D000C0F8F0204FF480525A60224B1A6E42F459
:1005E00000521A661B6E03F400530493049B234BC2
:1005F00099427FF442AF184B1848F02283F81A232F
:10060000174A9268C2F8A8004FF080621A60154B32
:100610001A6E42F480221A661B6E03F4802307933D
:10062000079B0C4B99427FF430AF104A936843F01C
:10063000020393600C4B99427FF42FAF0B4A13696E
:1006400043F4803313610020B4E600BF7C0A000845
:10065000002C01400004004000E100E029030008F4
:1006600000ED00E00010024000400140002004E0E6
:1006700000080040004401400034014000480140AF
:1006800030B5022887B00C4603DD4FF0FF3007B0CD
:1006900030BD244B53F82050002DF6D02868224B53
:1006A00098421ED0B0F1804F1BD0A3F594339842EE
:1006B00017D003F58063984213D003F58063984206
:1006C0000FD003F5943398420BD003F54063984262
:1006D00007D003F58063984203D003F58063984206
:1006E000D3D100F097F8B0FBF4F0B0F5803FCCD256
:1006F0000024CDE9044400904FF6FF73286802936C
:1007000004230394019403600123C360694600F04D
:100710000DF82B681C611A6842F001021A6020462D
:10072000B5E700BF7C0A0008002C0140304A03688E
:10073000904212D0B0F1804F0FD0A2F59432904287
:100740000BD002F58062904207D002F580629042A1
:1007500003D002F59432904219D14A6823F0700315
:100760001343234A90421DD0B0F1804F1AD0A2F516
:100770009432904216D002F58062904212D002F577
:10078000806290420ED002F5943290420AD0194A0B
:10079000904207D002F58062904203D002F5806259
:1007A000904203D1CA6823F4407313434A6923F08B
:1007B0008003134303608B68C3620B6883620C4B36
:1007C00098420FD003F5006398420BD003F54063C5
:1007D000984207D003F58063984203D003F5806305
:1007E000984201D10B69036301234361704700BF45
:1007F000002C014000400140036A01F01F0110B5C8
:1008000001248C4023EA04030362036A8A401A43EA
:10081000026210BD10B586B00446694601A800F01A
:100820004FF8144B9C4217D00AD8A3F592339C4240
:100830001BD024F48064B4F1804F16D0002010E067
:100840000D4B9C4208D00ED8A3F580539C4203D098
:1008500003F540639C42F1D100F022F8059B03B1FF
:10086000400006B010BD054BF4E700F009F8049B0A
:10087000F5E700BF002C0140004401400048014062
:10088000044B054A9B68C3F30223D35C034A1068F8
:10089000D8407047001002402C0A0008C001002018
:1008A000044B054A9B68C3F3C223D35C034A106818
:1008B000D8407047001002402C0A0008C0010020F8
:1008C0000F2303600B4B9A6802F0030242609A68A0
:1008D00002F0F00282609A6802F4E062C2609B68F3
:1008E000DB0803F4E0630361034B1B6803F00F03B1
:1008F0000B607047001002400020024008B500F075
:100900002AF8FFF7EDFC00B100BE044B4FF00042A7
:100910005A60BFF36F8FFFF7D1FC00BF00ED00E01E
:1009200008B5044B5A685A68DA6A9A6A9A6B5B6B24
:10093000FFF7C4FC00ED00E001460020FFF7A0BE79
:10094000024A136803441360704700BFE4010020AB
:100950000120FFF7F5BFEFF3108072B600F0010041
:100960007047000080F309882B480078023080F33C
:100970001488BFF36F8F704780E8F00F7047EFF374
:100980000980816911F8021C51B990E80F1010B567
:10099000E047BDE81040EFF3098C8CE80700704792
:1009A00010B51E4A1268914209D81D4C54F82140D6
:1009B00090E80F10A047EFF3098C8CE80F00BDE81A
:1009C00010407047174B1A68174B1968914208BFBF
:1009D0007047EFF3098C2CE9F00FC1F800C01A60E2
:1009E000D2F800C0BCE8F00F8CF30988704710B54E
:1009F000FFF7AEFFBDE8104070471EF0040F0CBFBC
:100A0000EFF30883EFF309832DE9F84F6846FFF70A
:100A100087FFBDE8F84F7047D001002000000000BC
:100A2000FCFFFFFFC4010020E801002000000000DF
:100A3000010203040000000000000000004000006C
:100A4000010000000080000000A003000200000080
:100A50000020040000A003000300000000C0070005
:100A600000100000100000000040000000400000E6
:100A70001100000000D0070000300000D401002069
:100A80000000000000000000DCFEFF7F010000000D
:100A9000E8FEFF7FB0B0B080E6FEFF7F01000000FF
:100AA00000093D0000000000C4010020000000001B
:100AB000FFFFFFFFFFFFFFFFFFFFFFFFFFFFFFFF46
:100AC000FFFFFFFFFFFFFFFFFFFFFFFFFFFFFFFF36
:100AD000FFFFFFFFFFFFFFFFFFFFFFFFFFFFFFFF26
:100AE000FFFFFFFFFFFFFFFFFFFFFFFFFFFFFFFF16
:103FF000FFFFFFFFFFFFFFFF080002FF69A2B23BC8
:10400000FFFFFFFFFFFFFFFFFFFFFFFFFFFFFFFFC0
:10401000FFFFFFFFFFFFFFFFFFFFFFFFFFFFFFFFB0
:10402000FFFFFFFFFFFFFFFFFFFFFFFFFFFFFFFFA0
:10403000FFFFFFFFFFFFFFFFFFFFFFFFFFFFFFFF90
:108000003DB8F39600000000200000003C60000036
:10801000000000000000000001000000000000005F
:1080200000000320DD810008298200082982000861
:108030002982000829820008298200080000000027
:1080400000000000000000000000000087A20008FF
:108050002982000800000000CDA20008F7A2000855
:108060002982000829820008298200082982000844
:108070002982000829820008298200082982000834
:108080002982000829820008298200082982000824
:108090002982000829820008298200082982000814
:1080A0002982000829820008298200082982000804
:1080B00029820008298200082982000829820008F4
:1080C00029820008298200082982000829820008E4
:1080D00029820008298200082982000829820008D4
:1080E00029820008298200082982000829820008C4
:1080F00029820008298200082982000829820008B4
:1081000029820008298200082982000829820008A3
:108110002982000829820008298200080000000046
:108120002982000829820008298200082982000883
:108130002982000829820008298200082982000873
:108140002982000829820008298200082982000863
:108150002982000829820008298200082982000853
:108160002982000829820008298200082982000843
:108170002982000829820008298200082982000833
:108180002982000829820008298200082982000823
:108190002982000829820008000000000000000079
:1081A0002982000829820008298200082982000803
:1081B0002982000829820008000000000000000059
:1081C0000000000000000000298200082982000849
:1081D000298200082982000829820008DFF830D0AF
:1081E000002103E00B4B5B58435004310A480B4B12
:1081F00042189A42F6D30A4A02E0002342F8043BAE
:10820000084B9A42F9D300F011F800F03DF8FEE770
:1082100000000320DCDF0008C00100204002002035
:108220004002002000320020FEE700000B4B1A68DD
:10823000002142F001021A6099601A6822F0A852E7
:1082400022F410221A604FF48052DA601A6822F485
:1082500080221A60996100F003B800BF001002404C
:10826000064B07498B4206D00022885898500432AA
:10827000B2F5C47FF9D1034A936070470000002033
:108280002080000800ED00E008B5034800F03AFF48
:10829000BDE8084000F07EBF9F820008704708B527
:1082A00002F0B8FD00F07CFB02F0BAFD00F098F897
:1082B00000F03CF828B100231A461946184600F091
:1082C0002FFE00F0B1F90028F5D101F091F901F08D
:1082D00062F9FAE71FB50AB330B1DDE906010029FA
:1082E00008BFB0F1806F05D000231A461946184622
:1082F00000F016FE1379D90710D50B4B009301231C
:10830000019368461368ADF8083000F033F8831D18
:1083100007D00028E8D105B05DF804FB6FF001003C
:10832000F9E70020F7E700BF14D9000808B50E49A7
:108330000E4800F033F842F210710B4800F0B6FC22
:10834000014628B100231A461946184600F0E8FDF8
:10835000054800F023FC0028F4D0054900F00CFD8E
:108360000028EFD108BD00BF16D9000822D90008A7
:10837000C801002008B528B900231A461946184636
:1083800000F0CEFD00F048FA0028F5D0002000F003
:10839000EBF90028F0D16FF0050008BD0FB413B55C
:1083A00000F0D0F8044648B10B4B1B688BB901F0C4
:1083B00015FE0146094802F063FA044605A904982F
:1083C000019102F08DFA204402B0BDE8104004B0E3
:1083D00070470024F2E700BFB03000202FD900081A
:1083E000F0B5144C227885B012B313490A68FAB17B
:1083F000124B5B68C3F30803D3B9114D0B6002261F
:10840000134605270DF1040C2968C9070AD5D98838
:1084100041B1186803912178CDE9016011B1384666
:108420006146ABBEDB68002BEED1104601F05FF970
:1084300005B0F0BDE00100204002002000ED00E0AA
:10844000F0ED00E0FFF7CCBF104B1B7870B506468F
:108450000D46D3B10E4B1B68DB0716D50D4C2168BA
:1084600069B1206801F04DF92844B0F5006F0CD2D5
:108470002068AAB23146BDE8704001F04BB9A8B2FD
:1084800001F08AFA20600028EBD170BDE0010020E5
:10849000F0ED00E04002002007B5020902F13003D0
:1084A000392B88BF02F1570300F00F008DF804301C
:1084B00000F13003392B88BF00F157038DF80530E8
:1084C00001A800238DF8063001F087FF014601A8BE
:1084D000FFF7BAFF03B05DF804FB000070B5044677
:1084E00020B119B1064E4518AC4200D170BD14F848
:1084F000010BFFF7D1FF01213046FFF7A5FFF3E79E
:1085000094DE00080C4B1A7813B5C3B204461AB1B6
:108510001C46204602B010BDB3F10A01074A8DF88F
:10852000073018BF01210D2B1160F2D001210DF190
:108530000700FFF789FFECE7B5300020B0300020DE
:1085400000207047014B1878704700BF440200209C
:1085500070B506460D460024AC4200DB70BD305DB0
:10856000FFF7D0FF0130F9D00134F5E7FFF76ABF1C
:1085700013B50D4B1B7823B91A461946184600F05F
:10858000CFFC0A4800F098FF094801F04FFAFFF7C6
:10859000D7FF38B10023074A0093146819461A46DA
:1085A0001846A04702B010BDDC3100204802002070
:1085B000580200201C02002008B500231A46194664
:1085C000184600F0ADFC000001281FB5034605D990
:1085D00000231A461946184600F0A2FC0D49142241
:1085E00002FB0012127C8AB94FF4807203920A4A8D
:1085F00002924FF0FF310A22CDE900210748084AD4
:10860000084901F057FC08B1FFF7D6FF002005B07C
:108610005DF804FB0C070020EC0200209C02002007
:10862000B986000836D9000808B50020FFF7CCFF4E
:1086300028B100231A461946184600F071FC08BDFF
:108640000128F7B505D900231A461946184600F047
:1086500067FC134B142404FB0034237CEBB9114E4C
:10866000656806EB0016002DEDD0E368002BEAD01C
:108670000D4A0E4952F820200D482B46FFF78EFE7A
:1086800010230093E7680B4A41F2336331462846D2
:10869000B8470028D7D101232374002003B0F0BDD0
:1086A0000C070020EC06002078DA00083ED900080C
:1086B00043D90008E9D9000810B504460C48FFF773
:1086C0006DFEE0B2FFF7BCFF58B90A4C01F072F939
:1086D00001462046FFF762FE42F2107001F0C0FC36
:1086E000F4E700231A461946184600F019FC00BFAB
:1086F0004CD9000857D9000810B531B30A78144B8B
:10870000002A08BF1946012819D8124A142303FB6E
:1087100000235A689AB1DA688AB11C7C24B90E48E1
:10872000FFF73CFE204610BD0C4B18700C4B196037
:108730000C4B03EB001003F07DFA0028F3D100236B
:108740001A461946184600F0EBFB0149DBE700BF6B
:10875000F8D900080C07002069D90008E1010020C1
:1087600064020020EC06002001460020FFF7C4BF91
:10877000034BD3E90023134314BF012000207047AB
:108780003807002038B5124C2568F5B900F02DF9EE
:108790000B28206005D82B462A462946284600F09B
:1087A000BFFB0C480C2100F023F90028206001DCFD
:1087B000FFF702FF08490948FFF7F0FD0548216867
:1087C000FFF78CFE0648FFF7E9FD024838BD00BF01
:1087D00098020020890200203ED9000880D90008B4
:1087E000D9DE000808B5FFF7CDFF04490C2201F0DF
:1087F000A1FDB0FA80F0400908BD00BF2EDA0008E4
:1088000008B5FFF7EFFF28B9FFF7B2FF80F00100CE
:10881000C0B208BD0020FCE770B50B4D2C7884B9C0
:108820000A4E281900223146023401F0BCFD202CEA
:10883000F7D10023044A0649064885F82030FFF79F
:10884000ADFD014870BD00BF6802002088D9000856
:108850003ED900088DD900082DE9F041234D244E62
:10886000DFF8AC8005242F46F5E8022356F8040B08
:10887000414601F098FD0A2805D000231A46194602
:10888000184600F04DFB013CEED1FFF77BFF194D80
:1088900006460C222946304601F04CFD23460134A1
:1088A000B0B907EBC303D3E90001134B134AC3E983
:1088B0000001134913482346FFF770FDFFF792FFAD
:1088C00058B10E4A0E491048BDE8F041FFF766BDA9
:1088D000052C05F10C05DCD1F0E7FFF791FF18B18D
:1088E000064A07490948EFE7BDE8F08180DA000849
:1088F000E40100203ADA000838070020ACD900086B
:108900003ED90008B3D90008C2D90008D1D900085F
:10891000A4D90008F8B5034628B900231A46194619
:10892000184600F0FDFA0478012CF6D84268002AB7
:10893000F3D0027A002AF0D0C1680029EDD0102AC5
:10894000EBD8134D142202FB04525268002AE4D1E2
:1089500004EB840205EB820200F1100718685968E5
:10896000164603C60833BB423246F7D11868094A97
:108970003060142303FB045500266B6852F8242052
:1089800005492E740548FFF709FD3046F8BD00BFC4
:108990000C07002078DA00083ED9000843D9000807
:1089A00008B500F005FC02F0CDF8FFF7E1FD02F09C
:1089B000F7F902F01FF902F011F802F023F802F0C3
:1089C00022F802F021F802F020F802F01FF800F07F
:1089D000A5FA00F0EBF803F047F9FFF73DFF02F0CE
:1089E00085FABDE8084003F011B90C20704700007B
:1089F00010B50C29A8BF0C210C460A46024901F00B
:108A0000BDFC204610BD00BF9075FF1F1149036AD1
:108A100070B50C6B22467BB100237AB1156A6DB13B
:108A2000456A566AAD1B002D08DB1346D2F880203C
:108A3000F3E71346D2F88020002AFAD11BB9C0F818
:108A40008040086370BDD3F88020C0F88020C3F850
:108A50008000F7E7B8300020D0E9042310B5D0E952
:108A600006400340D1E90001224002400B4013437D
:108A700014BF0120002010BD2DE9F74F0B79012B09
:108A8000DDE90CBA05468846914606D1D8F8003093
:108A9000C3B9184603B0BDE8F08FC46E002CF5D002
:108AA000D4E900230BEA02060AEA030756EA0703A1
:108AB00006D0CDE900BA4A46A368E168284698473F
:108AC0002469EBE7D8F804104A462846CDE90CBAE9
:108AD00003B0BDE8F04F184708B50368D86901F046
:108AE00071FCB0FA80F0400908BD000070B586B096
:108AF00001F074FA02AE044601A9304601F0C4FA4E
:108B000048B104F5122404F5F8642146094800F040
:108B100093FB06B070BD96E80F00074D85E80F0087
:108B2000019B2B6100F008FC04F5F41404F590643B
:108B30006861EAE7EC3000201031002008B50548F4
:108B40004FF0FF3100F0CEFF10B1092808BF002020
:108B500008BD00BFB8300020014800F071BF00BF61
:108B6000B830002070B505460E461446FFF7E6FF04
:108B700078B95CB9084B1C6B1CB9FFF7EDFF2046B8
:108B800070BD31462046A8470028F6D1D4F8804071
:108B9000F2E70024F3E700BFB83000200A460146A0
:108BA0000148FFF7DFBF00BFD98A0008F0B589B0E0
:108BB00000F01EFD1B4D1C4BE86200931B481C4B34
:108BC0001822052100F064FE064628B100231A464B
:108BD0001946184600F0A4F90346164AE96A164CED
:108BE00005F10C0004AF00F0FBFA03A9384601F0D0
:108BF0004BFA97E80F0084E80F00039B236100F015
:108C00009BFB0E4AE96A606133460D4800F0E8FAC2
:108C10004FF47A710A4800F00FFB284600F006FF77
:108C200009B0F0BDB8300020A8DA0008F007002035
:108C300078070020398E000810310020ED8A0008E6
:108C4000EC30002008B54FF0FF31043000F04AFF4F
:108C500010B1092808BF002008BD000037B5044640
:108C60000D46006A01A901F02DFA2046FFF7EAFF40
:108C70000D4A136B9C420DD1D4F880301363019BD5
:108C80002B4463622046FFF7C1FE201D00F0D8FE92
:108C900003B030BD1A46D3F880309C42FAD1D4F8E4
:108CA0008030C2F88030EAE7B8300020F7B50446DB
:108CB0001E480E4600F0A2FA20460021FFF76EFF84
:108CC000044680B3FFF7BEFF01F088F901A905460D
:108CD000304601F0F7F92046FFF7B4FF2662261D63
:108CE000304600F0ADFE124F29462046FFF7B6FF92
:108CF000304600F0A5FEFFF721FF3E6B3046FFF740
:108D0000A1FF746A641B24EAE474301D00F098FE2D
:108D10000194FFF721FF019907F10C0000F08CFA94
:108D2000002003B0F0BD6FF00100FAE7C43000206E
:108D3000B830002038B50546FFF700FF044660B99B
:108D40002846FFF77FFF044638B92846FFF75EFE46
:108D5000281D00F075FEFFF7FFFE204638BD38B530
:108D6000882204460D46002101F015FB201D00F06D
:108D70005DFE00B9256038BD70B504460E46FFF7AC
:108D800061FF054628B9E36E3361201DE66600F0F9
:108D900057FE284670BD0000F0B589B0CDE9042328
:108DA0000446FFF74FFF0546002836D10E9B069379
:108DB00004A90F9B07932046FFF74EFE002832D0F0
:108DC00000F0BAFA194B6064D3E9006759699A68F0
:108DD0005861521A16491044B0FBF1F2B61801FB63
:108DE000120047F10007109A9860C3E900670292E9
:108DF00006AAA36A01920F4A00921968A063C4E907
:108E00000C67DDE9042320468847054628B1236F17
:108E10001BB10246616F20469847201D00F010FEEE
:108E2000284609B0F0BD6FF00305F6E710310020C9
:108E300040420F00798A00082DE9F04385B001F027
:108E4000CDF80746FFF77AFEDFF8CC904FF0FF38F9
:108E5000FFF774FED9F830402046261DFFF7F2FEDA
:108E60003046656A00F0ECFDFFF776FE2046FFF71E
:108E7000E9FE236AED1B25EAE5753BB9304600F0B3
:108E8000DFFD05B0BDE8F043FFF766BE002D38D129
:108E9000E36FABB9CDE901380093D4E9062320464E
:108EA000FFF77AFF2046FFF7CDFE304600F0C8FD01
:108EB00020463946FFF7D2FE304600F0C1FDC7E735
:108EC0002046FFF7BFFEE56F002DEED0AB8AABB9B1
:108ED000CDE901380093D5E900232046FFF75CFF78
:108EE0002046FFF7AFFEAB8A1BB96B8A0BB1013B83
:108EF000AB82304600F0A4FD2D6AE5E7013BAB8272
:108F0000FAE7FFF729FE0348294605B0BDE8F0431C
:108F100000F092B9C4300020B83000207047000043
:108F200008B5054674460E4601F0DCF8FFF71EFB57
:108F30007DB90B482146FFF731FA03F08DF900B1F6
:108F400000BE084B4FF000425A60BFF36F8F03F032
:108F500071F933462A4621460348FFF71FFAECE72A
:108F6000BADA000800ED00E0C9DA00081D4D07B5C7
:108F70000446FFF7FBFA696822681B48C1F3080141
:108F8000FFF70CFA21681948CB680093D1E9012357
:108F90000968FFF703FA2369616800931448D4E96C
:108FA0000223FFF7FBF9236A616900931148D4E9B2
:108FB0000623FFF7F3F921680F48CB690093D1E945
:108FC00005230969FFF7EAF969680C48EA6AAB6AA0
:108FD000FFF7E4F9A96B0A486A6BFFF7DFF903F0C2
:108FE00029F900BF00ED00E0E0DA000811DB00081D
:108FF00042DB000873DB0008A4DB0008D5DB0008B7
:10900000FDDB00082DE9F04703F04EFD1C4EDFF8B4
:109010007480002543F6982733680133336000F0ED
:10902000DDFFA0F56A53183B5B1B002B044604DDF3
:1090300000F0F8FD03F038FD254601F053F8044632
:1090400000F0CCFF824600F003FF8146504600F05E
:1090500057F9EB19814528BF8146A3EB0A00484523
:1090600028BF4846632808D9404528BF404603F03A
:10907000B6F8204601F03CF8CEE70020F7E700BF45
:1090800078310020C0270900002108B503460846B2
:10909000984700231A4619461846FFF741FF00007B
:1090A000014B1868704700BF7C3100201FB540237A
:1090B0000393104B02934FF0FF32FF23CDE90032B0
:1090C0000D490E4A0E48002300F0F4FE28B100239B
:1090D0001A4619461846FFF723FF00F0CBFD00287B
:1090E000F5D147F2305003F0B9FC0028EFD105B0BC
:1090F0005DF804FB1008002019DC0008059000084A
:10910000283100201FB51D4B0022C3E900231C4B52
:109110000446C3E9002300F06BFA00F0CDF900F03B
:10912000C3F901F013F828B100231A46194618466E
:10913000FFF7F6FE94B14FF480630393114B029353
:109140004FF0FF327F23CDE900320F490F4A10481C
:10915000234600F0AFFE10F0FF0FE5D101F08EFEC8
:10916000012000F041F910F0FF0FDDD1022000F0E6
:109170003BF910F0FF0FD7D104B010BD80310020B3
:10918000A4310020100900201EDC0008899000088E
:109190001019002008B503F07BFC01F03DF828B160
:1091A00000231A4619461846FFF7BAFE08BD00000C
:1091B00008B50A4B1B782BB900231A4619461846E6
:1091C000FFF7AEFE032000F00FF910F0FF0FF3D110
:1091D00000F0A4FBBDE8084000F0F8BBDC31002043
:1091E000F8B504460D4617461E462022002101F020
:1091F000D2F8C4E901762561F8BD000038B504460F
:1092000000F070FFE269054632B1A36973B1DA611B
:10921000E26913600023E361206910B1214600F088
:10922000C7F92846BDE8384000F062BF01494A60EE
:10923000EEE700BF80310020036970B504460D469B
:1092400023B91A4619461846FFF76AFE00291CDBA7
:1092500000F048FF06462046FFF7D0FF00F0BEFEB4
:10926000114A012D2CBF4519451C1368656133B99E
:10927000A3615368E3611C60183454600EE05869C0
:10928000281A002803DB9B69F1E702200AE0DA696B
:10929000C4E90632DA6914601834DC61304600F043
:1092A00027FF002070BD00BF80310020F8B500F01E
:1092B00095FE124E0546002700F014FF346854B1A5
:1092C0006369EB1A002B11DBD4E9063263B1DA6172
:1092D000E2691360E76100F00BFF6CB1206938B1FF
:1092E000214600F0F3F8E7E77260F1E70024F2E7C7
:1092F000636820469847DFE7F8BD00BF8031002053
:1093000010B5044600F0F7FE034618B902460146C0
:10931000FFF706FE054B1B6823B15869001B20EAC6
:10932000E07010BD4FF0FF30FBE700BF8031002040
:109330000146002003F056B9002003F0A9B910B58A
:10934000D0E9043104469847E37E20B113F0080FBA
:1093500008BF002010BD43F00103E376FAE70000E8
:109360002DE9F04143769846069B03610025079B53
:10937000C16102764361174645831022294604469F
:1093800001F009F8164B1E681A4666B9224642F8E3
:10939000206FC3E90042134B1868F0B12046BDE8C6
:1093A000F041FFF7CCBF3046037E9F4210D302D17D
:1093B000437E43450CD8036A05463BB92B6A2362BA
:1093C00013B904F1200353602C62E4E71846EBE77D
:1093D000002DF3D126621460DDE7BDE8F08100BF07
:1093E000601900207C31002038B5084B1C68054608
:1093F0000CB9204609E0237EAB4201D0246AF7E78E
:109400002046FFF79CFF0028F8D038BD60190020E7
:1094100038B5074B1C6805460CB9204638BDE069D5
:10942000294600F0CFFF0028F7D0246AF4E700BFF8
:109430006019002070B50D461646FFF7E9FF044697
:1094400010B90024204670BDC37EDB07F9D5036840
:109450005BB900F047FEA37E0133A376E37E43F0C1
:109460000203E37600F044FEECE7324629469847D3
:109470000028EED0E5E7C36810B5044653B900F004
:1094800031FEA37E013BDBB2A3763BB100F030FEA0
:10949000002002E098470028F1D010BDE37E23F0C1
:1094A0000603E376F2E70000024B0022C3E9002343
:1094B000704700BF6019002010B51022044600213B
:1094C00000F069FF04F10803E36010BDF8B50C4635
:1094D000054600F007FE237806461BB1BDE8F840BC
:1094E00000F006BE01272770EA686868E360146030
:1094F0000C34EC6088B1027B022A0CD100F056FCDF
:1095000000236B60304600F0F3FD47B1BDE8F84042
:10951000002000F0FFBB1F46F2E70746F2E7F8BD68
:10952000F8B5044600F0EAFB23688342054601D003
:10953000B3B9206000F0D6FD0646A768B7B1FB6856
:10954000A36013B904F10803E36000233B706B7B55
:1095500023F0080330466B7300F0CAFD3846F8BDAF
:1095600000231A4619461846FFF7DAFC4FF0FF3180
:109570006560284600F0E0FB6B7B43F008036B73EB
:10958000304600F0B5FD384600F0C4FB00F0AAFDFF
:1095900067600646D1E710B5FFF7C2FF436823B9FD
:1095A0001A4619461846FFF7BBFCBDE8104018479D
:1095B00038B50C46054600F095FD237843B1AB68FD
:1095C000E168A3420AD1A96011B905F10803EB6073
:1095D00000232370BDE8384000F08ABD1A46DB68DE
:1095E000A342FBD1D1600029F2D10C32EA60EFE74F
:1095F00000487047681900208268128800F1100343
:109600001344C28800681044181A80B2704738B5F5
:10961000C38804460D462BB100231A461946184646
:10962000FFF77EFC00F110034A791846103100F074
:10963000A5FE6A79627103461344236038BDF8B50C
:109640000025C0E9005004460F4616462946102260
:10965000083000F0A0FEC4E903762846F8BD38B50E
:10966000054600F03FFD2C681CB163682B6003B910
:109670006D6000F03DFD04B1103C204638BD103A4D
:10968000028041600020704738B503888B42044651
:109690000D460CD3406800F004F938B100F1100118
:1096A00000230D44C36043600560846038BD002022
:1096B000FCE738B5038801F10805AB420DD3FF2D57
:1096C0000BD80021FFF7E0FF30B10168457100239E
:1096D000C0E904332944016038BD0020FCE701469D
:1096E000806808B510B1406800F002F908BD10B5F7
:1096F00000B910BDC468FFF7F2FF0028F9D1204679
:10970000F6E70346002003B97047DA88DB681044A7
:1097100080B2F8E72DE9F0470F46154606460028C7
:1097200046D0D0F8088003469946DB68002BFBD171
:1097300048462C46FFF760FF98B1A842A8BF2846CC
:109740000446D9F80030B9F80600224639461844D4
:1097500000F014FEB9F8063023442744A9F8063077
:109760002C1B002C05DD00214046FFF78DFF8246B3
:1097700038B97379072B16D8201E18BF0120BDE811
:10978000F087B8F80020A242A8BF2246C28039461E
:10979000006800F0F3FDBAF80630C9F80CA01F44C9
:1097A000E41AD146DDE7328A15442D1B3582E3E702
:1097B0000220E4E72DE9F04100268768044635469B
:1097C00061792346072953F8102B98BF00210B44D9
:1097D000D31A99B238465DB1FFF756FF8046F06064
:1097E00098B92846FFF783FF45462846BDE8F08133
:1097F000FFF74AFF05460028F7D06379072B02D907
:109800002146FFF704FF2E4600E006462379337118
:10981000E388F380E2882168306800F0AFFDE468F7
:10982000002CCDD1E1E7000070B510B10AB113B939
:1098300019B1032022E09D0726D19DF814408472BF
:10984000049C0260C0E90534C18001818180C3604D
:1098500061B194071CBF22F0030204321D460124AB
:109860008C420CDB01394A4300219950074A516868
:1098700000230361086010305060184670BDAE18B8
:109880002E6001343546EBE70420F7E788310020ED
:1098900013B500240194049C0094FFF7C5FF02B0A7
:1098A00010BD38B5044680B100F01CFCE38873B1EC
:1098B00065692A686261013B22899BB29A42E38012
:1098C00000D9238100F014FC2C46204638BD1D46EB
:1098D000F8E738B504460D4600F004FC63692B60D8
:1098E000E38865610133E38000F002FC002038BDAD
:1098F00010B40A46034670B169B1847AE40705D50D
:10990000C4691CB12346026A10BC184710BC11463A
:109910001846FFF7DEBF032010BC7047024B002241
:10992000C3E90023704700BF88310020074B10B502
:1099300019680246084618B909B15868083810BDB8
:1099400004889442FBD28068F5E700BFF80100204C
:1099500030B50C4B1A682AB982605A68106008301A
:1099600058600CE0058814889168A54201D80A4621
:10997000F1E7816011B900F10801596090600020A1
:1099800030BD00BFF8010020024B0022C3E90023D4
:10999000704700BFF80100200830084410B580B2BD
:1099A0000C46FFF7C3FF20B1E1B2BDE81040FFF75E
:1099B00080BE10BD044B1B68002003B970475A6875
:1099C0009B68D2881044F8E7F801002013B5FFF730
:1099D000DBFF114B01934FF4927300930F4A104930
:1099E00010480C2301F022FA38B100230E4A0093EC
:1099F000146819461A461846A0470848FFF7A8FFFA
:109A000038B10023084A0093146819461A461846CC
:109A1000A04702B010BD00BF23DC000828270020AB
:109A200034270020781900201C020020034628B1AA
:109A300000205871D88098601860704703207047E4
:109A4000F8B5274B1B680446002B42D0002842D0B3
:109A500000F054F9E3880546002B3ED0A26882420C
:109A60003BD1012B03D0013BE380002032E000F02A
:109A700039FBE388013BE380EA7A63799A4207463F
:109A800003D0EB72284600F003FA26686EB1F36942
:109A900023B91A4619461846FFF742FA304600F035
:109AA00085F90123E380F37A6371A66016B1B37B75
:109AB0000133B373AB7B013BAB7300F0E3F90446B6
:109AC000384600F015FBA542CFD0204600F022F921
:109AD000CBE70920F8BD0320FCE70520FAE700BF2B
:109AE0007C310020354B1B682DE9F0410646884645
:109AF000002B5ED000285ED000F0F4FA074600F09C
:109B0000FDF8F58804466DB9B060C37A7371837B44
:109B1000013383730123F380384600F0E9FA002013
:109B2000BDE8F081B068A04202D10135F580F3E7CD
:109B3000B8F1000F04D1384600F0DAFA0620EFE75A
:109B4000E37AC27A9A4202D9C37200F0A1F931686D
:109B500061B3E57A0A460023D07AA84224D8D06CB3
:109B60001346F8B9DA6CE264DC64637BE66143F0C7
:109B7000040363734146204600F0DEF8384600F0E7
:109B8000B7FA002000F0C6F800F0ACFA637B23F0CF
:109B90000403637300F0ACFAB068A04214BF06205F
:109BA0000020BDE70246D7E7002BDBD1E16434603B
:109BB000DBE70920B4E70320B2E700BF7C310020D7
:109BC00008B5044B186820B103484FF0FF31FFF788
:109BD00089FF08BD7C3100209031002008B5034B7F
:109BE000186810B10248FFF72BFF08BD7C31002038
:109BF0009031002008B51422002100F0CCFB002099
:109C000008BD000010B50446FFF7DAFF38B9044B71
:109C10001A6822611C60BDE81040FFF7DFBF10BD6D
:109C20005027002010B5FFF7CBFF28B100231A46BC
:109C300019461846FFF774F90D4B1C6824B9FFF755
:109C4000CDFF0028F2D110BDA36843B1E1682046E2
:109C5000984720B900F0C2F920602469EEE700F0CF
:109C6000BDF9D4E900321344C01A0028F5DDDDE760
:109C70005027002008B50248FFF7D8FE08BD00BFF6
:109C80009031002038B5037B012B044611D100F040
:109C900029FA0E4A136833B963645368A3641C60DD
:109CA000443454600DE0E57AD97A8D4203D35B6C7D
:109CB000F1E7022008E09A6CC4E9113214604434E0
:109CC0009C6400F015FA002038BD00BF000200209F
:109CD000C36B074A013310B5C363064B1468186899
:109CE000054B1968836B11601B1B0B44836310BD0C
:109CF000A03100209C310020B0310020014B1868B9
:109D0000704700BF9C310020014B1860704700BFB6
:109D10009C31002038B5044600F0E4F905460CB942
:109D2000044B1C68204600F0D3F92846BDE83840B3
:109D300000F0DEB90002002038B5D0E91132044647
:109D40000D46CBB19A64A26C13600223237300F01A
:109D500045F928440135134A606304F144010ED1EA
:109D6000637B43F001036373002363645368A3645C
:109D70001C605160002038BD0B494A60E3E713685E
:109D8000002BF2D05D7BED0705D45D6B2D1A002D05
:109D900001DC5B6CF4E79A6CC4E911329A6C1460D4
:109DA0009964E7E7080200200002002008B5037B61
:109DB000022B05D000231A4619461846FFF7B0F8C3
:109DC000C2694AB11368002BF4D08342C16C15D12B
:109DD00011600023C364C361012303730023436341
:109DE000437B23F001034373D0E9113263B19A64DA
:109DF000826C1360FFF746FF002008BD1A46DB6C3B
:109E00008342FBD1D164E4E701494A60F0E700BF37
:109E10000802002070B500F0E1F8054600F062F994
:109E20000A4B0446186820B92046BDE8704000F08F
:109E30005FB9437BDB07F7D4436B466CEB1A002B0F
:109E4000F2DBFFF7B3FF3046EDE700BF080200206A
:109E500010B5044600F04FF9034618B90246014612
:109E6000FFF75EF8064B1B683BB15A7BD20704D460
:109E7000586B001B20EAE07010BD4FF0FF30FBE78D
:109E800008020020014B1868704700BF0002002044
:109E9000037B012B0AD1D0E9113223B19A64826C81
:109EA0001360FFF7EFBE02494A60F8E7704700BF52
:109EB000000200202DE9F04704461E460D4692465A
:109EC00000215022DDE90997BDF82C8000F063FAEB
:109ED000C4E905A600F006F92C4B1E78721C1A7016
:109EE00000F006F99DF82030E37201232373256109
:109EF000002304F12005A67263632846FFF77AFE6B
:109F0000064600283FD1B9F1FF3F21D1204BB04593
:109F100029DC07EB88016160A4F8088042462046EE
:109F200000F0EEF81B4B20601E6806BB5A682664E2
:109F30002046146004F140025A60FFF7A3FE054674
:109F400070B9FFF7ADF8F0B13046FFF7E3FE07E078
:109F50002846C4F82490FFF755FE05460028D5D0C2
:109F60002846BDE8F08747F826300136CFE7E17A8A
:109F7000F27A914205D100231A4619461846FEF797
:109F8000CFFF366CD1E73546EAE700BFAC310020A1
:109F9000EFBEADDEA4310020F0B5D1E900674FF48B
:109FA0007A75B0FBF5F405FB140388680A49361985
:109FB00005FB030347F100078B42C2E9006793608A
:109FC00009DD701C47F10001A3F57423C2E900010B
:109FD000A3F510739360F0BD3F420F00014B18686A
:109FE000704700BFB0310020F8B5041E05DA002329
:109FF0001A4619461846FEF793FF06D0FFF750F8A9
:10A00000154D18B92B6823442B60F8BD00F06AF891
:10A010002A68A31892EA030F06462B6010D50F4F4B
:10A020003A4652F8084B1C1B11462046FFF7B4FF76
:10A0300007F1180211462046FFF7AEFF2B683B6080
:10A04000304600F055F8FFF731F9FFF7E3FEBDE8C1
:10A05000F8400020FFF75EBEB031002058270020F6
:10A0600038B5044678B100F03DF80546FFF746FEE6
:10A070002146FFF761FE284600F03AF8BDE8384077
:10A080000020FFF747BE38BD70B505460C4600F00E
:10A0900029F8064645B1094B0949186851F8183B9B
:10A0A0002A46C01AFFF778FF14B1054B986A206062
:10A0B000304600F01DF8002070BD00BFB031002018
:10A0C000582700200860002070470120FFF78CBF50
:10A0D00008B5FFF7FDFD024B4FF080525A6008BDF6
:10A0E00000ED00E0EFF3108072B600F00100704761
:10A0F00000B962B67047EFF3108000F001007047BE
:10A1000070B50023A1F140060C46054641E907332E
:10A1100041E9053341F80C3C304600F0B1F84FF00E
:10A12000807344F8043C6B6944F8083CAB6944F81C
:10A13000203C304670BD0000034A536943F01003D1
:10A140005361FEF7B3BF00BF00ED00E0F8B5EFF3D9
:10A150000584002C35D11C4FFF263D190134F02C0D
:10A1600085F80063F9D1194C194EA568EE62A5680F
:10A17000184EAE63A568184EEE63A668174DB5601D
:10A18000A668F560A6683561A6687561A668B561C0
:10A190004026A768F5510436B6F5C47FF9D1F025FD
:10A1A00084F822501025E577EFF3148414F00104AD
:10A1B00003D1FFF7C1FF0020F8BDDFF824C000DFA6
:10A1C000F9E70720F8E700BF00E100E000ED00E05C
:10A1D00087A20008CDA20008F7A2000803A3000888
:10A1E00039A1000810B5FFF74DFE0446FFF78CFDBE
:10A1F0002368203383F309880E214FF47A7001F02D
:10A20000FBFF044B012220461A60FFF761FFA069A3
:10A2100010BD00BF7C3100201148006810B5043823
:10A2200000F024F8EFF30584BCB9EFF3148404F0D4
:10A230000304022C03D0032C0AD0082007E0094CA9
:10A240002468E407F9D4DFF820C000DF002010BD47
:10A25000044C2468E407F0D5F5E70720F7E700BFD2
:10A260002831002088270020E5A1000880F3098814
:10A270002B480078023080F31488BFF36F8F70474B
:10A2800080E8F00F7047EFF30980816911F8021C34
:10A2900051B990E80F1010B5E047BDE81040EFF35A
:10A2A000098C8CE80700704710B51E4A126891426D
:10A2B00009D81D4C54F8214090E80F10A047EFF347
:10A2C000098C8CE80F00BDE810407047174B1A68E6
:10A2D000174B1968914208BF7047EFF3098C2CE9BE
:10A2E000F00FC1F800C01A60D2F800C0BCE8F00F4F
:10A2F0008CF30988704710B5FFF7E7FEBDE8104002
:10A3000070471EF0040F0CBFEFF30883EFF30983CF
:10A310002DE9F84F6846FEF729FEBDE8F84F704773
:10A320008827002000000000FCFFFFFF0002002043
:10A330009C31002070B44FF0000522F0030605E0C8
:10A3400043594C59A34204D105F10405B542F7D154
:10A350000DE01BBA24BA1B1B8CBF01234FF0FF3347
:10A3600009E0435D4C5D1B1B05D105F101059542DC
:10A37000F7D14FF00003184670BC704701E08B58CE
:10A380008350043AFBD502F1040201E08B5C835454
:10A39000013AFBD5704702440346934200D170470F
:10A3A00003F8011BF9E70EB403B503AB6FF00041EE
:10A3B00053F8042B019300F075FA02B05DF804EB3A
:10A3C00003B0704710B5024612F8014B11F8013B7B
:10A3D000E01A01D1002CF7D110BD03461A46013313
:10A3E00011780029FAD1101A70472DE9F04FD2F8F0
:10A3F00004A092F8038087B006460F4693464FF0BC
:10A4000000090124002522462B463046394603F038
:10A4100003F9494508BF40450AD24FF0000854EA05
:10A4200005030DD100238AF8003007B0BDE8F08F96
:10A4300004FB09F308FB0533A4FB08451D44E2E7D0
:10A4400022462B463046394603F0E6F891469BF803
:10A4500003200593CDE90001002320462946CDE9DC
:10A46000022303F0D9F8B8F1000F09D1AF4208BFB9
:10A47000A64205D2DDE902239D4208BF944212D2D2
:10A48000DDE90034002C08BF0A2B11D39BF8023001
:10A4900013F0040F14BF37235723009A13440AF80C
:10A4A000013B08F10108059F04460D464E46B6E7FC
:10A4B0003023F2E707B503688DF807101B681BB956
:10A4C000002003B05DF804FB01220DF1070198475D
:10A4D0000128F6D0F4E700002DE9F0414B680C7834
:10A4E00007460E4613F8012B0AB1002C52D1B3785F
:10A4F000D907738823F0FD039BB241F2020248BFE3
:10A5000004F1FF34934247D1023C3368384D1D407B
:10A51000002D50D1A046B8F1000F44DC631E002C82
:10A52000ACBF1C1B1C46B378DA0704D52D21384676
:10A53000FFF7C0FF0544738823F0FD039BB241F28F
:10A540000202934239D130213846FFF7B3FFB37886
:10A5500013F0040F054414BF582178213846FFF743
:10A56000A9FF0544737843B1A046B8F1000F2ADC77
:10A57000631E002CACBF1C1B1C46D6F8048018F8C8
:10A58000011B41BBB3781B0701D5002C28DC2846F2
:10A59000BDE8F081013CA5E740F60202934208BF06
:10A5A00004F1FF34B1E720213846FFF783FF08F1BB
:10A5B000FF380544AFE70025B5E740F602029342B5
:10A5C000D0D13021CAE730213846FFF773FF08F1B8
:10A5D000FF380544C9E73846FFF76CFF0544CEE76E
:10A5E00020213846FFF766FF013C0544CDE700BF58
:10A5F00000FF08002DE9F04F89B002AD002680462B
:10A600000F4614460195B14617F8011B19B32529C9
:10A6100003D04046FFF74EFFE3E09DF80230ADF86F
:10A62000009023F00F038DF8023000231A463846BD
:10A6300010F8011B99B90BB18DF8012000220746D3
:10A640007829E1D8622970D82529E2D0582900F06C
:10A65000CA800029D8D1304609B0BDE8F08F2D2935
:10A6600012D0302908D0232917D19DF8021041F0CB
:10A6700002018DF8021005E09DF802100F0701D4C9
:10A6800001231A460746D2E79DF8023043F008033B
:10A690008DF8023000220123F4E70BB18DF8012080
:10A6A0002A291CD154F8043BFF2B03DDFF238DF82E
:10A6B000003001E0002BFADC0178B81C6C2932D1A3
:10A6C00001786C290DBF417801300122023008BFAA
:10A6D00002227A29B3D1074617F8011BB0E7A1F18E
:10A6E0003003092BEAD800220A2703E010F8011BE7
:10A6F00007FB0232A1F130035FFA83FCBCF1090FC2
:10A70000F4D9A1F16103052B06D8A1F157030A2B57
:10A71000ECD08DF80020D1E7A1F14103052BF8D84A
:10A72000A1F13703F3E70022D3E7A1F16303152B6F
:10A730003FF66AAF01A050F823F000BF61A80008FF
:10A740009DA7000809A6000809A6000809A6000898
:10A7500009A600089DA7000809A6000809A6000888
:10A7600009A6000809A6000809A6000817A80008FD
:10A7700023A8000809A6000809A6000869A800087F
:10A7800009A6000895A7000809A6000809A6000860
:10A79000E7A700080A238DF8033031E00A238DF87B
:10A7A00003303AB1012A05D0073424F00704F4E855
:10A7B000020102E054F8040BC117002871F10003F4
:10A7C00008DA9DF80230404243F0010361EB410199
:10A7D0008DF802306A46FFF708FE69464046FFF7EB
:10A7E0007BFE064410E758394B424B41BDF802103E
:10A7F0009B0043F4805301F0FB010B43ADF80230A2
:10A800005AB1012A09D0E21D22F00702144651680C
:10A8100054F8080BDEE70823BDE754F8040B0021C9
:10A82000D8E76A46102354F8040B8DF80330002152
:10A83000FFF7DBFD4FF4847330214046ADF8003064
:10A84000FFF738FE782183464046FFF733FE69461E
:10A8500082464046FFF740FE06445E445644D3E637
:10A8600054F8041BC9B2D4E654F8043B019369467A
:10A870004046FFF731FE01950644C5E6FFF7BABE34
:10A880000FB407B5064B04AA186852F8041B0192CE
:10A89000FFF7B0FE03B05DF804EB04B0704700BFF3
:10A8A00034DC0008F0B585B00D4616461F460A4652
:10A8B00004460146684600F02FF83A463146FFF755
:10A8C00099FE55B1029BAB4234BF019A64194FF017
:10A8D000000334BF137004F8013C029805B0F0BDCA
:10A8E000024B0A4601461868FFF7C8BF34DC00086F
:10A8F00030B503460020013A00D230BD9C68DD68C7
:10A900000134AC429C60F6D85C68651C5D6011F84F
:10A91000015B25700130EEE710B5034CC0E9004142
:10A920000021C0E9021210BD2CDC00080020704795
:10A9300010B5084614461146FDF70AFE204610BD24
:10A9400010B50B494FF0FF33002251F8044B8442FD
:10A950000AD024B95C1C04BF41F8040C1346013230
:10A96000082AF2D158B210BD4FF0FF30FBE700BF0C
:10A97000B4310020037E054A03F0070352F8233068
:10A980000BB1DB681847FEF7B2BE00BFB431002040
:10A990002DE9F047104E044606F12009002556F82F
:10A9A000048BB8F1000F0BD04DB12046FEF702FF2B
:10A9B0002B690746204698475FB9BDE8F0874546B2
:10A9C000B145ECD1002DF8D02B692046BDE8F04709
:10A9D000184745463C46F3E7B431002008B5074B1D
:10A9E0001B7823B91A4619461846FEF799FA00F063
:10A9F0000FF8FEF7FDFD024B186008BDDC310020AA
:10AA00008C270020704770477047704770470000E0
:10AA100007B5074B00936422064B07480221FEF757
:10AA200037FF00F04BF803B05DF804EB00F030B8EE
:10AA300038DC0008902700205828002038B5094C41
:10AA400000252046FEF70BFE034600B938BD5D61C8
:10AA50001B7E1B0702D5FFF79BFFF2E7FFF78AFF7C
:10AA6000EFE700BF8C28002013B5084C2046FEF706
:10AA7000F6FD019008B902B010BD01A800F0F0F990
:10AA800001980028F2D0FEF732FEEFE7742800208C
:10AA900008B5064906480022FEF7D1FDBDE808408A
:10AAA000044905480022FEF7CABD00BF69AA000894
:10AAB000742800203DAA00088C28002007B5054B0B
:10AAC00000931822044B05480221FEF7E1FE03B073
:10AAD0005DF804FB42DC0008C0280020A428002008
:10AAE0000D4B1A68F0B59AB10C4B0C261D6800236B
:10AAF0009D4202DC6FF0030007E006FB03F4171928
:10AB0000145D844202D10F600020F0BD0133EFE7F5
:10AB10006FF00600F9E700BFD4310020D8310020E3
:10AB200030B485688D421C4608D30C44A54205D339
:10AB300044684078214430BC01F044BA4FF0FF3003
:10AB400030BC70472DE9F041244B1B7888B023B905
:10AB50001A4619461846FEF7E3F901F021FA38B112
:10AB600000231F4A0093146819461A461846A04746
:10AB70001C4F1D4B1D4E3B600623336000F010F947
:10AB800003A81B4C00F03AF90025A046022103A8B7
:10AB900000F0F4F810F10F0F19D0A8B905A903A817
:10ABA00000F0F7F880B99DF8143023709DF8153047
:10ABB0006370DDF8163063600135DDF81A30A3608C
:10ABC0000A2D04F10C04E1D108B0BDE8F081002D9C
:10ABD000FAD0C7F800803560F6E700BFDC3100200E
:10ABE0001C020020D43100204CDF0008D8310020A6
:10ABF000F028002070470000F0B5254C254A266853
:10AC000085B0054600230C219E420ADC022E3CD072
:10AC100001A92846FFF764FF50B16FF0040005B0AA
:10AC2000F0BD01FB03F0805CA8422BD00133EBE7C1
:10AC30000198816808230DEB03020839FFF770FFC4
:10AC40000028EAD1144B039A9A4215D19DF80A3094
:10AC5000022B14D1019BBDF808109B6899420BD8B8
:10AC60000C4F0C2272435B1ABE18C6E901312368EF
:10AC7000BD5401332360D2E76FF00800CFE76FF0D7
:10AC80000B00CCE76FF00A00C9E74FF0FF30C6E7D2
:10AC9000842900206C29002069A2B23B73B5154BB2
:10ACA00016461B6882789A4204460D4605DB00234F
:10ACB0001A4619461846FEF733F90C2353430E4A39
:10ACC00001A9D05CFFF70CFF014670B93246284657
:10ACD000FFF761FB637861680198B342A8BF334610
:10ACE0002A460231FFF71CFF08B16FF0040002B0E2
:10ACF00070BD00BF842900206C2900202DE9F3419C
:10AD00001C4D1D4E04462F46A2782B689A4204DB48
:10AD10006FF0010002B0BDE8F0810C23534301A99C
:10AD2000F05C06EB0308FFF7DBFEF8B963687BB95C
:10AD3000D8F80410019861608368083B8B420FD8F3
:10AD4000A3783A680133934206DB6FF00E00E1E727
:10AD5000617802331944EDE700226260A370D3E703
:10AD600002232246FFF7DCFE0028D3D06FF0040058
:10AD7000D0E700BF842900206C29002038B50446A4
:10AD80000D462046FFF7BAFF10B92378AB42F8D141
:10AD900038BD0A22FFF782BF0122FFF77FBF000004
:10ADA0001FB5144B187808BB01221A70124B1B7880
:10ADB00023B91A4619461846FEF7B2F8FFF71CFFEA
:10ADC000A0B902A800F01AF8042102A8FFF7D6FFE4
:10ADD00060B901A902A8FFF7DFFF38B99DF80400A8
:10ADE000FFF70AFF0028EFD00B30EDD005B05DF87B
:10ADF00004FB00BF68290020DC31002010B50446A8
:10AE0000FFF7CEFF0023C4E9003310BD08B5FEF7FD
:10AE100087F80000014B01221A707047DC310020D6
:10AE2000014B00221A707047DC310020F7B5089FF3
:10AE30000C469DB2099B0093164603463A462946A6
:10AE40002046FEF725FD40B92B46BAB221463046D2
:10AE500003B0BDE8F040FEF712BC03B0F0BD000047
:10AE600008B50348FDF79AFA4FF0FF3008BD00BF60
:10AE70004BDC0008704700207047000037B5144CC9
:10AE8000144D154915480194002300950122FEF741
:10AE900067FA034628B100231A4619461846FEF7FA
:10AEA0003FF814340E490F48CDE900540122FEF753
:10AEB00057FA01460028EED101F028FA0028EAD11D
:10AEC0000948FEF735FA0028E5D103B030BD00BFD0
:10AED00078DC00081DBF000869DC00088829002014
:10AEE0006FDC0008C429002040420F0030B5184B29
:10AEF0001848196887B0FDF751FA174B0193174BA3
:10AF000000930122164917480023FEF729FA02464A
:10AF100028B100231A4619461846FEF701F81048D2
:10AF20004FF0FF31FEF786FA04460028F1D002A860
:10AF300000F0E2F90028ECD102A9204600F0E3F984
:10AF400005462046FEF797FA002DE2D107B030BD46
:10AF500038020020A0DC000820020020C5B2000852
:10AF6000B2DC0008002A0020704708B500231A460A
:10AF700019461846FDF7D4FF10B59DF808400F2C70
:10AF800001D8FFF7F2FFBDE8104000F039BB000028
:10AF900010B504460448FDF701FAFDF721FA0CB993
:10AFA000FFF7E3FF002010BDBADC000801490248AA
:10AFB00000F01ABDBDDC0008C82D002008B5054909
:10AFC0000548032200F0A2FB0028D4BF0020012086
:10AFD00008BD00BFE8DD0008C82D002070B51C4684
:10AFE000194B416388B053F82160154600211122A6
:10AFF00003A8FFF7D0F94FF0FF332B6004B12360B3
:10B00000FFF7DCFF28B90024FDF7EAF9204608B075
:10B0100070BD0E48314600F0DAFC0028F3D05CB970
:10B020000B490A482B4603AA00F0DEFC0028EAD0B0
:10B03000FFF7BCFF0446E7E7064900942B4603AA46
:10B04000024800F0D1FCF1E7ECDD0008C82D00203B
:10B05000C0DC0008CCDC0008F0B5204B1A7885B0C5
:10B0600005462AB91E48FDF799F9002005B0F0BD44
:10B0700000241B481C70FDF791F90DB9FFF775FF0F
:10B080004FF48077174B18491848AC62EC622C6378
:10B09000019400974FF4C87200F0BBFC144E154A9F
:10B0A000124902944FF4FA530193134B0093304624
:10B0B0003B4600F005FB114B0C481C604FF4165149
:10B0C00000F051FD696A0948347600F0C2FC0C4971
:10B0D000064823462A4600F041FDC6E73402002018
:10B0E000DBDC0008382A0020382B0020042E00204A
:10B0F000C82D0020C82C0020D8DE0008502E0020CB
:10B1000069AF000873B504460D46FDF7E7F912482C
:10B11000124EFDF743F92544AC421AD014F8013B16
:10B120001A099F2B03F00F0394BF30325732092BBB
:10B1300094BF303357338DF8042001A902223046E2
:10B140008DF8053000F0E2FA0028E5DC002002B0BE
:10B1500070BD0120FBE700BFD9DE0008C82D00202C
:10B160002DE9FF471C46BDF83060DFF8D4A00096FB
:10B170004FF0FF33CDE90233074613468846914628
:10B180000A4601462B480E9DFDF708F942F210735E
:10B19000CAF80C30FFF712FF20B90026304604B081
:10B1A000BDE8F087CDE90096234943463A4650462C
:10B1B00000F000FC0028F0D0F4B1EEB1204631469A
:10B1C000FFF7A0FF0446002CE7D09DF834201B4970
:10B1D0001B4800F0FCFB0028DFD01A49184803ABDD
:10B1E00002AA00F001FC0028D7D01749144800F04B
:10B1F000FBFB0028D1D0D1E72DB92B462A462946A2
:10B200002846FDF78DFE11492B8A114A096811481D
:10B21000FDF7C4F8FDF7E4F8E9882868FFF772FF46
:10B22000044610B1ED68002DF6D10948214600F022
:10B230002FFAC8E7DEDC0008F6DC0008B2DD000803
:10B24000C82D0020D5DC0008BDDC00083802002035
:10B2500009DD000813DD000838B51446094A4163CA
:10B2600052F82150FFF7AAFE48B107482246294666
:10B2700000F0ADFB18B1BDE83840FFF797BE0020E5
:10B2800038BD00BFECDD0008C82D00200B4A10B50A
:10B29000416352F82140FFF791FE20B90024FDF7E9
:10B2A0009FF8204610BD0648214600F090FB00287C
:10B2B000F4D0FFF77BFE0446F1E700BFECDD0008A9
:10B2C000C82D002008B571B168B1084B0360084B68
:10B2D000C3600848FDF71EFB38B100231A46194623
:10B2E0001846FDF71DFE6FF0080008BD59B00008B4
:10B2F00091AF0008D4DD0008034600205860986034
:10B30000D860186070470020704700002DE9FF41A9
:10B31000504E514FDFF8488142F210730446F360FB
:10B3200014253946304600F052FB002857D04146DC
:10B33000304600F059FB002851D0464800F0DAF9B9
:10B3400001212046FFF7A2FF002852D0022120460B
:10B35000FFF79CFF00284CD003212046FFF796FF03
:10B36000002846D03D493B4800F031FB002840D042
:10B37000FFF71CFE00283CD0364800F0BBF905461C
:10B38000B8BB082204212046FFF766FF88B30521D9
:10B390002046FFF77BFF60B309212046FFF776FFC9
:10B3A00038B307212046FFF771FF10B301210520B4
:10B3B00000F0D0FE14264FF0FF3702AB01AA08219F
:10B3C0002046CDE90177FFF709FE90B1029B002BE3
:10B3D00014DA00231A4619461846FDF7A1FDFCF7BA
:10B3E000FFFF013D4FF4FA60FEF73AFE15F0FF054E
:10B3F00097D1656B284604B0BDE8F081012B0DD0D4
:10B40000052000F0DFFE013EFCF7EAFF4FF4FA6092
:10B41000FEF726FE16F0FF06CFD1EAE714264FF01E
:10B42000FF37002303AA0A2120460397FFF7D6FD22
:10B430000028DED0039B002BCBDB012BDAD0FCF7FE
:10B44000CFFF013E4FF4FA60FEF70AFE16F0FF064A
:10B45000E7D1CEE7C82D00201FDD000821DD000860
:10B46000BDDC000873B51A4E4FF4FA63F3600B238A
:10B4700043634FF0FF3304460D460193FFF79EFDF3
:10B4800020B9FCF7ADFF606B02B070BD11493046CA
:10B4900000F09DFA0028F4D00F4901AA304600F0D0
:10B4A000A3FA0028EDD0FFF781FD0028E9D0FCF7D2
:10B4B00097FF019B002B05DC00231A46194618460E
:10B4C000FDF72EFD24F8283F00202C60DCE700BFAC
:10B4D000C82D002024DD0008B3DD00081FB5084694
:10B4E0009DF818400088019411461A46079B029364
:10B4F0001B8A00930023FFF733FE04B010BD0C201D
:10B5000070470020704700207047704710B5044610
:10B510000448FCF743FF0449204601F06AFD204639
:10B5200010BD00BF30DE000839DE0008F7B5044664
:10B5300028B900231A4619461846FDF7F1FC43794D
:10B54000083B0B2BF5D9C1690029F2D0028C002AE7
:10B55000EFD01F4B1B68002BEBD058688142E8D11D
:10B560001B899342E5D11B4E3268002AE1D01A4F65
:10B570003B68002BDDD0194D2B78013313F0FF030E
:10B5800008BF012305202B7000F01CFE306800224C
:10B590004FF0FF31FDF74EFF06460028C9D0104896
:10B5A000FCF7FCFE2B7801940093238CE269396848
:10B5B0003046FFF793FF0028BBDD3046FDF75BFF09
:10B5C0002046FEF794F80028B3D103B0F0BD00BFC9
:10B5D000582E0020542E00205C2E0020602E0020CB
:10B5E00048DE0008054B1B7803F00703037009B120
:10B5F00041600281C0600020704700BF350200201A
:10B600002DE9F0410D4616469846074628B9002315
:10B610001A4619461846FDF783FC0029F7D0002288
:10B620004FF0FF31FDF706FF04460028EFD0134826
:10B63000FFF786F9124B4246187031462846FFF74D
:10B64000D1FF0028E3D12046FFF760FE0028DED1BD
:10B650000C492046FFF706FF06460028D7D10A4BC3
:10B660001F600A4B20461D60FDF705FF01210520E4
:10B6700000F070FD3046BDE8F08100BF58DE0008E4
:10B68000350200205C2E0020542E0020582E002071
:10B6900008B50246064B0748002918BF034606496D
:10B6A00006480968FCF77AFEBDE80840FCF798BE3A
:10B6B0007CDE000885DE0008380200208ADE0008F3
:10B6C00010B504460298A360039BC4E90012C4E9C4
:10B6D0000330FEF782FE9DF8103023760023606170
:10B6E000E361E36210BD006800F04EBAC168006813
:10B6F00000F0B7B910B50446206800F0ACF920B1ED
:10B700002068002100F0ADF9F6E710BDF8B5054658
:10B710000E4617460024BC4209DA315D2846FFF781
:10B72000E2FF002801DB0134F5E74FF0FF3420464B
:10B73000F8BD38B50546406801F063FC00284FF0BD
:10B7400000040BDB6B68195D41B12846FFF7CBFFA6
:10B75000002801DB0134F5E74FF0FF34204638BD07
:10B7600038B50446406801F04CFC002801DA00209E
:10B7700038BD00256368595D31B12046FFF7B3FF3E
:10B780000028F4DB0135F5E70D462369595D31B139
:10B790002046FFF7A8FF0028E9DB0135F5E76168DF
:10B7A0000248FCF7FBFD0120E2E700BF96DE00083F
:10B7B0002DE9F04F89B004460D4604922B78002BFA
:10B7C00000F0E78000273E464FF02A0B626815F82C
:10B7D00006A007F10109CDF8009002EB0708BAF1C5
:10B7E000000F1CD0626921690136B01A2844FEF7A7
:10B7F000A1FDA0B1BAF1250F009B0DD1AA5D252AAC
:10B800000AD02A2A08D088F800A0626802F803B09B
:10B8100007F102094F46D9E788F800A0FAE7252387
:10B8200088F8003063686E2203F80920636807F126
:10B8300003081F444FF00003BB70D4F804904FF08E
:10B84000000B2046FFF752FF031E02930ADA6268DC
:10B8500051484946FCF7A2FDFCF7C2FD002009B0A3
:10B86000BDE8F08F6368029A5B440BF1010703F8AF
:10B87000082008EB07030193019A63684FF0000169
:10B8800099546368039303EB080AA1460023D9F88F
:10B890001C200093EAB1BA421BD1D9F8203005939D
:10B8A00018463A465146FEF745FD059B88B91946AC
:10B8B0003A48FCF773FD009B04EB0313D3E909201E
:10B8C0009047049A29462046FFF772FFC7E70123F5
:10B8D000DDE7009B09F11009002BF8D04FF0FF3293
:10B8E0000792039907AA504601F076FB2C4A636839
:10B8F000126803EB08097AB1029A0A2A0CD113F8EC
:10B9000008300A2B08D00D2B06D0079900291EDD20
:10B9100024484A46FCF742FD079BD4F804A0BB42EA
:10B920001AD10AEB08012048FCF738FD29463246B7
:10B930006068FEF723FD63684FF000029A55616866
:10B94000049A01EB080001F07FFB354436E74946D5
:10B950001648FCF723FDDFE7A3680BF10202A3EB17
:10B9600008039A4207DA6069019B2169181A50445A
:10B97000FEF728FD58B91AF808300D2B0AEB08011C
:10B9800004D00A2B02D00A48FCF708FD0027BB466A
:10B9900057E7012063E700BF9FDE0008D2DE000802
:10B9A000642E0020DBDE0008EEDE0008E7DE000883
:10B9B000F7DE00080EB403B503AA52F8041B019287
:10B9C000FFF7B7FE02B05DF804EB03B070470EB4AA
:10B9D00003B503AA52F8041B0192FFF7C1FE02B09F
:10B9E0005DF804EB03B070470EB403B503AA52F838
:10B9F000041B0192FFF7DCFE02B05DF804EB03B01C
:10BA00007047704708B500231A4619461846FDF7D7
:10BA100087FAF8B5069F0025C0E9082704461E46A8
:10BA2000C0E9115580F8285000F0E9F8314604F1DA
:10BA300010003A4600F0E3F8294604F12C0001F02A
:10BA40003BFA28B12B462A4629462846FDF768FAD4
:10BA5000F8BD4164704742698069101A18BF01201F
:10BA6000704710B504462C3001F060FA6269A36992
:10BA70009A420DD0A3692269591CA161D05CE36987
:10BA8000A169013BB1FBF3F203FB1213A36110BDEB
:10BA90004FF0FF30FBE7426883689A4210B50ED042
:10BAA00083680268591C8160D35CC2688468013A6B
:10BAB000B4FBF2F102FB11428260184610BD836BA9
:10BAC0000BB1006C98474FF0FF30F7E708B508B9A5
:10BAD000FFF798FFBDE80840FFF7DDBFF7B590F826
:10BAE0002810044641B1606C00F054FE606C03B055
:10BAF000BDE8F04000F06CBE134B466C856C01272E
:10BB000080F828704FF480721846FEF744FC0F4A04
:10BB10000F4B10600F49104A0094304600F024FE8D
:10BB200078B925B92B462A462946FDF7F9F9CDE91A
:10BB300000003B4608222946304600F079FE0028E6
:10BB4000D1D0FFF75FFF00BF682E0020682F0020D4
:10BB5000C5BB0008CDBA000803BA000800EB830398
:10BB60005963DA637047816470474368026810B5AF
:10BB70005C1C4460D154C3684168013BB1FBF3F2E3
:10BB800003FB1213436010BD38B505460C46C9B21D
:10BB9000FFF7EBFF2846FFF7A1FF204638BD10B5A1
:10BBA00004461030FFF7E1FF04F12C0001F08CF99E
:10BBB00008B1FFF727FF636B0BB1E06B98470020DC
:10BBC00010BD000010B5084C084A23689A1AFF2AD5
:10BBD000DEBF5A1C2260197008B9FFF713FFBDE8D9
:10BBE0001040FFF7DCBF00BF682F0020682E002048
:10BBF00000214160C26881600068FEF7CCBB08B5D7
:10BC00000160C260FFF7F4FF08BD000008B50748F7
:10BC1000012101F051F928B100231A4619461846AE
:10BC2000FDF77EF9024B01221A7008BD6C2F00202F
:10BC3000742F002008B50A4B1B782BB900231A4635
:10BC400019461846FDF76CF90028F7D005484FF063
:10BC5000FF3101F06BF90028F0D1012008BD00BFD1
:10BC6000742F00206C2F002030B51849184885B07B
:10BC7000FCF794FB174B0193174B009301221349D8
:10BC800016480023FDF76CFB024628B100231A4634
:10BC900019461846FDF744F90C484FF0FF31FDF7FF
:10BCA000C9FB04460028F1D002A800F067F800287C
:10BCB000ECD102A9204600F09FF805462046FDF78A
:10BCC000DAFB002DE2D105B030BD00BF16D9000867
:10BCD000FEDE0008782F00208DBD0008902F002088
:10BCE0000020704730B5002002F08064054654EA19
:10BCF00005031DBF039B01221A706FF0010030BDC8
:10BD000008B5034618B902460146FDF709F90020B7
:10BD100008BD08B500231A4619461846FDF700F974
:10BD200030B5002185B0054602F0806050EA01037D
:10BD3000089C1BD02B680BB9FFF7EBFF0E48FCF7F4
:10BD40002DFB40F2DD6302939DF80C3043F00103BC
:10BD50008DF80C306CB14FF080620023CDE90023E8
:10BD6000099902AA2846A04705B030BD6FF001002E
:10BD7000FAE72046F8E700BF0DDF00084FF0FF327A
:10BD80000023C0E9002300207047000070B504467E
:10BD90000D4639B330B34FF0FF32002300F12806CF
:10BDA000C0E92C2301463046FCF7D9FFC8B90F4B38
:10BDB00023654FF080620023C4E90E23294604F175
:10BDC000700305F1140251F8040B43F8040B91427F
:10BDD000F9D13046FCF7AEFF18B9054B2360054B8F
:10BDE000E36070BD6FF00800FBE700BF24DF0008D0
:10BDF00001BD0008E1BC0008D1E90023C0E910231F
:10BE0000C0E92C230020704713B590F83730846BBD
:10BE1000019390F83630009390F8353090F8342044
:10BE2000016B601E00F004FD002818BF022002B064
:10BE300010BD806B08B5013800F0FCFD002818BF6C
:10BE4000022008BD37B50546806B144620B903466D
:10BE500002460146FDF764F82AB3EB7E9B0725D422
:10BE6000137985F83430D37985F83730937985F8AC
:10BE7000363013682B63537985F835305369009356
:10BE8000D2E90332A168013800F06EFC58B9E379B9
:10BE9000A86B0193A3790093227963792168013813
:10BEA00000F0C6FC00B1022003B030BD0B20FBE760
:10BEB00008B500231A4619461846FDF731F8806B7D
:10BEC00008B508B9FFF7F4FFBDE80840013800F0F5
:10BED00099BC806B08B508B9FFF7EAFFBDE80840D8
:10BEE000013800F057BC806B08B508B9FFF7E0FFD8
:10BEF000BDE80840013800F06BBC70B50C46054643
:10BF00001646FEF76BF8241A002C05DC26B1A86B48
:10BF1000013800F08FFD00B1022070BD70B5C56919
:10BF2000044628460E46FEF758FA054415F8013C2B
:10BF3000A3F13000092814D82F3BA3630A4B2360D8
:10BF40000A4BE3600A4B63600A4BA3600A4B6362CF
:10BF50000A4BA3620A4BE362314600F05DFD00200C
:10BF600070BD0220FCE700BF45BE000833BE0008DC
:10BF7000FBBE000809BE0008E7BE0008D3BE0008EB
:10BF8000BFBE000843688B4207D8826813448B42C7
:10BF900034BF6FF00100002070476FF00100704760
:10BFA00038B500242546E0B2FEF765FF40B10368CE
:10BFB0005B699847002818BF6FF004050134F2E769
:10BFC000284638BD2DE9F0410D4617461E46FEF7BE
:10BFD00052FF0446B0B12946FFF7D4FF90B9A91922
:10BFE0002046FFF7CFFF68B923683A46D3F80080B0
:10BFF000294633462046C047002818BF6FF004008A
:10C00000BDE8F0816FF00100FAE700000138324B23
:10C010008AB0072805D8DFE800F00F19232D374133
:10C020004B55DA6C42F00102DA64DB6C03F0010379
:10C030000193019B0AB07047DA6C42F00202DA64A5
:10C04000DB6C03F002030293029BF3E7DA6C42F02D
:10C050000402DA64DB6C03F004030393039BE9E757
:10C06000DA6C42F00802DA64DB6C03F00803049334
:10C07000049BDFE7DA6C42F01002DA64DB6C03F059
:10C0800010030593059BD5E7DA6C42F02002DA64D1
:10C09000DB6C03F020030693069BCBE7DA6C42F0DF
:10C0A0004002DA64DB6C03F040030793079BC1E7AF
:10C0B000DA6C42F08002DA64DB6C03F080030893F0
:10C0C000089BB7E7DA6C42F48072DA64DB6C03F445
:10C0D00080730993099BADE70010024010B5C0F3CF
:10C0E0000314082C0FDC00F00F03012000FA03F307
:10C0F0000B602046FFF78AFF044B53F8240000F042
:10C10000D9FC002010BD4FF0FF30FBE794DF0008A2
:10C110007FB5002B0CBF02231223CDE9023203238B
:10C12000CDE9043101A9FFF7D9FF07B05DF804FBA1
:10C1300000F00F0201239340C0F303100A1E99B2CE
:10C14000034B18BF012253F8200000F09BBD00BF35
:10C1500094DF000830B5C0F30315082D87B00446FE
:10C160001ADC2846FFF752FF2046FFF7E1FF04F0F4
:10C170000F04012303FA04F4CDE90143002403234F
:10C18000CDE90343064B059453F8250001A900F0BF
:10C1900091FC204607B030BD4FF0FF30FAE700BFFA
:10C1A00094DF000808B5012100F00F039940C0F3A7
:10C1B0000310034B89B253F8200000F05DFD08BD69
:10C1C00094DF000838B50546FFF7ECFF441E18BFA2
:10C1D000012428462146FFF7ABFF204638BD08B5AD
:10C1E000FDF789FF034618B902460146FCF798FEA1
:10C1F000BFF34F8F30BF08BD0A4B0B4A1B68B3FB20
:10C20000F0F3013B5360002393600723136009019F
:10C21000064B074AC9B283F82310536843F007035B
:10C2200053607047C001002010E000E000ED00E026
:10C23000002004E0BFF34F8F0549064BCA6802F4A3
:10C24000E0621343CB60BFF34F8F00BFFDE700BF39
:10C2500000ED00E00400FA0500207047FDF7BEBEC7
:10C26000EFF3108172B603681A69D20707D54268E6
:10C2700002F5803242601A6922F001021A615B6A9B
:10C280004068184401B962B6704700002DE9F041DA
:10C290001D4C23681B6913F001061EBF626802F57E
:10C2A000803262609B0729D5174F46F002064FF097
:10C2B0000008A56835B13846FFF7D2FFEB68C01A11
:10C2C00000280BDAA2682068B2B9114600F0B0FD70
:10C2D0002268D36823F00203D3600FE0D5E904326B
:10C2E00043B15A616A691360D5E90130C5F8148019
:10C2F0009847DEE7E260F5E7D36843632368F643D7
:10C300001E61BDE8F08100BFE031002030B5022899
:10C3100089B003DD4FF0FF3009B030BDA44B53F8B6
:10C320002030002BF6D00029F4D01960A14B99429F
:10C3300000F0CD80B1F1804F00F0D180A3F59433AF
:10C34000994217D003F58063994213D003F58063B7
:10C3500099420FD003F5943399420BD003F5406313
:10C36000994207D003F58063994203D003F58063B7
:10C370009942CFD1002840F0AC808F4B99425CD1DC
:10C380008E4B8F48F02283F81D238E4A9268C2F8A4
:10C39000B4004FF000521A608B4B9A6D42F00202CB
:10C3A0009A659B6D03F002030293029B874B9942AF
:10C3B0005CD1824B8248F02283F81823814A92682C
:10C3C000C2F8A0004FF080721A607F4B1A6E42F4E0
:10C3D00080321A661B6E03F480330593059B754B00
:10C3E00099425CD17A4A136943F400631361794B33
:10C3F00099425CD1764A936843F004039360764B8C
:10C4000099425CD1724A136943F40033CCE06B4B20
:10C410006B48F02283F819236A4A9268C2F8A40094
:10C420004FF000721A60684B1A6E42F400621A668E
:10C430001B6E03F400630093009B664B994266D128
:10C440005E4B5F48F02283F81E235E4A9268C2F872
:10C45000B8004FF080421A605B4B9A6D42F00402C4
:10C460009A659B6D03F004030393039B5A4B994217
:10C470006FD1524B5248F02283F81923514A9268E7
:10C48000C2F8A4004FF000721A604F4B1A6E42F4CB
:10C4900000321A661B6E03F400330693069BB1F15B
:10C4A000804F70D14A4A936843F0010393604B4B2D
:10C4B000994271D1464A136943F400531361484BC2
:10C4C000994272D1424A136943F480236CE00028F8
:10C4D0009DD000231A4619461846FCF721FD002876
:10C4E000F7D1364B3648F02283F81C23354A926840
:10C4F000C2F8B0004FF080521A60334B9A6D42F090
:10C5000001029A659B6D03F001030193019B334B7C
:10C5100099427FF44BAF294B2A48294AF02483F8EB
:10C520002E438568C5F8F8204FF480455D6083F898
:10C530002C438068C0F8F0204FF480525A60224BA0
:10C540001A6E42F400521A661B6E03F400530493F1
:10C55000049B234B99427FF442AF184B1848F022BA
:10C5600083F81A23174A9268C2F8A8004FF0806235
:10C570001A60154B1A6E42F480221A661B6E03F481
:10C5800080230793079B0C4B99427FF430AF104AEE
:10C59000936843F0020393600C4B99427FF42FAFF2
:10C5A0000B4A136943F4803313610020B4E600BFE3
:10C5B000B8DF0008002C01400004004000E100E06A
:10C5C0008DC2000800ED00E0001002400040014074
:10C5D000002004E000080040004401400034014015
:10C5E0000048014030B5022887B00C4603DD4FF00B
:10C5F000FF3007B030BD244B53F82050002DF6D04B
:10C600002868224B98421ED0B0F1804F1BD0A3F572
:10C610009433984217D003F58063984213D003F502
:10C62000806398420FD003F5943398420BD003F502
:10C630004063984207D003F58063984203D003F526
:10C6400080639842D3D100F001FCB0FBF4F0B0F568
:10C65000803FCCD20024CDE9044400904FF6FF7314
:10C660002868029304230394019403600123C360A8
:10C67000694600F077FB2B681C611A6842F00102E2
:10C680001A602046B5E700BFB8DF0008002C014063
:10C69000022805DC044B53F8200008B1FFF7E0BD89
:10C6A0004FF0FF30704700BFB8DF0008254A02EBAB
:10C6B000C001F8B54B6852F83040013325684B6033
:10C6C000EF69BE0610D5AE8CA3686069F6B231463C
:10C6D0009847002808DA2B6823F020032B60237981
:10C6E000667143F00203237117F0C00F22D03806A1
:10C6F0002E680FD5E368606998470028BDBF23798D
:10C7000026F0800643F0040380B2BABF46F040062C
:10C7100023712885237959070BD57A0609D5236912
:10C720000BB16069984723796FF38203237126F078
:10C7300040062E603B0742BF2B6A43F008032B6282
:10C74000F8BD00BF503000200020FFF7AFBF012030
:10C75000FFF7ACBF0220FFF7A9BF0320FFF7A6BF7A
:10C760000420FFF7A3BF0000012830B50DDC084C02
:10C770001C2505FB0044207910F0010005D1C4E917
:10C780000231039B2261636130BD4FF0FF30FBE754
:10C7900078300020F8B50D4E1C25454374192379D7
:10C7A0009B0712D5EFF3108772B6A36861796069B1
:10C7B000984740B92379725960F341032371136894
:10C7C00043F02003136007B962B6F8BD783000204B
:10C7D00010B5EFF3108472B61C23094A58431118A0
:10C7E00013581A6822F040021A601A6842F0800258
:10C7F0001A600B796FF382030B7104B962B610BD36
:10C800007830002001280FDC1C23084A58431318F5
:10C810001B79DB0708D51358DA691006FCD589B2F5
:10C820001985DA695206FCD5704700BF78300020C0
:10C830002DE9F84F01289DF828C09DF82CB0054639
:10C84000884600F3C880654F1C2101FB0071087900
:10C85000C00700F1C0808C692CB900231A46194624
:10C860001846FCF75DFB21685D4ED1F800E0486892
:10C870008968082A0EEA060620F4405903D0092ADE
:10C88000EBD146F48056012B04D0022B40F0A3805C
:10C8900049F40059BCF1010F61D0BCF1020F61D025
:10C8A000BBF1010F21F4407A09D194F90E30002B2D
:10C8B0004AF4407AD1DB94F90F30002BCDDB62686B
:10C8C000A16813680B43136000231A46217C94F976
:10C8D0000C00FFF71DFC0023217C94F90D001A4683
:10C8E000FFF716FCBBF1010F46F00C060DD100233B
:10C8F0001A46217C94F90E00FFF70AFC0023217CE4
:10C9000094F90F001A46FFF703FC2368354A4FF0ED
:10C910001C0B0BFB05FB934247F80B30C3F808A038
:10C92000C3F804901E604FEA58061ED100F0ECF9DF
:10C9300057F80B308119B1FBF8F1D9601C236B4318
:10C94000F858838CC36994F91130272B3DD00FDC44
:10C95000252B15D0262B80D1234A244912E046F4FA
:10C96000C0669DE746F480669AE700F0BDF9DFE710
:10C97000342B2DD0352B7FF470AF1D4A1D4901E0BB
:10C980001D4A1E491C2404FB05740C601C4903F15C
:10C9900010048968002B41F8242008DB5909012282
:10C9A00003F01F0302FA03F3164A42F8213003682A
:10C9B00043F0210303601C2000FB057500202B7948
:10C9C00043F001032B71BDE8F88F0F4A0F49D9E7F7
:10C9D0000F4A1049D6E74FF0FF30F4E778300020D7
:10C9E000FB69FFEF003801404FC7000858300020B6
:10C9F00061C700087030002049C70008503000208F
:10CA000000ED00E000E100E055C7000860300020C4
:10CA10005BC70008683000200128DFBF044B1C22E0
:10CA200002FB00308161D4BF00204FF0FF3070471F
:10CA30007830002001280BDC074A1C2358431318C8
:10CA400019796FF3000119711358002018607047AD
:10CA50004FF0FF30704700BF78300020C001B0F5C4
:10CA60007A1F4FF47A72B0FBF2F20AD2064B0748F3
:10CA70009A60062140F6FF72C3E90001DA600020E7
:10CA800070474FF0FF307047F03100200030004019
:10CA9000034A0448936843F48053936000F0F7B866
:10CAA000002004E0F0310020014800F016B900BF7A
:10CAB000F03100202DE9F04FDFF8B4816A4CDFF847
:10CAC000B49185B000230A6832FA03F502D105B0AB
:10CAD000BDE8F08F01279F403A4000F0B4804D68D8
:10CAE00025F0100ABAF1020F16D14FEAD30E00EB6F
:10CAF0008E0E03F0070BDEF820604FEA8B0B4FF031
:10CB00000F0C0CFA0BFC26EA0C0C0E6906FA0BF65D
:10CB100046EA0C06CEF82060D0F800B04FEA430E8B
:10CB20004FF0030C0CFA0EFC6FEA0C062BEA0C0B10
:10CB300005F0030C0CFA0EFC0AF1FF3A4CEA0B0C60
:10CB4000BAF1010F0196C0F800C015D8D0F808C09E
:10CB500006EA0C0CCE6806FA0EFA4AEA0C0CC0F88B
:10CB600008C0D0F804C02CEA0707C5F3001C0CFA73
:10CB700003FC4CEA07074760C768019E37408E6890
:10CB800006FA0EF63E43C660EE005CD5D8F860604B
:10CB900046F00106C8F86060D8F8606023F003072B
:10CBA00007F1804706F0010607F58037039603F08A
:10CBB000030C039ED7F808A04FF00F0E4FEA8C0C21
:10CBC0000EFA0CF6B0F1904F2AEA060E3DD0274E31
:10CBD000B0423CD006F58066B0423AD006F5806699
:10CBE000B04238D006F58066B04236D006F5806691
:10CBF000B04234D0484534D006F50066B0420CBF90
:10CC00000726082606FA0CF646EA0E06BE602668D7
:10CC1000D74315F4803F0CBF3E401643266066683C
:10CC200015F4003F0CBF3E4016436660A66815F43D
:10CC3000801F0CBF3E401643A660E668AD0254BF9D
:10CC40003E401643E66001333DE70026DAE7012661
:10CC5000D8E70226D6E70326D4E70426D2E705263E
:10CC6000D0E70626CEE700BF0004014000040048DC
:10CC700000100240001800480369194214BF012047
:10CC8000002070470AB1816170478162704738B5F2
:10CC9000044600B303684CF6CC421A6045F2555284
:10CCA0001A6042685A6082689A60FFF7D7FA0546B0
:10CCB0002368D86840B9E268196991420ABF4AF608
:10CCC000AA221A611A6038BDFFF7C8FA401B302843
:10CCD000EED90320F7E70120F5E703684AF6AA2218
:10CCE0001A60002070470000044B054A9B68C3F39C
:10CCF0000223D35C034A1068D840704700100240FA
:10CD00000CD90008C0010020044B054A9B68C3F3FE
:10CD1000C223D35C034A1068D84070470010024019
:10CD20000CD90008C00100200F2303600B4B9A6848
:10CD300002F0030242609A6802F0F00282609A6890
:10CD400002F4E062C2609B68DB0803F4E063036105
:10CD5000034B1B6803F00F030B6070470010024089
:10CD600000200240304A0368904212D0B0F1804F58
:10CD70000FD0A2F5943290420BD002F5806290421F
:10CD800007D002F58062904203D002F594329042BF
:10CD900019D14A6823F070031343234A90421DD0EF
:10CDA000B0F1804F1AD0A2F59432904216D002F51D
:10CDB0008062904212D002F5806290420ED002F55D
:10CDC000943290420AD0194A904207D002F580620C
:10CDD000904203D002F58062904203D1CA6823F4E6
:10CDE000407313434A6923F08003134303608B6845
:10CDF000C3620B6883620C4B98420FD003F500634B
:10CE000098420BD003F54063984207D003F5806346
:10CE1000984203D003F58063984201D10B69036304
:10CE200001234361704700BF002C014000400140D6
:10CE3000036A01F01F0110B501248C4023EA0403AA
:10CE40000362036A8A401A43026210BD10B586B0BD
:10CE50000446694601A8FFF767FF144B9C4217D0B0
:10CE60000AD8A3F592339C421BD024F48064B4F119
:10CE7000804F16D0002010E00D4B9C4208D00ED8F9
:10CE8000A3F580539C4203D003F540639C42F1D14B
:10CE9000FFF73AFF059B03B1400006B010BD054BFC
:10CEA000F4E7FFF721FF049BF5E700BF002C0140EA
:10CEB0000044014000480140034618B1C1800020F1
:10CEC0001860704703207047F8B5174B1B6804467D
:10CED0001BB320B3FCF712FF0746FDF703F92568E3
:10CEE0000646ADB16B7B23F002036B732846FCF75B
:10CEF0005DFFFC7AE87A844294BF00240124304626
:10CF0000FDF7F6F86CB12846FCF704FF0020F8BDE9
:10CF1000E3880133E3802C46F1E70920F7E703209B
:10CF2000F5E72046F3E700BF7C310020F8B5294B38
:10CF30001B6805460E46002B47D0002847D0FCF75B
:10CF4000DDFE0446FDF7CEF8EB880746CBB1013B8A
:10CF5000EB8000252E463846FDF7CAF87EB100204A
:10CF6000FCF7D8FE657B15F0020508D0FDF7BAF88E
:10CF7000637B23F002036373FDF7BAF806252846A6
:10CF8000F8BD06B3627BE56142F002026273296874
:10CF9000B1B194F80BC00A46D07A60450ED8D06C77
