:020000040800F2
:1000000000000320BD0100080902000809020008E1
:1000100009020008090200080902000800000000A7
:100020000000000000000000000000006F23000836
:100030000902000800000000B5230008DF230008C3
:100040000902000809020008090200080902000864
:100050000902000809020008090200080902000854
:100060000902000809020008090200080902000844
:100070000902000809020008090200080902000834
:100080000902000809020008090200080902000824
:100090000902000809020008090200080902000814
:1000A0000902000809020008090200080902000804
:1000B00009020008090200080902000809020008F4
:1000C00009020008090200080902000809020008E4
:1000D00009020008090200080902000809020008D4
:1000E00009020008090200080902000809020008C4
:1000F00009020008090200080902000800000000C7
:1001000009020008090200080902000809020008A3
:100110000902000809020008090200080902000893
:100120000902000809020008090200080902000883
:100130000902000809020008090200080902000873
:100140000902000809020008090200080902000863
:100150000902000809020008090200080902000853
:100160000902000809020008090200080902000843
:100170000902000809020008000000000000000059
:100180000902000809020008090200080902000823
:100190000902000809020008000000000000000039
:1001A0000000000000000000090200080902000829
:1001B000090200080902000809020008DFF830D02F
:1001C000002103E00B4B5B58435004310A480B4BB2
:1001D00042189A42F6D30A4A02E0002342F8043B4E
:1001E000084B9A42F9D300F011F800F03DF8FEE711
:1001F0000000032048250008C0010020F001002075
:10020000F0010020A0030020FEE700000B4B1A685D
:10021000002142F001021A6099601A6822F0A85287
:1002200022F410221A604FF48052DA601A6822F425
:1002300080221A60996100F003B800BF00100240EC
:10024000064B07498B4206D000228858985004324A
:10025000B2F5C47FF9D1034A9360704700000020D3
:100260000000000800ED00E0002108B5084600F09D
:1002700003F800F08BF9704708B500F07BF8024BEB
:100280001869203000F052FAA024000830B5002090
:10029000BDB000F053FF044628B100231A461946AA
:1002A000184601F0C9FF00F02FFF314AD2F8903014
:1002B00023F01803C2F890301A23069360230E939C
:1002C0004FF4807240230125CDE9092308940D9451
:1002D0003C23022406A8CDE90B55CDE91045CDE914
:1002E0001334CDE91544129501F04EF80028D4D10D
:1002F00003234FF00F0CCDE901C303904FF480634B
:10030000052101A8CDE9043301F0A0FA0028C4D1E9
:1003100046F22723179308222023CDE927234FF005
:10032000805337934FF4802330934FF0806334939E
:100330001823CDE91A342B9026904FF0807317A81C
:10034000CDE91C44CDE918551E9301F0A3FC0446E9
:100350000028A2D101F0BEFE204601F0B1FE2246E7
:100360004FF04071204600F07FFF3DB030BD00BF30
:100370000010024013B51A491A4800F041F8FFF77F
:1003800085FF194B0193194B009319491948002314
:10039000012201F083FF044628B100231A461946C2
:1003A000184601F049FF01460F2000F075F921467B
:1003B000132000F071F94FF08041204600F018FA48
:1003C0000028EAD10C4801F055FF02460028E4D18C
:1003D0000A4900F07BF90028DFD102B010BD00BF50
:1003E00000000320A00300208C240008250500083D
:1003F00084240008F001002040420F00C4010020C6
:10040000024BC3E900019860704700BFD80100208B
:1004100013B590F83730846B019390F83630009321
:1004200090F8353090F83420016B601E00F064FCC9
:10043000002818BF022002B010BD806B08B501383B
:1004400000F06CFD002818BF022008BD37B5054636
:10045000806B144620B903460246014601F0ECFECB
:100460002AB3EB7E9B0725D4137985F83430D379F2
:1004700085F83730937985F8363013682B635379D4
:1004800085F8353053690093D2E90332A168013809
:1004900000F0CEFB58B9E379A86B0193A3790093E0
:1004A000227963792168013800F026FC00B102202E
:1004B00003B030BD0B20FBE708B500231A461946F0
:1004C000184601F0B9FE806B08B508B9FFF7F4FFD4
:1004D000BDE80840013800F0F9BB806B08B508B9E9
:1004E000FFF7EAFFBDE80840013800F0B7BB806BBA
:1004F00008B508B9FFF7E0FFBDE80840013800F093
:10050000CBBB70B50C460546164601F00BFF241A0E
:10051000002C05DC26B1A86B013800F0FFFC00B10F
:10052000022070BD70B5C569044628460E4601F02C
:100530007DFF054415F8013CA3F13000092814D8CB
:100540002F3BA3630A4B23600A4BE3600A4B6360B3
:100550000A4BA3600A4B63620A4BA3620A4BE36235
:10056000314600F0CDFC002070BD0220FCE700BF4A
:100570004D0400083B0400080305000811040008AE
:10058000EF040008DB040008C704000808B500F009
:10059000B5F800000138324B8AB0072805D8DFE8EB
:1005A00000F00F19232D37414B55DA6C42F0010250
:1005B000DA64DB6C03F001030193019B0AB070471E
:1005C000DA6C42F00202DA64DB6C03F0020302939D
:1005D000029BF3E7DA6C42F00402DA64DB6C03F0AE
:1005E00004030393039BE9E7DA6C42F00802DA6440
:1005F000DB6C03F008030493049BDFE7DA6C42F042
:100600001002DA64DB6C03F010030593059BD5E759
:10061000DA6C42F02002DA64DB6C03F0200306930C
:10062000069BCBE7DA6C42F04002DA64DB6C03F045
:1006300040030793079BC1E7DA6C42F08002DA645B
:10064000DB6C03F080030893089BB7E7DA6C42F495
:100650008072DA64DB6C03F480730993099BADE765
:100660000010024010B5C0F30314082C0FDC00F09A
:100670000F03012000FA03F30B602046FFF78AFF07
:10068000044B53F8240000F05DFC002010BD4FF037
:10069000FF30FBE7E82400087FB50023CDE90231F5
:1006A00001A9FFF7DFFF07B05DF804FB7FB5002B62
:1006B0000CBF02231223CDE902320323CDE904311A
:1006C00001A9FFF7CFFF07B05DF804FB81B1012A54
:1006D0000ED805280CDC084B53F8203043B1D966FE
:1006E00093F8641062F3000183F8641000207047EF
:1006F0004FF0FF30704700BF0C250008BFF34F8F4D
:100700000549064BCA6802F4E0621343CB60BFF3AD
:100710004F8F00BFFDE700BF00ED00E00400FA05C9
:100720000020704701F0FEBD00207047036883F38E
:100730000888034A436800211160BFF34F8F1847B0
:1007400000000140EFF3108172B603681A69D20706
:1007500007D5426802F5803242601A6922F0010230
:100760001A615B6A4068184401B962B670470000BC
:100770002DE9F0411D4C23681B6913F001061EBFD3
:10078000626802F5803262609B0729D5174F46F0F8
:1007900002064FF00008A56835B13846FFF7D2FFD2
:1007A000EB68C01A00280BDAA2682068B2B91146BB
:1007B00001F0FEFC2268D36823F00203D3600FE04F
:1007C000D5E9043243B15A616A691360D5E9013051
:1007D000C5F814809847DEE7E260F5E7D368436325
:1007E0002368F6431E61BDE8F08100BF2C030020A2
:1007F00030B5022889B003DD4FF0FF3009B030BDBD
:10080000A44B53F82030002BF6D00029F4D0196007
:10081000A14B994200F0CD80B1F1804F00F0D18022
:10082000A3F59433994217D003F58063994213D00E
:1008300003F5806399420FD003F5943399420BD0AE
:1008400003F54063994207D003F58063994203D0D2
:1008500003F580639942CFD1002840F0AC808F4BE4
:1008600099425CD18E4B8F48F02283F81D238E4A2B
:100870009268C2F8B4004FF000521A608B4B9A6D28
:1008800042F002029A659B6D03F002030293029B01
:10089000874B99425CD1824B8248F02283F818231F
:1008A000814A9268C2F8A0004FF080721A607F4BB4
:1008B0001A6E42F480321A661B6E03F4803305937D
:1008C000059B754B99425CD17A4A136943F40063E6
:1008D0001361794B99425CD1764A936843F00403E3
:1008E0009360764B99425CD1724A136943F40033AA
:1008F000CCE06B4B6B48F02283F819236A4A92686C
:10090000C2F8A4004FF000721A60684B1A6E42F4ED
:1009100000621A661B6E03F400630093009B664B33
:10092000994266D15E4B5F48F02283F81E235E4AEF
:100930009268C2F8B8004FF080421A605B4B9A6D23
:1009400042F004029A659B6D03F004030393039B3A
:100950005A4B99426FD1524B5248F02283F81923D7
:10096000514A9268C2F8A4004FF000721A604F4BCF
:100970001A6E42F400321A661B6E03F400330693BB
:10098000069BB1F1804F70D14A4A936843F001034E
:1009900093604B4B994271D1464A136943F400531B
:1009A0001361484B994272D1424A136943F4802340
:1009B0006CE000289DD000231A461946184601F025
:1009C0003BFC0028F7D1364B3648F02283F81C2335
:1009D000354A9268C2F8B0004FF080521A60334B2B
:1009E0009A6D42F001029A659B6D03F00103019339
:1009F000019B334B99427FF44BAF294B2A48294A3C
:100A0000F02483F82E438568C5F8F8204FF480451C
:100A10005D6083F82C438068C0F8F0204FF480526A
:100A20005A60224B1A6E42F400521A661B6E03F48F
:100A300000530493049B234B99427FF442AF184B1D
:100A40001848F02283F81A23174A9268C2F8A800BF
:100A50004FF080621A60154B1A6E42F480221A66BB
:100A60001B6E03F480230793079B0C4B99427FF482
:100A700030AF104A936843F0020393600C4B9942E5
:100A80007FF42FAF0B4A136943F4803313610020C6
:100A9000B4E600BF24250008002C014000040040FB
:100AA00000E100E07107000800ED00E000100240E6
:100AB00000400140002004E00008004000440140E4
:100AC000003401400048014030B5022887B00C4690
:100AD00003DD4FF0FF3007B030BD244B53F82050FA
:100AE000002DF6D02868224B98421ED0B0F1804FDE
:100AF0001BD0A3F59433984217D003F58063984236
:100B000013D003F5806398420FD003F594339842D5
:100B10000BD003F54063984207D003F580639842F9
:100B200003D003F580639842D3D101F04FFBB0FBB3
:100B3000F4F0B0F5803FCCD20024CDE9044400901D
:100B40004FF6FF7328680293042303940194036013
:100B50000123C360694601F0C5FA2B681C611A685D
:100B600042F001021A602046B5E700BF24250008C4
:100B7000002C0140254A02EBC001F8B54B6852F841
:100B80003040013325684B60EF69BE0610D5AE8C4E
:100B9000A3686069F6B231469847002808DA2B68E6
:100BA00023F020032B602379667143F00203237145
:100BB00017F0C00F22D038062E680FD5E3686069A1
:100BC00098470028BDBF237926F0800643F0040330
:100BD00080B2BABF46F040062371288523795907B1
:100BE0000BD57A0609D523690BB16069984723793B
:100BF0006FF38203237126F040062E603B0742BF4D
:100C00002B6A43F008032B62F8BD00BF2C020020C2
:100C10000020FFF7AFBF0120FFF7ACBF0220FFF7B6
:100C2000A9BF0320FFF7A6BF0420FFF7A3BF000062
:100C3000022830B50DDC084C1C2505FB004420794A
:100C400010F0010005D1C4E90231039B2261636108
:100C500030BD4FF0FF30FBE754020020F8B50D4ED9
:100C60001C254543741923799B0712D5EFF3108790
:100C700072B6A36861796069984740B9237972595F
:100C800060F341032371136843F02003136007B935
:100C900062B6F8BD5402002010B5EFF3108472B6AE
:100CA0001C23094A5843111813581A6822F04002AD
:100CB0001A601A6842F080021A600B796FF382039F
:100CC0000B7104B962B610BD5402002002280FDC7B
:100CD0001C23084A584313181B79DB0708D51358FF
:100CE000DA691006FCD589B21985DA695206FCD595
:100CF000704700BF540200202DE9F84F02289DF8EC
:100D000028C09DF82CB00546894600F3D6806C4873
:100D10001C2101FB050180460C7914F0010F40F005
:100D2000CC808C692CB900231A461946184601F06C
:100D300083FA2168634F08684E688968082A07EAC1
:100D4000000726F4405603D0092AECD147F4805717
:100D5000012B04D0022B40F0B08046F40056BCF1C9
:100D6000010F4DD0BCF1020F4DD0BBF1010F21F4AA
:100D7000407A09D194F90E30002B4AF4407AD2DB44
:100D800094F90F30002BCEDB6268A16813680B4327
:100D9000136000231A46217C94F90C00FFF786FCAF
:100DA0000023217C94F90D001A46FFF77FFCBBF16C
:100DB000010F47F00C070DD100231A46217C94F94E
:100DC0000E00FFF773FC0023217C94F90F001A46F4
:100DD000FFF76CFC23683C4A4FF01C0B0BFB05FB38
:100DE000934248F80B30C3F808A05E601F604FEADA
:100DF00059060BD100F038FE58F80B30064410E0CD
:100E000047F4C067B1E747F48067AEE72F4A9342E3
:100E100003D002F58062934219D106F5740606F5F7
:100E20001056B6FBF9F6DE601C236B4358F803003E
:100E3000838CC36994F91130272B38D00ADC252B19
:100E400010D0262B7FF46FAF214A22490CE000F02E
:100E5000FBFDD1E7342B2DD0352B7FF464AF1E4A38
:100E60001E4901E01E4A1F491C2404FB05840C6036
:100E70001D4903F110048968002B41F8242008DB88
:100E80005909012203F01F0302FA03F3174A42F83B
:100E90002130036843F0210303601C2000FB05851B
:100EA00000202B7943F001032B71BDE8F88F104A25
:100EB0001049D9E7104A1149D6E74FF0FF30F4E75F
:100EC00054020020FB69FFEF00380140004400405D
:100ED000170C000834020020290C00084C020020E6
:100EE000110C00082C02002000ED00E000E100E001
:100EF0001D0C00083C020020230C000844020020C6
:100F00000228DFBF044B1C2202FB00308161D4BFEA
:100F100000204FF0FF3070475402002002280BDC05
:100F2000074A1C235843131819796FF300011971EC
:100F300013580020186070474FF0FF30704700BF13
:100F4000540200202DE9F04FDFF8B4816A4CDFF83D
:100F5000B49185B000230A6832FA03F502D105B0D6
:100F6000BDE8F08F01279F403A4000F0B4804D6803
:100F700025F0100ABAF1020F16D14FEAD30E00EB9A
:100F80008E0E03F0070BDEF820604FEA8B0B4FF05C
:100F90000F0C0CFA0BFC26EA0C0C0E6906FA0BF689
:100FA00046EA0C06CEF82060D0F800B04FEA430EB7
:100FB0004FF0030C0CFA0EFC6FEA0C062BEA0C0B3C
:100FC00005F0030C0CFA0EFC0AF1FF3A4CEA0B0C8C
:100FD000BAF1010F0196C0F800C015D8D0F808C0CA
:100FE00006EA0C0CCE6806FA0EFA4AEA0C0CC0F8B7
:100FF00008C0D0F804C02CEA0707C5F3001C0CFA9F
:1010000003FC4CEA07074760C768019E37408E68BB
:1010100006FA0EF63E43C660EE005CD5D8F8606076
:1010200046F00106C8F86060D8F8606023F0030756
:1010300007F1804706F0010607F58037039603F0B5
:10104000030C039ED7F808A04FF00F0E4FEA8C0C4C
:101050000EFA0CF6B0F1904F2AEA060E3DD0274E5C
:10106000B0423CD006F58066B0423AD006F58066C4
:10107000B04238D006F58066B04236D006F58066BC
:10108000B04234D0484534D006F50066B0420CBFBB
:101090000726082606FA0CF646EA0E06BE60266803
:1010A000D74315F4803F0CBF3E4016432660666868
:1010B00015F4003F0CBF3E4016436660A66815F469
:1010C000801F0CBF3E401643A660E668AD0254BFC9
:1010D0003E401643E66001333DE70026DAE701268D
:1010E000D8E70226D6E70326D4E70426D2E705266A
:1010F000D0E70626CEE700BF000401400004004808
:101100000010024000180048024A136843F480733C
:101110001360704700700040074B186800F4C0600F
:10112000B0F5806F06D0D3F8800010F4807018BF3F
:101130004FF40070704700BF00700040284B1A68E1
:1011400028BB02F4C062B2F5806FD3F8802022F48D
:101150008072C3F8802019D11A68224922F4C06233
:1011600042F400721A60204A1268B2FBF1F1322296
:101170004A4312B15969490504D45B69580503D43F
:1011800000207047013AF4E7032070477047B0F53C
:10119000007F1ED102F4C062B2F5806FD3F88020C8
:1011A00042F48072C3F88020EAD11A680D4922F413
:1011B000C06242F400721A600B4A1268B2FBF1F18D
:1011C00032224A43002AD8D059694905D5D5013A77
:1011D000F8E722F4C06242F480621A60D0E700BFF0
:1011E0000070004040420F00C001002037B51C4D88
:1011F000AB6DDA00044618D5FFF78EFFB0F5007F1F
:1012000023D1802C28D9A02C8CBF0224012415497D
:101210000A6822F00F0222430A60086800F00F00FB
:10122000001B18BF012003B030BDAB6D43F08053ED
:10123000AB65AB6D03F080530193019BFFF76CFF2F
:10124000AB6D23F08053AB65D8E77F2C06D8A4F1B3
:1012500070035C425C41DAE70024D8E70224D6E759
:10126000001002400020024070B5124CE36C43F0C5
:101270000103E364E36C86B003F001030093009B79
:10128000164602234FF48072CDE901230D460493E4
:1012900001A900234FF0904003930593FFF752FEFE
:1012A000A36823F0FE4343EA06022A43A26006B085
:1012B00070BD00BF001002402F4B9A6812F00C0F57
:1012C00010B509D09A6802F00C020C2A2ED1DA6807
:1012D00002F00302012A29D11A682849120755BFD2
:1012E000D3F894201A68C2F30322C2F3031251F810
:1012F0002220996811F00C0F0CBF1046002099684D
:1013000001F00C010C2931D1DC68D86804F0030429
:10131000C0F30310022C00F1010119D0032C26D0D8
:10132000B2FBF1F2D868C0F3062017E09A6802F029
:101330000C02042A07D09A6802F00C02082A04D191
:101340000F480022DBE70F48FBE700200246D6E704
:10135000DA680C48C2F30622B0FBF1F0DB68C3F395
:101360004163013350435B00B0FBF3F010BDDA681A
:101370000348C2F30622EFE700100240542400089D
:1013800000127A000024F4002DE9F341044608B964
:1013900001208DE00368D80638D5AB4DAB6813F05B
:1013A0000C0F61D12B68990702D5A369002BEFD0F0
:1013B0002B68206A1A0756BFD5F894302B681B0992
:1013C00003F0F00398423AD9FFF710FF0028DFD16D
:1013D0002B6843F008032B602B68226A23F0F0038C
:1013E00013432B606B68E26923F47F4343EA0223D3
:1013F0006B60FFF761FFAB68944AC3F30313D35CE0
:10140000D840934B18600F20FFF78EF92368DE0752
:1014100061D423689D0700F1A9802368190700F1B2
:10142000E78023685A0700F115812368990600F1C7
:101430007C81A26A002A40F0A381002038E02B685A
:1014400043F008032B602B6823F0F00303432B6069
:101450006B68E26923F47F4343EA02236B60FFF782
:10146000C5FE0028C5D093E7A36923B32B6843F0DA
:1014700001032B60FFF756F906462B689B0711D531
:101480002B6843F008032B602B68226A23F0F003DB
:1014900013432B606B68E26923F47F4343EA022322
:1014A0006B60B3E7FFF73EF9801B0228E5D9032004
:1014B00002B0BDE8F0812B6823F001032B60FFF739
:1014C00031F906462B689F07A0D5FFF72BF9801B43
:1014D0000228F7D9EBE75C4DAB6803F00C03082B4F
:1014E00009D0AB6803F00C030C2B0BD1EB6803F0B5
:1014F0000303032B06D12B6898038AD56368002B5E
:1015000087D145E76368B3F5803F10D12B6843F47A
:1015100080332B60FFF706F906462B6899033FF5E9
:1015200078AFFFF7FFF8801B6428F6D9BFE7B3F563
:10153000A02F04D12B6843F480232B60E6E72A68B0
:1015400022F480322A602A6822F480222A60002B4A
:10155000E0D1FFF7E7F806462B689A037FF559AF0D
:10156000FFF7E0F8801B6428F6D9A0E7364DAB689A
:1015700003F00C03042B09D0AB6803F00C030C2B15
:1015800013D1EB6803F00303022B0ED12B685B052C
:1015900003D5E368002B3FF4FBAE6B68226923F0B0
:1015A000FE4343EA02636B6037E7E3687BB12B6875
:1015B00043F480732B60FFF7B5F806462B685F0590
:1015C000EBD4FFF7AFF8801B0228F7D96FE72B6841
:1015D00023F480732B60FFF7A5F806462B685805A7
:1015E0007FF51BAFFFF79EF8801B0228F6D95EE758
:1015F0006369154D9BB1D5F8943043F00103C5F8EC
:101600009430FFF78FF80646D5F894309B073FF5E6
:1016100008AFFFF787F8801B0228F5D947E7D5F810
:10162000943023F00103C5F89430FFF77BF80646A9
:10163000D5F894309F077FF5F4AEFFF773F8801B61
:101640000228F5D933E700BF001002403C2400080F
:10165000C00100207B4DAB6DD80027D4AB6D43F0AB
:101660008053AB65AB6D03F080530193019B012761
:10167000754E3368D9051BD5A368012B29D1D5F840
:10168000903043F00103C5F89030FFF74BF841F27A
:1016900088380646D5F890309B0740D5002F3FF498
:1016A000C4AEAB6D23F08053AB65BEE60027DFE729
:1016B000336843F480733360FFF734F8804633684F
:1016C000DA05D9D4FFF72EF8A0EB08000228F6D9E6
:1016D000EDE6052B06D1D5F8903043F00403C5F8AC
:1016E0009030CCE7D5F8902022F00102C5F8902088
:1016F000D5F8902022F00402C5F89020002BC4D128
:10170000FFF710F841F288380646D5F89030980770
:10171000C4D5FFF707F8801B4045F6D9C7E6FFF7A9
:1017200001F8801B4045B5D9C1E6636A454D9BB1C0
:10173000D5F8983043F00103C5F89830FEF7F2FF72
:101740000646D5F898309A073FF573AEFEF7EAFFE4
:10175000801B0228F5D9AAE6D5F8983023F00103BA
:10176000C5F89830FEF7DEFF0646D5F898309B079F
:101770007FF55FAEFEF7D6FF801B0228F5D996E60F
:10178000304DAB6803F00C030C2B3FF401AE2B681B
:10179000022A23F080732B6036D1FEF7C3FF064682
:1017A0002B689F012AD4D4E90D23DB0643EA0223E8
:1017B000E26A1343226B013A43EA0213E26B5208D6
:1017C000013A43EA4253226C5208013A43EA426327
:1017D000EB602B6843F080732B60EB6843F0807301
:1017E000EB60FEF79FFF04462B6898013FF525AE9E
:1017F000FEF798FF001B0228F6D958E6FEF792FF85
:10180000801B0228CCD952E62B68190106D42B681C
:101810009A005EBFEB6823F00303EB60EB6823F0F4
:10182000887323F48033EB60FEF77CFF04462B685B
:101830009B017FF502AEFEF775FF001B0228F6D96B
:1018400035E600BF00100240007000402DE9F8436B
:101850000E46054610B90120BDE8F883724A1368A8
:1018600003F00F038B4232D3296811F0010739D1FD
:1018700029688A0740F1BC806C4AA868936823F005
:10188000F00303439360684A136803F00F03B34205
:1018900000F2B68011F0040F644C40F0BD800B07DD
:1018A00006D5A3682A6923F4605343EAC203A36000
:1018B000FFF702FDA3685E4AC3F30313D35CD8406D
:1018C0005C4B18600F20FEF72FFF0020C4E7136861
:1018D00023F00F030B431360136803F00F038B42D5
:1018E000B9D1C1E76B68514C032B6BD123689F01C1
:1018F000B1D5E36803F00303012B1FD123684E4ADF
:10190000180755BFD4F894302368C3F30323C3F3F7
:10191000031352F82320E768E36807F00307C3F3D3
:101920000313022F03F101000AD0032F35D0B2FBBD
:10193000F0F3E768C7F306277B4308E00022EAE7F5
:10194000E2683E4BC2F30622B3FBF0F35343E26876
:10195000C2F3416201325200B3FBF2F3384A9342C0
:1019600020D80027A3686A6823F003031343A36009
:10197000FEF7D8FE41F288398046A3686A6803F012
:101980000C03B3EB820F3FF473AFFEF7CBFEA0EB7B
:1019900008004845F1D903205EE7E268294BC2F30D
:1019A0000622D1E7890701D5AB681BB1A36813F004
:1019B000F00FD6D1A36823F0F00343F08003A360B7
:1019C0008027CFE7022B0AD1236813F4003F3FF4AE
:1019D00042AFFFF771FC1A4B9842C2D9EAE71BB934
:1019E000236813F0020FF2E7236813F4806FEEE729
:1019F000802F7FF448AF0D4A936823F0F00341E74E
:101A0000136823F00F0333431360136803F00F03CD
:101A1000B3427FF420AF3DE7A368EA6823F4E063B4
:101A20001343A3603BE700BF0020024000100240C8
:101A30003C240008C0010020542400080024F400C5
:101A400000B4C40400127A00044B054A9B68C3F337
:101A50000223D35C034A1068D8407047001002404C
:101A60004C240008C0010020044B054A9B68C3F3C6
:101A7000C223D35C034A1068D8407047001002406C
:101A80004C240008C00100200F2303600B4B9A6810
:101A900002F0030242609A6802F0F00282609A68E3
:101AA00002F4E062C2609B68DB0803F4E063036158
:101AB000034B1B6803F00F030B60704700100240DC
:101AC00000200240F8B53C4BDA6812F0030F0546DF
:101AD0000F4600681C4622D0DB6803F003038342F4
:101AE00030D17BB3236823F080632360FEF71AFEB6
:101AF000064623681A012ED4AB681E026B68013BB0
:101B000018017FB3012F46D12B6927695B08591E45
:101B10002A4B3B403343034343EA41532AE0022824
:101B20000CD0032810D001280CD11B689E0718D5B3
:101B3000E36823F003031843E060D3E71B6813F462
:101B4000806FF5D101200CE01A689103F0D41B6876
:101B500013F4802FF5E7FEF7E5FD801B0228C8D9B6
:101B60000320F8BDE968226946EAC16314491140BF
:101B70000B4303432361236843F080632360FEF734
:101B8000D1FD064623681B0110D52369AA691343BA
:101B900023610020E5E76B6921695B085A1E094B48
:101BA0000B403343034343EA4263E3E7FEF7BAFDE6
:101BB000801B0228E6D9D3E7001002400F809FFF68
:101BC0000F80FF070F80FFF9304BDA6812F0030F28
:101BD00070B505461C46006826D0DB6803F0030399
:101BE000834234D1002B32D0236823F0805323600A
:101BF000FEF798FD064623689A0031D4D5E9022302
:101C0000DB06616943EA0223214A0A4013436A68FA
:101C1000013A43EA02136361236843F0805323606F
:101C2000FEF780FD064627E002280CD0032810D0DE
:101C300001280CD11B689E0718D5E36823F0030325
:101C40001843E060D0E71B6813F4806FF5D10120E2
:101C50000CE01A689103F0D41B6813F4802FF5E7A9
:101C6000FEF760FD801B0228C5D9032070BDFEF77A
:101C700059FD801B0228F8D823689B00F7D56369BB
:101C8000AA69134363610020F0E700BF001002401F
:101C90000F80FF072DE9F347066816F40066044637
:101CA00007D0C16E402922D012D831B320292BD0C1
:101CB00001262368DB0409D5216FB1F5007F2FD001
:101CC00026D899B3B1F5807F73D0012635463CE024
:101CD000602901D08029EBD13B4AE16ED2F89C30DB
:101CE00023F0E0030B43C2F89C300026E1E7364ABC
:101CF000D36843F48033D360EEE70430FFF7E2FEAD
:101D000006460028D5D1E7E72030FFF75DFFF7E76B
:101D1000B1F5407F02D0B1F5806FD6D1354609E0EC
:101D2000294AD36843F48033D360F7E7201DFFF7D7
:101D3000C9FE0546002D41D1234A216FD2F89C30BF
:101D400023F4E0630B43C2F89C3023689F0340F107
:101D50007D811D4FBB6DD80032D4BB6D43F08053E5
:101D6000BB65BB6D03F080530193019B4FF00108ED
:101D7000DFF85890D9F8003043F48073C9F8003088
:101D8000FEF7D0FC8246D9F80030D90520D535BB06
:101D9000D7F8903013F4407340F02E81D7F890308C
:101DA000D4F8902023F440731343C7F8903035469D
:101DB00015E004F12000FFF707FFBAE72E46C4E75D
:101DC0004FF00008D4E700BF001002400070004050
:101DD000FEF7A8FCA0EB0A000228D4D90325B8F12D
:101DE000000F03D0BB6D23F08053BB652368D80779
:101DF00008D5B249E06BD1F8882022F003020243F3
:101E0000C1F88820990708D5AC49206CD1F8882002
:101E100022F00C020243C1F888205A0708D5A749CE
:101E2000606CD1F8882022F030020243C1F888208B
:101E30001F0708D5A149A06CD1F8882022F0C00264
:101E40000243C1F88820DE0608D59C49E06CD1F831
:101E5000882022F440720243C1F88820980608D5F1
:101E60009649206DD1F8882022F440620243C1F8DF
:101E70008820990508D59149606ED1F8882022F410
:101E800040220243C1F888205A0508D58B49A06E2C
:101E9000D1F8882022F440120243C1F888205F065E
:101EA00008D58649606DD1F8882022F4405202435B
:101EB000C1F888201E0608D58049A06DD1F8882079
:101EC00022F440420243C1F88820D80508D57B4956
:101ED000E06DD1F8882022F440320243C1F8882016
:101EE000D90208D57549206ED1F89C2022F0030252
:101EF0000243C1F89C209A0410D5704A616FD2F851
:101F0000883023F040630B43B1F1006FC2F8883092
:101F100040F09E80D36843F48013D36023681B0392
:101F20000FD5A16F654BB1F5804FD3F89C2040F0E1
:101F30009B8042F48042C3F89C20DA6842F48032ED
:101F4000DA6023685F0310D55C4AE16FD2F888300D
:101F500023F040630B43B1F1006FC2F8883040F0CA
:101F6000A180D36843F48013D36023685E0413D543
:101F70005249D4F88020D1F8883023F040531343DD
:101F8000B2F1805FC1F8883006D10221201DFFF731
:101F900099FD002818BF05462268D00309D5474996
:101FA000D4F88400D1F89C3023F004030343C1F833
:101FB0009C30910209D54149D4F88800D1F89C3071
:101FC00023F018030343C1F89C30D30110D53B4ADA
:101FD000D4F88C10D2F89C3023F440130B43C2F891
:101FE0009C30B1F5001F02BFD36843F48013D36067
:101FF000284602B0BDE8F087D4F890209A423FF41A
:10200000CDAED7F89020D7F8903043F48033C7F89E
:102010009030D7F8903022F4407123F48033D20707
:10202000C7F89030C7F890107FF5B8AEFEF77AFB8E
:1020300041F288390546D7F890309B073FF5AEAEA0
:10204000FEF770FB401B4845F5D9C7E63546CDE69F
:10205000B1F1806F7FF462AF0121201DFFF732FDE7
:10206000002818BF054659E722F48042C3F89C2097
:10207000D3F8882022F040620A43B1F1006FC3F820
:10208000882003D1DA6842F4801259E7B1F1806FF9
:102090007FF457AF0121201DFFF714FD002818BF62
:1020A00005464EE7B1F1806F7FF45FAF0121201D3F
:1020B000FFF708FD002818BF054656E7001002404C
:1020C000034A936823F4004303439360704700BFBF
:1020D00000100240024A136843F004031360704783
:1020E00000100240304A0368904212D0B0F1804F95
:1020F0000FD0A2F5943290420BD002F5806290424C
:1021000007D002F58062904203D002F594329042EB
:1021100019D14A6823F070031343234A90421DD01B
:10212000B0F1804F1AD0A2F59432904216D002F549
:102130008062904212D002F5806290420ED002F589
:10214000943290420AD0194A904207D002F5806238
:10215000904203D002F58062904203D1CA6823F412
:10216000407313434A6923F08003134303608B6871
:10217000C3620B6883620C4B98420FD003F5006377
:1021800098420BD003F54063984207D003F5806373
:10219000984203D003F58063984201D10B69036331
:1021A00001234361704700BF002C01400040014003
:1021B000036A01F01F0110B501248C4023EA0403D7
:1021C0000362036A8A401A43026210BD10B586B0EA
:1021D0000446694601A8FFF757FC144B9C4217D0F0
:1021E0000AD8A3F592339C421BD024F48064B4F146
:1021F000804F16D0002010E00D4B9C4208D00ED826
:10220000A3F580539C4203D003F540639C42F1D177
:10221000FFF72AFC059B03B1400006B010BD054B3B
:10222000F4E7FFF711FC049BF5E700BF002C014029
:10223000004401400048014008B500F084F800BEA9
:10224000FEF76EFA00B100BE034B4FF000425A6039
:10225000BFF36F8FFEF752FA00ED00E008B5044BB4
:102260005A685A68DA6A9A6A9A6B5B6BFEF746FAA2
:1022700000ED00E001460020FEF726BC10B5D0E9D5
:10228000043104469847E37E20B113F0080F08BFDD
:10229000002010BD43F00103E376FAE72DE9F04199
:1022A00043769846069B03610025079BC161027631
:1022B00043611746458310222946044600F0AEF8D4
:1022C000164B1E681A4666B9224642F8206FC3E9CB
:1022D0000042134B1868F0B12046BDE8F041FFF70B
:1022E000CDBF3046037E9F4210D302D1437E43458B
:1022F0000CD8036A05463BB92B6A236213B904F173
:10230000200353602C62E4E71846EBE7002DF3D17D
:1023100026621460DDE7BDE8F08100BFA80200205E
:1023200094030020014B1868704700BF3C03002055
:10233000024A136803441360704700BF3C03002047
:102340000120FFF7F5BFEFF3108072B600F0010037
:102350007047000080F309882B480078023080F332
:102360001488BFF36F8F704780E8F00F7047EFF36A
:102370000980816911F8021C51B990E80F1010B55D
:10238000E047BDE81040EFF3098C8CE80700704788
:1023900010B51E4A1268914209D81D4C54F82140CC
:1023A00090E80F10A047EFF3098C8CE80F00BDE810
:1023B00010407047174B1A68174B1968914208BFB5
:1023C0007047EFF3098C2CE9F00FC1F800C01A60D8
:1023D000D2F800C0BCE8F00F8CF30988704710B544
:1023E000FFF7AEFFBDE8104070471EF0040F0CBFB2
:1023F000EFF30883EFF309832DE9F84F6846FFF701
:102400002DFFBDE8F84F7047B0020020000000002B
:10241000FCFFFFFFE4010020980300200244034674
:10242000934200D1704703F8011BF9E703461A46AF
:10243000013311780029FAD1101A7047000000000A
:102440000000000001020304060708090000000064
:1024500001020304A0860100400D0300801A06005B
:1024600000350C0040420F0080841E0000093D0032
:1024700000127A000024F40000366E010048E801E2
:10248000006CDC027561727432000000004800408C
:1024900058100240000004003839FFFF07270000F1
:1024A00000000000000000000040000001000000EB
:1024B0000080000000A003000200000000200400D3
:1024C00000A003000300000000C00700001000008F
:1024D000100000000040000000400000110000005B
:1024E00000D0070000300000000000480004004851
:1024F00000080048000C0048001000480014004884
:1025000000180048001C004800200048B4020020C9
:1025100000000000000000000000000000000000BB
:10252000000000002C03002000000000000000005C
:1025300024FEFF7F0100000030FEFF7FB0B0B080BE
:102540002EFEFF7F0100000000093D00000000009A
:10255000050000000B0000000C000000020000005D
:10256000000000000000000000000000000000006B
:10257000E401002000000000FFFFFFFFFFFFFFFF5E
:10258000FFFFFFFFFFFFFFFFFFFFFFFFFFFFFFFF5B
:10259000FFFFFFFFFFFFFFFFFFFFFFFFFFFFFFFF4B
:1025A000FFFFFFFFFFFFFFFFFFFFFFFFFFFFFFFF3B
:1025B000FFFFFFFFFFFFFFFFFFFFFFFFFFFFFFFF2B
:103FF000FFFFFFFFFFFFFFFF080002FF69A2B23BC8
:10400000FFFFFFFFFFFFFFFFFFFFFFFFFFFFFFFFC0
:10401000FFFFFFFFFFFFFFFFFFFFFFFFFFFFFFFFB0
:10402000FFFFFFFFFFFFFFFFFFFFFFFFFFFFFFFFA0
:10403000FFFFFFFFFFFFFFFFFFFFFFFFFFFFFFFF90
:108000003DB8F39600000000200000008818010031
:10801000000000000000000001000000000000005F
:1080200000000320DD810008298200082982000861
:108030002982000829820008298200080000000027
:1080400000000000000000000000000073C80008ED
:108050002982000800000000B9C80008E3C8000831
:108060002982000829820008298200082982000844
:108070002982000829820008298200082982000834
:108080002982000829820008298200082982000824
:108090002982000829820008298200082982000814
:1080A0002982000829820008298200082982000804
:1080B00029820008298200082982000829820008F4
:1080C00029820008298200082982000829820008E4
:1080D00029820008298200082982000829820008D4
:1080E00029820008298200082982000829820008C4
:1080F00029820008298200082982000829820008B4
:1081000029820008298200082982000829820008A3
:108110002982000829820008298200080000000046
:108120002982000829820008298200082982000883
:108130002982000829820008298200082982000873
:108140002982000829820008298200082982000863
:108150002982000829820008298200082982000853
:108160002982000829820008298200082982000843
:108170002982000829820008298200082982000833
:108180002982000829820008298200082982000823
:108190002982000829820008000000000000000079
:1081A0002982000829820008298200082982000803
:1081B0002982000829820008000000000000000059
:1081C0000000000000000000298200082982000849
:1081D000298200082982000829820008DFF830D0AF
:1081E000002103E00B4B5B58435004310A480B4B12
:1081F00042189A42F6D30A4A02E0002342F8043BAE
:10820000084B9A42F9D300F011F800F045F8FEE768
:108210000000032050920108C0010020C00300208C
:1082200018080020E8440020FEE7000008B50C4BC9
:108230001A6842F001021A60002199601A6822F05F
:10824000A85222F410221A604FF48052DA601A68A1
:1082500022F480221A60996100F004F808BD00BF82
:1082600000100240094A0A4B9A420AD0002306E055
:10827000074A52F82310054A42F823100133612BB4
:10828000F6DD024A034B9A60704700BF00000020F1
:108290002080000800ED00E008B5034802F0EEFF82
:1082A00003F050F808BD00BFAF820008704708B562
:1082B00005F01AFF01F0B6FD05F01CFF00F012FFFB
:1082C00000F058F800F01EF803F0D6FA03F0A7FA11
:1082D000FAE7000000B585B0202A0AD00649074811
:1082E00000F0C4FE684600F027F9002005B05DF8F4
:1082F00004FB0349F3E700BF7C8401089087010871
:108300008C84010810B50E4C21460E4800F0AEFEDC
:108310000021204602F006FC28B10B4902F0A2FC25
:1083200038B9002010BD00231A461946184602F03D
:10833000A7FE00231A461946184602F0A1FE00BF08
:108340009C840108A8840108C401002010B5044CD5
:10835000A06003F091FA214603F0FAF910BD00BFC6
:108360001808002008B50021014803F041F808BDB5
:108370002808002000B583B003F07EFA01460023F0
:108380000C4A0D4803F008F80C4B0D4A5A600022C5
:10839000009201230B490C48006802F053F800F0EA
:1083A0005FF810B103B05DF804FB074B186802F0EA
:1083B00029F8F7E739850008280800201808002068
:1083C000658300084D830008D401002010B51346D2
:1083D000DDE90201002908BFB0F1006F0ED00029CD
:1083E00008BFB0F1805F14D0002908BF012815D064
:1083F0000F4800F03BFE4FF0FF3009E00D4A1868CF
:108400005968C2E904019868D968C2E906010020E8
:1084100010BD1268074B1A650020F9E7064C10687A
:108420005168926807C41B7B23700020F0E700BFEF
:10843000C084010858080020C008002008B544F690
:108440002061024803F0B2FD08BD00BF48080020CB
:1084500008B5024803F04EFD08BD00BF48080020E3
:1084600038B52D4C21462D4800F000FE0021204655
:1084700002F058FB2A4B18604FF000640025C3E956
:10848000024558B300F00AFD70BB264C2146264831
:1084900000F0ECFD0021204602F044FB204B186464
:1084A0004FF080540025C3E9124518B31F4C2146F4
:1084B0001F4800F0DBFD0021204602F033FB184B83
:1084C000986501240025C3E91845C8B1194803F08F
:1084D00007FD00F04DFFC8B9002038BD00231A4643
:1084E0001946184602F0CCFD00231A4619461846D4
:1084F00002F0C6FD00231A461946184602F0C0FDD8
:1085000000231A461946184602F0BAFD00231A46FF
:108510001946184602F0B4FDDC840108E88401081D
:108520005808002008850108148501089C8401086A
:108530003C85010848080020F0B591B0FFF77EFFA8
:10854000484B186860B14FF0FF3302930123019349
:10855000454B0093434BD3E9022302F0E7FB18B1EC
:108560004249434800F082FD3E494FF0FF330293F9
:10857000012301933C4B0093D1E91223086C02F0D4
:10858000D5FB00285BD137494FF0FF33029301231D
:108590000193354B0093D1E91823886D02F0C6FB97
:1085A000002851D12F4C002104F1300004F0CAF80A
:1085B000266B276DD4E904010FF058FA0546D4E97B
:1085C00006010FF053FA04460DAB0FAA0DF12F016F
:1085D000284600F011FA0CAB0EAA0DF12E01204630
:1085E00000F00AFA9DF82F30002B32D0214B0F9A61
:1085F0000D999DF82E0000282DD01E481E4C0C9D74
:1086000008950E9D0795069005910492039300230B
:108610000293019700960123184A1949204604F055
:1086200090FA2146174800F021FD204600F038F866
:1086300010F1060F11D0FFF70BFF11B0F0BD12497A
:10864000124800F013FD9EE71149124800F00EFD9C
:10865000A8E7114BCBE71048D0E7104800F006FD23
:10866000E9E700BF58080020CD830008DC8401083A
:108670006C85010868850108E0080020EFBEADDECA
:10868000C4850108EC850108088501088885010872
:108690009C840108A4850108388F01080086010820
:1086A00010B580B10446002000F040FFB8B120466C
:1086B00004F078FA0146204600F054F800F04EFF2E
:1086C00038B1002010BD00231A461946184602F0A2
:1086D000D7FC00231A461946184602F0D1FC6FF069
:1086E0000500EFE708B5024800F0C0FC08BD00BF78
:1086F0002086010808B50121064803F077FE18B965
:10870000054B01221A7008BD00231A461946184667
:1087100002F0B6FCA00900209C09002008B50F4B10
:108720001B683BB90E4B186830B159B192B203F0D7
:1087300038F968B9002008BD00231A4619461846C2
:1087400002F09EFC00231A461946184602F098FCD7
:1087500000231A461946184602F092FC9809002098
:108760002009002008B50A4601460020FFF7D6FF81
:1087700008BD0000014B00221A607047200900204C
:1087800010B528B10446FFF7F5FF044B1C6010BD7F
:1087900000231A461946184602F072FC20090020F0
:1087A00070B504460D460021084603F065FB2E4BCC
:1087B0001860002856D004F1380004F013FE2B4B4B
:1087C000186060B32A4B1B6883BB274B1868FFF700
:1087D000D7FF284EE38E94F861200121304604F043
:1087E000DFFF234B1968304605F0ABF994F83420CD
:1087F00004F12C01304605F091F9A16A304605F0EC
:10880000A7F9A16DB1F1FF3F16D115B12B88012B4E
:1088100016D8A36DB3F1FF3F17D0012070BD124CE5
:10882000206803F0A5F800202060F7E700231A462F
:108830001946184602F024FC0E4805F0AEF9E4E7AC
:1088400069680C4805F096F9E3E794F86030012B6D
:1088500001D00120E2E74FF47A61201D02F0C8FD4B
:108860000120DBE70020D9E794090020240900203B
:10887000980900202809002070B582B0204B1B7891
:10888000D3B106460C461546D8B101B34FF0FF31BF
:108890001C4803F0E5FD00BB1B4B1D60012300934A
:1088A0001A4B02223146204604F032FED8B1002194
:1088B000FFF776FF02B070BD1A461946184602F05F
:1088C000DFFB00231A461946184602F0D9FB0023A5
:1088D0001A461946184602F0D3FB00231A461946D9
:1088E000184602F0CDFB074803F088FD08B90020C8
:1088F000E0E700231A461946184602F0C1FB00BF04
:108900009C090020A009002098090020E5860008A5
:1089100038B5104B1B683BB11D8A29460E4800F044
:10892000A5FB0C4B1C680CE01A461946184602F0D1
:10893000A7FB04F110006379E188184400F0FAFB0A
:10894000E468002CF5D1054800F090FBFFF712FF1A
:10895000284638BD2009002030860108488C0108CF
:1089600010B5FFF7D5FF38B303461C481C4A126800
:108970008266A0F862301B4B196805F0DBF8184BD3
:1089800000221A60184B196801B3144804F016FF4E
:10899000B8B90021144B186805F0B8F80F4B988847
:1089A00004F0A6FD104B00221A6001240F4803F0CA
:1089B00025FD68B9204610BD094B186802F0D8FFA4
:1089C000DDE7094B186802F0D3FFE7E70024EDE785
:1089D00000231A461946184602F052FB28090020C7
:1089E000940900209809002024090020A0090020F3
:1089F00008B5FFF7B5FF08BD2DE9F04104460F4665
:108A000016461D464FF0010800210FF02BFB08B958
:108A10004FF0000887F80080002120460FF022FB6D
:108A2000A8B920460FF046FB30600A4920460FF0F7
:108A30007BF90FF03FFB084B83FB0023C217C2EB0F
:108A4000A342064B03FB12022A60BDE8F08104F149
:108A50000044E6E70024744983DE1B4340420F00D4
:108A6000092802D83030C0B270473730C0B27047E2
:108A700008B5012905D8C0F8F810054B53F82100B6
:108A800008BD00231A461946184602F0F9FA00BF3D
:108A9000A486010808B5052903D8054B53F8210021
:108AA00008BD00231A461946184602F0E9FA00BF2D
:108AB000AC86010838B548B103460278242A0BD0A9
:108AC00000241A7852B154400133FAE700231A46C1
:108AD0001946184602F0D4FA0133F1E72009FFF7EE
:108AE000BFFF054D287004F00F00FFF7B9FF687055
:108AF0000023AB70284638BD5C0E002038B5002836
:108B000039D00D4600293CD0084604F04BF810300F
:108B10003F283CD8214C2A462149204604F011F830
:108B20002046FFF7C7FF0546204604F03BF81D4BE3
:108B30001B8823522946204604F013F8204604F0EF
:108B400031F82218184B19889B78215293702146CE
:108B5000164800F08BFA204604F024F8024621461D
:108B6000134808F01AFA041E18BF0124642003F009
:108B7000D5FD204638BD00231A461946184602F096
:108B80007FFA00231A461946184602F079FA0023A4
:108B90001A461946184602F073FA00BF600E00200C
:108BA0004886010854860108588601085C86010839
:108BB000E80D002010B538B10446FFF759FF014613
:108BC0002046FFF79BFF10BD00231A4619461846A2
:108BD00002F056FA10B50446074808F00EFA0748A6
:108BE00000F044FA0CB1002010BD00231A461946CB
:108BF000184602F045FA00BFE80D0020648601081F
:108C000008B50021014802F0F3FB08BDA8090020C7
:108C100010B582B000240194009313460A46014621
:108C2000024808F0E9F802B010BD00BFE80D0020CE
:108C300038B50C46044D0146284608F007F9214690
:108C4000284608F0D8F938BDE80D002008B50A46D6
:108C500000230146014808F0C2F908BDE80D0020D4
:108C600010B584B0164B1B78FBB10446144B0022A0
:108C70001A70144800F0FAF9DCB1002302934FF4A3
:108C800000730193104A0092104A20211048FFF708
:108C9000BFFF4FF416510F48FFF7CAFF21460E4899
:108CA000FFF7D4FF002004B010BD064800F0DEF945
:108CB000F8E700231A461946184602F0E1F900BF0A
:108CC000DC01002068860108E80B0020C8090020AC
:108CD000C80B00206C860108018C000808B5094803
:108CE00008F0B6F868B10021064808F0B7F8C1B23C
:108CF000054800F0D1FF0028F1D0024808F07DF9C6
:108D0000EDE708BDE80D0020A00E0020012800D0EE
:108D1000704708B54FF6FF73994200D008BD02486E
:108D200000F052FDFAE700BFA00E00202DE9F0414F
:108D300000B30C46154606460121FFF799FE07468B
:108D400021463046FFF7A6FE0446C8B103F02AFFCD
:108D500000F10B031F2B19D8DFF83C802B4622466D
:108D60003946404603F0EDFE41463046FFF7C6FE69
:108D7000BDE8F08100231A461946184602F080F932
:108D800000231A461946184602F07AF900231A46BB
:108D90001946184602F074F93C0E002081B110B556
:108DA000044680B100F012F920B9084B2360084B4B
:108DB000E36010BD00231A461946184602F060F918
:108DC0006FF0080070476FF00800F2E7618C000850
:108DD000D58B000810B504464822002103F0A7FEF9
:108DE000204600F029F908B9002010BD00231A46DA
:108DF0001946184602F044F9F8B506460F4600F148
:108E0000B80401F108050FCD0FC40FCD0FC40FCD6D
:108E10000FC495E8070084E807000B4802F0FCFB4C
:108E200030B13946304600F00EF938B90020F8BDAF
:108E300000231A461946184602F022F900231A4662
:108E40001946184602F01CF96C86010810B5044654
:108E5000114808F071F8002211462046FFF766FF1E
:108E6000002201212046FFF761FF00220221204657
:108E7000FFF75CFF002203212046FFF757FF002287
:108E800004212046FFF752FF002205212046FFF76C
:108E90004DFF002010BD00BFE80D002010B502F00E
:108EA000EBFC01460023124A124802F075FA002238
:108EB0004FF0FF31104802F0BFFB68B1044605F0E7
:108EC00037F918B92046FFF7C1FF58B9012127200B
:108ED00001F050FA002010BD00231A46194618462A
:108EE00002F0CEF800231A461946184602F0C8F8D8
:108EF000DD8C0008A8090020DC84010808B50021E9
:108F0000FFF758FE002008BD08B54FF6FF7101209D
:108F1000FFF7FCFE08BD02F00060002150EA0103EB
:108F200004D0009B04221A70084670476FF00100BD
:108F300070470000F0B58DB00446129F02F000604B
:108F4000002150EA010339D005910691079108915B
:108F500009910A91CDF82B102046FFF7CFFF4FF46F
:108F60007A7003F0DBFB184E04AB02AA03A930466B
:108F700000F00EFF03980EF00FFB059006910125FF
:108F80008DF82C5002980EF007FB079008918DF891
:108F90002D50304600F030FF0EF0FEFA09900A9195
:108FA0008DF82E506FB14FF000620023CDE9002301
:108FB00005AA13992046B8470DB0F0BD6FF0010027
:108FC000FAE70020F8E700BFA00E002051B370B50B
:108FD00004460D4650B3B030FFF7FCFE034608B11F
:108FE000184670BD04F128062146304601F02DFEDA
:108FF00003460028F4D10F4B23654FF00062002395
:10900000C4E90E232B686868A968EA68236760676B
:10901000A167E2672B69C4F88030304601F0FEFD9D
:109020000346DDE76FF00803184670476FF008034A
:10903000D6E700BFC48601084FF0FF320023C0E925
:1090400000230020704708B510F1700F07D0D1E958
:109050000023C0E91023C0E92C23002008BD002311
:109060001A461946184602F00BF800000FB410B566
:1090700082B000F005F960B10C4B1B680BB1002405
:1090800008E003F023FB0146094804F015F9044603
:1090900000E0002405A90191049804F03DF9204462
:1090A00002B0BDE8104004B0704700BFFC42002091
:1090B000EC8601080120704770B50D461446FFF795
:1090C000F9FF00B10CB9002070BD01F005FF0646A4
:1090D00022462946002000F061FF304601F002FFE1
:1090E000F1E7000038B50E4B1B78BBB10D4B1D6886
:1090F000A5B10D4B5B68C3F308037BB9094B002294
:109100001A602C4605E0E28821680020FFF7D4FFB2
:10911000E468002CF7D1284602F02AFC38BD00BFD5
:10912000DD010020180F002000ED00E008B5FFF77A
:10913000D9FF08BD38B5124B1B787BB105460C46EC
:10914000FFF7B8FF50B10F4B1B6843B10D4B1868C8
:1091500002F01EFC2044B0F5006F09D338BD002199
:10916000A0B202F089FE074B18600028EED1F5E7A7
:10917000A2B22946034B186802F013FCEEE700BFC9
:10918000DD010020180F002000B583B08DF8070026
:109190000D2804D001210DF10700FFF7CBFF03B02C
:1091A0005DF804FB10B582B01023002205E0B0FB8F
:1091B000F3F103FB1100C0B21B098BB1B0FBF3F458
:1091C00004F13001C9B2392902D904F15701C9B2F9
:1091D000022AECDC02AC144404F8041C0132E6E779
:1091E0002AB902AB1344302103F8041C0132022ACD
:1091F00004DC02AB1A44002302F8043C00238DF87F
:10920000063001A803F0CEFC014601A8FFF792FF4B
:1092100002B010BD80B170B50D46064659B10024AC
:10922000AC4208D2305DFFF7BDFF01210348FFF7D4
:1092300081FF0134F4E770BD704700BFF486010878
:1092400038B5C5B20B4B1B7853B904460A2D09D06B
:10925000094B01221A602846FFF796FF204638BDC9
:109260002846FCE70D20FFF78FFF034B00221A6012
:10927000F1E700BF01430020FC42002000207047BE
:10928000014B1878704700BFDE01002070B506461C
:109290000D460024AC4207DA305DFFF7D1FFB0F194
:1092A000FF3F01D00134F5E770BD08B5FFF73EFF81
:1092B00008BD000010B582B00D4B1B7893B10D486E
:1092C00002F03EFA0C4802F00BFEFFF7D7FF38B170
:1092D00000200090094B1C68034602460146A04747
:1092E00002B010BD1A461946184601F0C9FE00BF6B
:1092F000444400201C0F00202C0F002050020020AE
:1093000000B585B001280AD800EB8002134901EBB3
:109310008202127C4AB1002005B05DF804FB0023F4
:109320001A461946184601F0ABFE4FF480720392BC
:109330000B4A02924FF0FF3201920A22009203463A
:10934000084A0949094803F0F1F80028E4D000234D
:109350001A461946184601F093FE00BFB8130020C4
:10936000980F00204D940008F8860108480F00204F
:1093700008B50020FFF7C4FF00B908BD00231A4656
:109380001946184601F07CFEF0B583B0012838D8A4
:10939000044600EB8003274A02EB83031B7C002B6F
:1093A00046D1254E06EB001600EB800302EB83034B
:1093B0005D6865B300EB80031E4A02EB8303DB6844
:1093C0005BB32B461D4A52F820201D491D48FFF76C
:1093D0004DFE04EB8403174A02EB8303DF6810237E
:1093E000009341F23363184A31462846B847C8B95A
:1093F00004EB84040F4B03EB84040123237403B0B8
:10940000F0BD00231A461946184601F039FE002324
:109410001A461946184601F033FE1A4619461846F0
:1094200001F02EFE00231A461946184601F028FEC8
:109430000020E4E7B813002098130020FC870108FF
:1094400000870108088701089C87010810B5C4B28D
:109450000B48FFF70BFE2046FFF796FF50B902F0CE
:1094600019FD01460748FFF701FE42F2107003F0B4
:1094700055F9F4E700231A461946184601F000FE94
:10948000148701082087010810B503460C4609B36C
:1094900014B3012B26D803EB8302204800EB820291
:1094A00052682AB303EB83021C4800EB8202D268A5
:1094B00022B31B4800EB031003EB8303174A02EBB4
:1094C00083031B7C03B300222146FFF7D5F9034633
:1094D000F8B110BD134CDBE700231A4619461846B5
:1094E00001F0CEFD00231A461946184601F0C8FDCA
:1094F00000231A461946184601F0C2FD00231A46F9
:109500001946184601F0BCFD0748FFF7AFFD0020E3
:10951000DFE70246014601F0B3FD00BFB8130020AB
:1095200098130020AC8701083487010808B501466C
:109530000020FFF7A9FF08BD08B5012804D8FFF7F0
:1095400057FA034630B108BD00231A46194618469B
:1095500001F096FD0246014601F092FD08B500209B
:10956000FFF7EAFF00B108BD00231A461946184666
:1095700001F086FD044BD3E90023134301D1002001
:1095800070470120704700BFE013002008B5164B5C
:109590001B680BB1154808BD00F094FF124B186012
:1095A0000B2814D90C21114800F08EFF0E4B1860C7
:1095B000002812DD0E490F48FFF758FD0A4B1968C5
:1095C0000A48FFF727FE0C48FFF750FDE2E70023AB
:1095D0001A461946184601F053FD00231A4619464B
:1095E000184601F04DFD00BF440F0020380F002049
:1095F000008701084C870108488C010808B5FFF76F
:10960000C5FF0C22034903F061FA08B1002008BD30
:109610000120FCE7B487010810B5FFF7EFFF28B978
:109620000446FFF7A7FF10B9012400E000242046FC
:1096300010BD000038B50024042C14DC234B03EBD0
:10964000C403D3E900232249224850F8240003F040
:1096500078FA0A2801DC0134EEE700231A4619469D
:10966000184601F00DFDFFF791FF05460024042C7C
:1096700019DC04EB44010C22174B03EB8101284653
:1096800003F024FA08B10134F1E7104B03EBC403F3
:10969000D3E90001114BC3E90001631C104A1149D1
:1096A0001148FFF7E3FCFFF7A9FF28B10C4A0D4969
:1096B0000E48FFF7DBFC38BDFFF7AEFF0028FAD0FD
:1096C000074A08490A48FFF7D1FCF4E7088801086F
:1096D00054870108E0010020C0870108E013002042
:1096E0005C87010800870108648701087487010806
:1096F00084870108F8B5002834D003460278012A8F
:1097000036D84168002939D0017A00293CD0C06898
:1097100000283FD0102943D802EB8201264800EBF5
:1097200081014968002941D1234C02EB820504EBF9
:1097300085011868D3F804C09F68DE6844F82500E6
:10974000C1F804C08F60CE601869086100240C74F1
:109750004B681A4951F8222019491A48FFF786FC2C
:109760002046F8BD00231A461946184601F088FC29
:1097700000231A461946184601F082FC00231A46B7
:109780001946184601F07CFC00231A461946184673
:1097900001F076FC00231A461946184601F070FCC9
:1097A00000231A461946184601F06AFC00231A469F
:1097B0001946184601F064FCB8130020FC87010824
:1097C000008701080887010810B44FF0FF340460D7
:1097D000002282601049016181610162816201633E
:1097E0008463FF21A0F840104464C46480F85420CE
:1097F00080F85520032180F8651080F8662080F8F5
:10980000672080F86820C266A0F87020A0F8722057
:1098100080F8562010BC7047FFC99A3BA1F1410364
:10982000DBB2052B07D9A1F16103DBB2052B05D80B
:10983000A1F157007047A1F137007047A1F1300046
:10984000704700200B78A3F13002D2B2092A06D863
:1098500000EB8000013103EB40003038F2E7704745
:1098600038B500F1560490F856502D2D0DD02146F4
:10987000FFF7E7FF642303FB00F02278A2F1300337
:10988000DBB2092B04D80134F7E700F15704EEE707
:109890002E2A02D02D2D14D038BD6378A3F13002CA
:1098A000D2B2092AF6D8303B03EB830300EB430026
:1098B000A278A2F13003DBB2092BEBD81044303888
:1098C000E8E74042E8E7000038B500F156042146D9
:1098D000FFF7B7FF1849A1FB00314B09642202FBD7
:1098E000130342F2107101FB03F12278A2F130035D
:1098F000DBB2092B01D80134F7E72E2A0BD00E4B2F
:10990000A3FB003040090D4BA3FB013189080C4B30
:1099100003FB001038BD4FF47A7214F8013FA3F135
:109920003005EDB2092DEAD8303B02FB0311054B9F
:10993000A3FB0232D208F0E71F85EB51ABAAAAAA1B
:10994000A0860100CDCCCCCC087828B11378984201
:1099500002D101310132F7E77047000070B50446CB
:1099600090F85550002D5DD090F85610FFF756FF37
:109970000001C5B294F857102046FFF74FFF55FA83
:1099800080F0C0B294F85430834243D194F86850C8
:10999000002D44D0B4F870300133A4F87030A36CBB
:1099A0006364236DE36494F86530012B12D0022BBD
:1099B0001DD0002B34D1636A23626368236063691E
:1099C0002361E369A361B4F84230A4F84030E36B4B
:1099D000A36325E063682360E368A3606369236190
:1099E000E369A361E36AA362636B236318E06368BE
:1099F000236063692361E369A361E36AA362636B24
:109A00002363636A2362B4F84230A4F84030E36B06
:109A1000A36305E0B4F872300133A4F87230002576
:109A2000284670BD90F86630002B00F0B58090F8A5
:109A30006520032AF4D090F856100029F0D043EAAC
:109A40004213013B512BEBD801A252F823F000BF87
:109A5000DF9B0008FB9B0008099C0008179C00087E
:109A60001F9C0008599C00086F9C00087D9C000802
:109A7000859C0008219A0008219A0008219A000874
:109A8000219A0008219A0008219A0008219A0008CA
:109A9000219A0008219A0008219A0008219A0008BA
:109AA000219A0008219A0008219A0008219A0008AA
:109AB000219A0008219A0008219A0008219A00089A
:109AC000219A0008219A0008219A0008219A00088A
:109AD000DF9B0008ED9B0008FB9B0008099C000829
:109AE000179C00081F9C00083D9C0008459C00082E
:109AF0004D9C0008219A0008219A0008219A00082C
:109B0000219A0008219A0008219A0008219A000849
:109B1000219A0008219A0008219A0008219A000839
:109B2000219A0008219A0008219A0008219A000829
:109B3000219A0008219A0008219A0008219A000819
:109B4000219A0008219A0008219A0008219A000809
:109B5000219A0008DF9B0008FB9B0008099C000875
:109B6000179C00081F9C00082D9C0008359C0008CD
:109B7000219A0008219A00083D9C0008459C000895
:109B8000219A0008219A0008679C0008219A000881
:109B9000219A00086F9C000800F156063B4A3146A6
:109BA000FFF7D2FE18B9012384F8653038E7384A48
:109BB00031462046FFF7C8FE18B9002384F8653007
:109BC0002EE7344A31462046FFF7BEFE18B902237D
:109BD00084F8653024E7032384F8653020E7FFF735
:109BE0003FFE606002F072FDA06419E7412914BFD6
:109BF0000021012180F8681012E7FFF765FE60611F
:109C000002F064FD20650BE753297FF409AF436937
:109C10005B42436104E7FFF757FEE06100E7572925
:109C20007FF4FEAEC3695B42C361F9E6FFF718FE3D
:109C30006062F5E6012380F86830F1E6FFF710FE78
:109C4000E062EDE6FFF70CFE6063E9E600F1560125
:109C5000FFF7F7FDE060E3E6302994BF0021012122
:109C600080F86810DCE6FFF7FBFDE063D8E65630CD
:109C700002F056FEC3B2A4F84230D1E6FFF7F0FD81
:109C8000E063CDE6FFF7ECFD6062C9E630880108CD
:109C9000388801084088010838B504460D46C36E6F
:109CA0000133C366A1F10A03222B43D8DFE803F096
:109CB00017424217424242424242424242424242DA
:109CC0004242424242424242424233424242424283
:109CD0001742120090F854304B4080F8543094F8FA
:109CE00067300E2B0FD9002094F86630013384F8CA
:109CF0006630002384F867302A2D14BF0025012523
:109D000084F8555038BD2344002283F8562020465D
:109D1000FFF724FEE8E7002084F8670084F8660077
:109D200084F85400032384F8653084F8550084F8DF
:109D30006800E7E790F867300D2B05D85A1C80F8CB
:109D40006720034483F8561094F8550028B994F816
:109D500054104D4084F85450D4E70020D2E738B571
:109D600004461D4611B10B46016919600AB1A36989
:109D7000136025B1E06CB0F1FF3F01D1286038BD20
:109D800002F0A4FCE36CC01AF8E700000000000039
:109D900030B583B00D4614466A4601A9FFF7DFFFD0
:109DA0000198134B98421AD00DF0E4FB0EA3D3E9AF
:109DB00000230DF073FD0DF059FE2860019A0C4B45
:109DC0009A420ED000980DF0D5FB07A3D3E90023EB
:109DD0000DF064FD0DF04AFE206003B030BD054873
:109DE000EBE70448F8E700BF00000000006AF84015
:109DF000FFC99A3B00007A4408B5006A064B9842B6
:109E000008D00DF0B7FB0022044B0DF047FD0DF01C
:109E10002DFE08BD0248FCE7FFC99A3B00005940EF
:109E20000024744908B501F09BFA03F0D9FFFFF74D
:109E300041FA07F03BFA04F00FF904F009F803F0D7
:109E40000FFF03F01FFF03F022FF03F021FF03F0D9
:109E500020FF03F024FF01F02EF800F06DFE04F067
:109E60005FFC05F029FB07F08DFA07F035F907F0E4
:109E700075FCFFF7DFFB05F0F3FEFEF73BFC07F098
:109E8000FBF808BD0369C268934204D88068801A51
:109E90000344581E70479B1A581E70472DE9F8431B
:109EA000044688461646C5688768A7EB05099145AC
:109EB00007D94068284402F02DFE3544E560BDE82E
:109EC000F88340684A46284402F024FEED1B3544DE
:109ED0002A4608EB0901606802F01CFEE560EEE727
:109EE0002DE9F843064688461746C5684FF0000935
:109EF00018E0641B621EB3685C1B944228BF1446C2
:109F0000BC4228BF3C46706822464146284402F0C5
:109F100001FEA144A0443F1B2544B368AB4209D0D5
:109F2000F5604FB13469A542E3D3B268641B1444B1
:109F3000621EE0E70025F3E74846BDE8F88300002D
:109F4000124B01221A615A611149996103F14802C9
:109F5000DA614FF480621A6200229A625A62DA620F
:109F6000196303F589615963102199631A64DA63EF
:109F70005A64084A1068C3F80700074A92E80300C9
:109F80001860998020229A71704700BFC00300209A
:109F9000488801085488010858880108F8B50F4618
:109FA0001646184B451C05EB450503EBC50500EBB4
:109FB000400003EBC000C46A012C11D0022C1CD05D
:109FC00014B100242046F8BD2846FFF75BFF864207
:109FD000F8D8324639462846FFF760FF3446F1E7A5
:109FE0002846FFF74FFF3446864228BF04462246E4
:109FF00039462846FFF752FFE4E72846FFF770FF8F
:10A000000446DFE7C003002008B5FFF799FF08BD4D
:10A0100008B501238340074A52691A4208D0054A0D
:10A020005361054B03EBC002526853F83000904770
:10A0300008BD00BF000401402014002008B5044AF8
:10A040001368013313600020FFF7E2FF08BD00BF73
:10A050000443002008B5044A5368013353600120CB
:10A06000FFF7D6FF08BD00BF0443002008B5044A2F
:10A070009368013393600220FFF7CAFF08BD00BF59
:10A080000443002008B5044AD3680133D360032099
:10A09000FFF7BEFF08BD00BF0443002008B5044A17
:10A0A0001369013313610420FFF7B2FF08BD00BF3D
:10A0B0000443002010B5064A536901335361052457
:10A0C000092C04DC2046FFF7A3FF0134F8E710BD9C
:10A0D0000443002010B5064A9369013393610A24B2
:10A0E0000F2C04DC2046FFF793FF0134F8E710BD86
:10A0F0000443002000F00F00042801DC0630704704
:10A10000092801DC172070472820704700B58BB064
:10A1100008286BD8DFE800F005121D28333E4954AB
:10A120005F00354BDA6C42F00102DA64DB6C03F05D
:10A1300001030193019B0BB05DF804FB2E4BDA6C1D
:10A1400042F00202DA64DB6C03F002030293029B2A
:10A15000F1E7294BDA6C42F00402DA64DB6C03F0BD
:10A1600004030393039BE6E7234BDA6C42F00802F7
:10A17000DA64DB6C03F008030493049BDBE71E4BFB
:10A18000DA6C42F01002DA64DB6C03F01003059322
:10A19000059BD0E7184BDA6C42F02002DA64DB6CE6
:10A1A00003F020030693069BC5E7134BDA6C42F0DD
:10A1B0004002DA64DB6C03F040030793079BBAE7C5
:10A1C0000D4BDA6C42F08002DA64DB6C03F0800342
:10A1D0000893089BAFE7084BDA6C42F48072DA64AC
:10A1E000DB6C03F480730993099BA4E700231A46F0
:10A1F0001946184600F044FF0010024008B5831FBE
:10A20000222B37D8DFE803F0122A2C2E30363636D0
:10A2100036363636363636363632363636363636E2
:10A22000363636363636363636363400144A154B20
:10A23000996800F1100351F823108A420DD011499A
:10A24000896841F82320002807DB00F01F0240093D
:10A25000012393400C4A42F8203008BD0B4AE6E740
:10A260000B4AE4E70B4AE2E70B4AE0E70B4ADEE77A
:10A270000B4ADCE700231A461946184600F000FF97
:10A280003DA0000800ED00E000E100E055A000085E
:10A290006DA0000885A000089DA00008B5A00008DA
:10A2A000D5A0000838B5C0F30315082D11DC0C4605
:10A2B00000F00F00012303FA00F008602846FFF7C2
:10A2C00025FF2146044B53F8250000F00BF9002030
:10A2D00038BD4FF0FF30FBE76088010810B5C0F3D0
:10A2E0000314082C0DDC0A4600F00F00012303FACA
:10A2F00000F11160044B53F8240000F0D1F9002064
:10A3000010BD4FF0FF30FBE76088010800B587B053
:10A3100000230293039101A9FFF7C4FF07B05DF882
:10A3200004FB00B587B05BB90223029303920323B9
:10A330000493059101A9FFF7B5FF07B05DF804FB91
:10A3400012230293F2E7000010B5C0F3031400F0EB
:10A350000F00012303FA00F039B11A4681B2044B11
:10A3600053F8240000F03BFA10BD0022F6E700BFCE
:10A370006088010870B586B0C0F30316082E1DDC96
:10A3800004460D463046FFF7C1FE29462046FFF73A
:10A39000DBFF04F00F04012303FA04F40194029399
:10A3A0000024039403230493059401A9054B53F857
:10A3B000260000F097F8204606B070BD4FF0FF3041
:10A3C000FAE700BF6088010808B5C0F3031200F087
:10A3D0000F000121814089B2024B53F8220000F0A6
:10A3E000F7F908BD6088010838B50546FFF7ECFFAE
:10A3F000441E18BF012421462846FFF7A5FF20462A
:10A4000038BD000000F00F0001238340EFF31081FE
:10A4100072B6034A10681843106001B962B67047FB
:10A420000004014000F00F0001238340EFF310818E
:10A4300072B6034A10681843106001B962B67047DB
:10A4400000040140F0B587B004460E461546022BC5
:10A4500029D0032B29D0012B04D04FF0FF352846FB
:10A4600007B0F0BD124F2046FFF7DCFF04F00F03EA
:10A4700001229A400F494A610F4A02EBC3014E6024
:10A4800042F8335002979DF83030039301A92046DB
:10A49000FFF708FF05460028E1D12046FFF72AFE16
:10A4A000FFF7ACFEDBE7054FDDE7054FDBE700BF5D
:10A4B00000001110000401402014002000002110B1
:10A4C000000031100C20704710B50C29A8BF0C21DA
:10A4D0000C460A46024902F01DFB204610BD00BF93
:10A4E0009075FF1FF0B482B0002236E0072400E030
:10A4F0000024B4403C430235654E46F82540654C87
:10A500002568DC4325EA03064F6817F4803F01D035
:10A5100043EA05065F4D2E606D6804EA05064F6844
:10A5200017F4003F01D043EA05065A4D6E60AD684E
:10A5300004EA05064F6817F4801F01D043EA0506B8
:10A54000544DAE60ED682C404E6816F4001F01D0EB
:10A5500043EA05044F4BDC6001320B6833FA02F426
:10A5600000F09280012494402340F5D04D68022DE4
:10A5700001D0122D10D1D608083650F826C002F0AE
:10A580000705AF000F25BD402CEA050C0D69BD4045
:10A5900045EA0C0540F82650D0F800C056000325C7
:10A5A000B540EF432CEA050C4D6805F00305B540B6
:10A5B00045EA0C0505604D6805F1FF3CBCF1010F53
:10A5C00003D9112D01D0122D10D1856807EA050C91
:10A5D000CD68B54045EA0C058560456825EA040468
:10A5E0004D68C5F30015954025434560C468274074
:10A5F0008C68B4403C43C4604C6814F0805FABD0BE
:10A60000254C256E45F001052566246E04F00104F5
:10A610000194019C9508AE1C1D4C54F8267002F064
:10A620000304A6000F24B44027EA0407B0F1904FBA
:10A630003FF45EAF194CA0421AD004F58064A042EA
:10A6400018D004F58064A04216D004F58064A042BE
:10A6500014D004F58064A04212D004F58064A042B6
:10A6600010D004F58064A0423FF440AF082440E7D6
:10A6700001243EE702243CE703243AE7042438E7B8
:10A68000052436E7062434E702B0F0BC704700BF6B
:10A690000000014000040140001002400004004896
:10A6A000002383E0072500E0002505FA02F2A2421C
:10A6B00060D0013331FA03F276D001229A4012EAD7
:10A6C000010CF6D005685C00032606FA04F4254365
:10A6D000056023FA06F7083750F827E003F007056E
:10A6E000AD000F2606FA05F52EEA050540F82750BD
:10A6F000856825EA04058560456825EA020242600E
:10A70000C26822EA0404C4609F08BC1C2D4A52F8A7
:10A71000244003F00302920096403440B0F1904F81
:10A72000C2D0294DA84219D005F58065A84217D09E
:10A7300005F58065A84215D005F58065A84213D0BF
:10A7400005F58065A84211D005F58065A8420FD0B7
:10A7500005F58065A842A5D00825A6E70125A4E750
:10A760000225A2E70325A0E704259EE705259CE72F
:10A7700006259AE7134DBA1C55F8224024EA06062E
:10A7800045F82260114A146824EA0C0414605468E5
:10A7900024EA0C045460946824EA0C049460D4689D
:10A7A00024EA0C04D46084E7F0BD013331FA03F2EB
:10A7B00006D001229A4012EA010CF6D0F0B581E7EA
:10A7C000704700BF00000140000400480004014041
:10A7D0000369194201D001207047002070470AB177
:10A7E0008161704781627047094B1B6B834209D0BE
:10A7F0001A46D3F880308342FAD1D3F88030C2F8B9
:10A8000080307047D3F88020014B1A63704700BF37
:10A810002043002010B4036A1BB1134B1B6B0021B3
:10A820000AE0114B1B6B002173B11946D3F880303D
:10A83000FAE71946D3F8803033B11A6A22B1426A76
:10A840005C6A121B002AF4DA39B1D1F88030C0F802
:10A850008030C1F8800010BC7047034B1A6BC0F801
:10A8600080201863F7E700BF20430020C06FB0FAD4
:10A8700080F0400970470000014BD862704700BF6C
:10A880002043002010B40A684B68046941692240E3
:10A890000B408469C16922400B40134314BF01205F
:10A8A000002010BC704708B5836A9B6913B1098802
:10A8B000984708BD6FF00800FBE72DE9F04F83B023
:10A8C00081468B469246DDF830800D9D0B79012B39
:10A8D00015D0C46E00E024698CB12268636802EA76
:10A8E000080603EA050756EA0703F4D0A368E168FF
:10A8F000CDF800800195524648469847EBE7DBF8D3
:10A90000003053B1CDF8008001955246DBF80410B9
:10A910004846984703B0BDE8F08F0020FAE780680A
:10A9200028B108B5836A1B6A03B1984708BD704710
:10A9300008B50368D86902F01FF908B1002008BD06
:10A940000120FCE730B587B001F0C0FE044601A944
:10A9500002A801F0F7FE48B104F5122404F5F864EA
:10A9600021460A4800F044FD07B030BD04F5F41458
:10A9700004F59064064D06AB13E90F0085E80F005F
:10A98000019B2B6100F0BEFD6861E9E754430020A4
:10A990007843002070B5064600F0B4FD0C4A5369B8
:10A9A000C11A70645061D2E9004593681944094B9B
:10A9B000A3FB01039B0CE41845F10005C2E9004527
:10A9C000C6E90C45044800FB13139360B36370BDE4
:10A9D0007843002083DE1B4340420F0038B5846873
:10A9E0006069836F43B11988228A114201D1DB6803
:10A9F000F8E75D689968A8472146024801F0BEF96A
:10AA000038BD00BF1815002008B54FF0FF310548CC
:10AA100001F0CCFA10B1092802D008BD0020FCE7F3
:10AA20000020FAE72043002008B5024801F062FA4E
:10AA300008BD00BF20430020014BD86A704700BF0B
:10AA40002043002070B588B000F016FFFFF714FF18
:10AA50001D4B00931D4B182205211D4801F05CF988
:10AA600058BBFFF7E9FF01461A4E00231A4A304649
:10AA700000F092FC04AD03A9284601F063FE174CD8
:10AA800095E80F0084E80F00039B236100F03AFD76
:10AA90006061FFF7D1FF0146114C0023114A2046A7
:10AAA00000F07AFC4FF47A71204600F0A1FCA6F188
:10AAB0000C0001F015FA08B070BD00231A461946C3
:10AAC000184600F0DDFA00BF84880108A0140020B9
:10AAD000181500202C43002009AE00087843002000
:10AAE0005443002045A9000870B505460E4614469B
:10AAF000FFF78AFF88B94CB1D4F880404CB1314699
:10AB00002046A84728B9D4F88040F7E7044B1C6BCF
:10AB1000F4E7FFF789FF204670BD0024FBE700BF84
:10AB20002043002008B50A4601460248FFF7DCFF33
:10AB300008BD00BF31A9000808B5FFF783FF08BDB5
:10AB400030B583B00446836893B1084601A901F08B
:10AB50007FFE054610B1284603B030BD0199A068BC
:10AB600001F024FA0028F6D00928F4D00546F2E7CF
:10AB70000025F0E7806818B108B501F0BBF908BD01
:10AB8000704708B54FF0FF31043001F00FFA10B1F3
:10AB9000092802D008BD0020FCE70020FAE708B52C
:10ABA000043001F0A7F908BD30B583B004460D4666
:10ABB00001A9006A01F04CFE2046FFF7E2FF2046A3
:10ABC000FFF712FE01990D4465622046FFF722FE51
:10ABD0002046FFF7E4FF03B030BD38B505460C460C
:10ABE000FFF7CFFF6B6A1C1B04D42846FFF7D7FF83
:10ABF000204638BD0024F8E770B505460C46FFF73F
:10AC000003FF054B1E6B29463046FFF7E6FF206029
:10AC1000FFF70AFF304670BD2043002038B50446D8
:10AC2000FFF7F2FE054608B1284638BD2046FFF77B
:10AC3000A8FF05460028F7D12046FFF7EBFD204688
:10AC4000FFF7ADFFFFF7F0FEEEE738B504460D461F
:10AC50008822002101F06BFF201D01F041F900B9AD
:10AC6000256038BD70B506460C46FFF78AFF0546DD
:10AC700008BBB26F13461BB1A3421AD0DB68FAE7D8
:10AC8000E260B46721463046FFF70DFE054648B145
:10AC9000B36FA3420AD01A46DB68A342FBD1DB683C
:10ACA000D36008E03046FFF77AFF07E0DB68B36760
:10ACB00001E06FF001053046FFF771FF284670BDD7
:10ACC00010B504464066044B0366FFF7B5FE04F179
:10ACD0005C0100F03DFD10BD1FA9000870B50646DF
:10ACE0000D460A4801F022F878B104463268002384
:10ACF0000360C3600361064B43608060058242616C
:10AD0000FFF79AFE214600F023FD70BD18150020C4
:10AD1000DDA9000810B5044CA060FFF78DFE2146A8
:10AD200000F016FD10BD00BFF401002030B589B061
:10AD30000446CDE90423FFF724FF0546C8B90C9B60
:10AD400006930D9B079304A92046FFF79BFDF0B1E6
:10AD50002046FFF71FFEA36A19680E9B029306ABFD
:10AD600001930C4B0093DDE90423204688470546F8
:10AD700028B92046FFF713FF284609B030BD236FDE
:10AD8000002BF6D00246616F20469847F1E76FF03E
:10AD90000305EEE7BBA8000830B585B00446089D62
:10ADA0000DB1A98AB9B94FF0FF310291002101918B
:10ADB00000912046FFF7BAFF2046FFF7E2FE2DB1D3
:10ADC000AB8A1BB96B8A0BB1013BAB822046FFF704
:10ADD000E6FE05B030BD0139A982FAE770B582B050
:10ADE00005460E46FFF7CDFEEC6F44B1D4E90023D3
:10ADF000019600942846FFF7CFFF246AF5E728461E
:10AE0000FFF7CDFE02B070BD70B584B001F05EFCFE
:10AE10000546FFF7F9FD12E02046FFF7C0FEFFF7F9
:10AE200003FE04B070BD324629462046FFF7D6FF28
:10AE300029462046FFF7B8FE2046FFF7B0FE03A9DB
:10AE40002846FFF7D9FE0446FFF79BFE236A002B36
:10AE5000E2D0039E6EB92046FFF708FD0028E2D03D
:10AE6000D4E906230195002100912046FFF794FFC5
:10AE7000DEE7FFF7D9FD0399014800F0B9FAD0E702
:10AE80002C43002030B585B08368D3E90045D869EC
:10AE90004FF0FF33029300230193009322462B4689
:10AEA000FFF744FF08B905B030BD00231A46194624
:10AEB000184600F0E5F8704708B5012001F00CFCD9
:10AEC00008BD000008B501F07FF9024B4FF0805239
:10AED0005A6008BD00ED00E0EFF3108072B600F09C
:10AEE0000100704700B962B67047EFF3108000F0C0
:10AEF0000100704770B506460D46A1F140040923D4
:10AF00000D2B04DC002244F823200133F8E720460F
:10AF100001F0ACFC4FF0807345F8043C736945F8D0
:10AF2000083CB36945F8203C204670BD08B5044A8A
:10AF3000536943F01003536100F068F908BD00BF86
:10AF400000ED00E0F8B5EFF305840CB9002409E04A
:10AF5000072038E004F1604505F56145FF2685F8D6
:10AF600000630134EF2CF5D9194CA568194EEE6237
:10AF7000A568194EAE63A568184EEE63A568184F14
:10AF8000AF60A568EF60A5682F61A5686F61A468D0
:10AF9000A761002406E065B20D4EB668103546F88C
:10AFA00025700134512CF6DD094CF02584F822502F
:10AFB0001025E577EFF3148414F0010F04D0DFF8C7
:10AFC00024C000DF0020F8BDFFF7B0FF0020FAE743
:10AFD00000ED00E073C80008B9C80008E3C8000825
:10AFE000EFC800082DAF000810B501F0D1F90446F4
:10AFF00001F008F92368203383F309880E214FF408
:10B000007A7003F0BAF9044B01221A602046FFF768
:10B0100059FFA06910BD00BFE443002010B51548DA
:10B020000068043801F018FCEFF30584ECB9EFF385
:10B03000148404F00304022C0DD003D8012C0FD883
:10B04000082010BD032C0BD10B4C246814F0010F09
:10B0500006D10820F5E7084C246814F0010F06D14A
:10B06000DFF818C000DF0020EBE70720E9E7082041
:10B07000E7E700BF9043002034150020E9AF000847
:10B0800008B5744605460E46FFF726FF21460F48D1
:10B09000FDF7ECFF00BEFEF708F98DB133462A46F6
:10B0A00021460B48FDF7E2FF07F044FC00B100BE6B
:10B0B000084B4FF000425A60BFF36F8F07F03CFC23
:10B0C00021460548FDF7D2FFEEE700BF988801084A
:10B0D000CC88010800ED00E0BC88010800B583B011
:10B0E0000446FEF7E2F81B4D69682268C1F30801C7
:10B0F0001948FDF7BBFF2068836842680168C06893
:10B1000000901648FDF7B2FF23690093E368A26838
:10B1100061681348FDF7AAFF236A0093E369A269F7
:10B1200061691048FDF7A2FF2068836942690169DF
:10B13000C06900900C48FDF799FF6968EA6AAB6A3C
:10B140000A48FDF793FFA96B6A6B0948FDF78EFF6C
:10B1500007F0F2FB00ED00E0E4880108188901081F
:10B160004C89010880890108B4890108E88901082F
:10B17000108A0108F8B508F0DBF800251FE0FFF79A
:10B18000ABFE064601F0A2FA074601F0E1F80446DC
:10B19000384600F097F9844228BF044605F5C343BA
:10B1A0002833D81BA04228BF20464FF6FA73984296
:10B1B00000D9184603F0C2F83046FFF793FE094A5B
:10B1C00013680133136001F081FA044605F5C343A7
:10B1D0002833C31A002BD2DD00F08EFF08F0A8F848
:10B1E0002546CCE7E043002008B503460021084689
:10B1F000984700231A4619461846FFF741FF0000FA
:10B20000014B1868704700BFE443002000B585B0CB
:10B2100080230393154B02934FF0FF330193FF23D9
:10B2200000930023124A1349134801F07FF950B9E3
:10B2300000F098FF68B947F2305008F04FF870B945
:10B2400005B05DF804FB00231A4619461846FFF7BF
:10B2500017FF00231A4619461846FFF711FF00236F
:10B260001A4619461846FFF70BFF00BF3815002095
:10B2700075B100082C8A01089043002010B584B0F5
:10B28000044648220021284801F051FCFEF7BCFE8C
:10B29000264B00221A605B60254B1A605B6000F051
:10B2A000EBFA00F04DFA00F043FAFFF74BFE18BB43
:10B2B00094B14FF4806303931E4B02934FF0FF331E
:10B2C00001937F23009323461B4A1C491C4801F02D
:10B2D0002DF910F0FF0F15D102F0C2FF012000F090
:10B2E00085F910F0FF0F13D1022000F07FF910F064
:10B2F000FF0F13D104B010BD00231A46194618469B
:10B30000FFF7BEFE00231A4619461846FFF7B8FE9F
:10B3100000231A4619461846FFF7B2FE00231A46C4
:10B3200019461846FFF7ACFEC0030020E843002092
:10B330000C44002038170020E9B10008348A0108C5
:10B340003827002008B507F0E5FFFFF767FE00B9D2
:10B3500008BD00231A4619461846FFF791FE000063
:10B3600008B50C4B1B7853B1032000F03FF910F0E7
:10B37000FF0F09D100F018FD00F098FD08BD1A4636
:10B3800019461846FFF77CFE00231A461946184650
:10B39000FFF776FE44440020F8B504460D461746F4
:10B3A0001E462022002101F0C2FB6760A6602561D5
:10B3B000F8BD000038B50446FFF78EFD0546E36989
:10B3C0003BB1A26972B1D361E369A2691A6000233B
:10B3D000E361206910B1214600F02DFA2846FFF7FD
:10B3E00081FD38BD014A5360EEE700BFE84300200D
:10B3F00070B50369C3B104460E4600292FDBFFF781
:10B400006BFD05462046FFF7D5FF06B9012601F082
:10B410005DF930446061134B1B6853B15A69821A5D
:10B42000002A06DB9B69F8E71A4619461846FFF71B
:10B4300027FE5BB1DA69E261A361DA69146018344E
:10B44000DC612846FFF74EFD002070BD0023A3619C
:10B45000044B5A68E261146018345C60F1E7022022
:10B46000F3E700BFE843002038B501F02FF90546A7
:10B470000FE0E269124B5A60E369A2691A60002387
:10B48000E361FFF72FFDD4B12069A0B1214600F0A0
:10B490005FF9FFF721FD0A4B1C68002CF1D06369AE
:10B4A000EB1A002B05DBA369002BE2D0E269DA611D
:10B4B000E2E70024E5E7636820469847E9E738BDFE
:10B4C000E843002010B50446FFF70FFD30B1094BEB
