:020000040800F2
:1000000000000320BD0100080902000809020008E1
:1000100009020008090200080902000800000000A7
:100020000000000000000000000000008F22000817
:100030000902000800000000D5220008FF22000885
:100040000902000809020008090200080902000864
:100050000902000809020008090200080902000854
:100060000902000809020008090200080902000844
:100070000902000809020008090200080902000834
:100080000902000809020008090200080902000824
:100090000902000809020008090200080902000814
:1000A0000902000809020008090200080902000804
:1000B00009020008090200080902000809020008F4
:1000C00009020008090200080902000809020008E4
:1000D00009020008090200080902000809020008D4
:1000E00009020008090200080902000809020008C4
:1000F00009020008090200080902000800000000C7
:1001000009020008090200080902000809020008A3
:100110000902000809020008090200080902000893
:100120000902000809020008090200080902000883
:100130000902000809020008090200080902000873
:100140000902000809020008090200080902000863
:100150000902000809020008090200080902000853
:100160000902000809020008090200080902000843
:100170000902000809020008000000000000000059
:100180000902000809020008090200080902000823
:100190000902000809020008000000000000000039
:1001A0000000000000000000090200080902000829
:1001B000090200080902000809020008DFF830D02F
:1001C000002103E00B4B5B58435004310A480B4BB2
:1001D00042189A42F6D30A4A02E0002342F8043B4E
:1001E000084B9A42F9D300F011F800F03DF8FEE711
:1001F0000000032050240008C0010020D00100208E
:10020000D0010020EC020020FEE700000B4B1A6832
:10021000002142F001021A6099601A6822F0A85287
:1002200022F410221A604FF48052DA601A6822F425
:1002300080221A60996100F003B800BF00100240EC
:10024000064B07498B4206D000228858985004324A
:10025000B2F5C47FF9D1034A9360704700000020D3
:100260000000000800ED00E0002108B5084600F09D
:1002700003F800F057F9704708B500F069F8024B31
:100280001869203000F06AF9C023000830B500205A
:10029000BDB000F0EDFE044628B100231A46194611
:1002A000184601F059FF00F0C9FE284AD2F89030F4
:1002B00023F01803C2F8903014230125069360231D
:1002C000CDE90C540E9302243C2306A8CDE9104539
:1002D000CDE91334CDE915440895129500F0EEFFF1
:1002E0000028DAD103230F22CDE901234FF48063E4
:1002F000CDE904300390052101A801F041FA00285E
:10030000CBD142F2230317934FF080633493182329
:10031000CDE91A34CDE926002B904FF4801317A8AD
:10032000CDE91C44CDE918551E9301F04DFC04465F
:100330000028B2D101F05EFE4FF040524FF08071C4
:10034000204600F02BFF3DB030BD00BF0010024042
:1003500007B5FFF79BFF0F4B01930F4B00930F491E
:100360000F480023012201F029FF28B100231A467B
:100370001946184601F0F0FE4FF0804100F050F9A8
:100380000028F3D1074801F005FF0028EED103B0A3
:100390005DF804FBAC230008BD040008A42300089A
:1003A000D001002040420F0013B590F83730846B25
:1003B000019390F83630009390F8353090F834205F
:1003C000016B601E00F0B0FB002818BF022002B0D5
:1003D00010BD806B08B5013800F0A8FC002818BFDC
:1003E000022008BD37B50546806B144620B9034688
:1003F0000246014601F0B0FE2AB3EB7E9B0725D4EE
:10040000137985F83430D37985F83730937985F8C6
:10041000363013682B63537985F835305369009370
:10042000D2E90332A168013800F01AFB58B9E37928
:10043000A86B0193A379009322796379216801382D
:1004400000F072FB00B1022003B030BD0B20FBE7CF
:1004500008B500231A461946184601F07DFE806B48
:1004600008B508B9FFF7F4FFBDE80840013800F00F
:1004700045BB806B08B508B9FFF7EAFFBDE8084047
:10048000013800F003BB806B08B508B9FFF7E0FF47
:10049000BDE80840013800F017BB70B50C460546B2
:1004A000164601F0CFFE241A002C05DC26B1A86BFD
:1004B000013800F03BFC00B1022070BD70B5C56989
:1004C000044628460E4601F041FF054415F8013C5C
:1004D000A3F13000092814D82F3BA3630A4B2360F3
:1004E0000A4BE3600A4B63600A4BA3600A4B6362EA
:1004F0000A4BA3620A4BE362314600F009FC00207C
:1005000070BD0220FCE700BFE5030008D30300082C
:100510009B040008A903000887040008730400086E
:100520005F04000808B500F001F80000BFF34F8F2A
:100530000549064BCA6802F4E0621343CB60BFF37F
:100540004F8F00BFFDE700BF00ED00E00400FA059B
:100550000020704701F076BE00207047036883F3E7
:100560000888034A436800211160BFF34F8F184782
:1005700000000140EFF3108172B603681A69D207D8
:1005800007D5426802F5803242601A6922F0010202
:100590001A615B6A4068184401B962B6704700008E
:1005A0002DE9F0411D4C23681B6913F001061EBFA5
:1005B000626802F5803262609B0729D5174F46F0CA
:1005C00002064FF00008A56835B13846FFF7D2FFA4
:1005D000EB68C01A00280BDAA2682068B2B911468D
:1005E00001F076FD2268D36823F00203D3600FE0A8
:1005F000D5E9043243B15A616A691360D5E9013023
:10060000C5F814809847DEE7E260F5E7D3684363F6
:100610002368F6431E61BDE8F08100BF7802002028
:1006200030B5022889B003DD4FF0FF3009B030BD8E
:10063000A44B53F82030002BF6D00029F4D01960D9
:10064000A14B994200F0CD80B1F1804F00F0D180F4
:10065000A3F59433994217D003F58063994213D0E0
:1006600003F5806399420FD003F5943399420BD080
:1006700003F54063994207D003F58063994203D0A4
:1006800003F580639942CFD1002840F0AC808F4BB6
:1006900099425CD18E4B8F48F02283F81D238E4AFD
:1006A0009268C2F8B4004FF000521A608B4B9A6DFA
:1006B00042F002029A659B6D03F002030293029BD3
:1006C000874B99425CD1824B8248F02283F81823F1
:1006D000814A9268C2F8A0004FF080721A607F4B86
:1006E0001A6E42F480321A661B6E03F4803305934F
:1006F000059B754B99425CD17A4A136943F40063B8
:100700001361794B99425CD1764A936843F00403B4
:100710009360764B99425CD1724A136943F400337B
:10072000CCE06B4B6B48F02283F819236A4A92683D
:10073000C2F8A4004FF000721A60684B1A6E42F4BF
:1007400000621A661B6E03F400630093009B664B05
:10075000994266D15E4B5F48F02283F81E235E4AC1
:100760009268C2F8B8004FF080421A605B4B9A6DF5
:1007700042F004029A659B6D03F004030393039B0C
:100780005A4B99426FD1524B5248F02283F81923A9
:10079000514A9268C2F8A4004FF000721A604F4BA1
:1007A0001A6E42F400321A661B6E03F4003306938D
:1007B000069BB1F1804F70D14A4A936843F0010320
:1007C00093604B4B994271D1464A136943F40053ED
:1007D0001361484B994272D1424A136943F4802312
:1007E0006CE000289DD000231A461946184601F0F7
:1007F000B3FC0028F7D1364B3648F02283F81C238F
:10080000354A9268C2F8B0004FF080521A60334BFC
:100810009A6D42F001029A659B6D03F0010301930A
:10082000019B334B99427FF44BAF294B2A48294A0D
:10083000F02483F82E438568C5F8F8204FF48045EE
:100840005D6083F82C438068C0F8F0204FF480523C
:100850005A60224B1A6E42F400521A661B6E03F461
:1008600000530493049B234B99427FF442AF184BEF
:100870001848F02283F81A23174A9268C2F8A80091
:100880004FF080621A60154B1A6E42F480221A668D
:100890001B6E03F480230793079B0C4B99427FF454
:1008A00030AF104A936843F0020393600C4B9942B7
:1008B0007FF42FAF0B4A136943F480331361002098
:1008C000B4E600BF08240008002C014000040040EA
:1008D00000E100E0A105000800ED00E0001002408A
:1008E00000400140002004E00008004000440140B6
:1008F000003401400048014030B5022887B00C4662
:1009000003DD4FF0FF3007B030BD244B53F82050CB
:10091000002DF6D02868224B98421ED0B0F1804FAF
:100920001BD0A3F59433984217D003F58063984207
:1009300013D003F5806398420FD003F594339842A7
:100940000BD003F54063984207D003F580639842CB
:1009500003D003F580639842D3D101F0C7FBB0FB0D
:10096000F4F0B0F5803FCCD20024CDE904440090EF
:100970004FF6FF73286802930423039401940360E5
:100980000123C360694601F03DFB2B681C611A68B6
:1009900042F001021A602046B5E700BF08240008B3
:1009A000002C0140254A02EBC001F8B54B6852F813
:1009B0003040013325684B60EF69BE0610D5AE8C20
:1009C000A3686069F6B231469847002808DA2B68B8
:1009D00023F020032B602379667143F00203237117
:1009E00017F0C00F22D038062E680FD5E368606973
:1009F00098470028BDBF237926F0800643F0040302
:100A000080B2BABF46F04006237128852379590782
:100A10000BD57A0609D523690BB16069984723790C
:100A20006FF38203237126F040062E603B0742BF1E
:100A30002B6A43F008032B62F8BD00BF0C020020B4
:100A40000020FFF7AFBF0120FFF7ACBF0220FFF788
:100A5000A9BF0320FFF7A6BF0420FFF7A3BF000034
:100A6000012830B50DDC084C1C2505FB004420791D
:100A700010F0010005D1C4E90231039B22616361DA
:100A800030BD4FF0FF30FBE734020020F8B50D4ECB
:100A90001C254543741923799B0712D5EFF3108762
:100AA00072B6A36861796069984740B92379725931
:100AB00060F341032371136843F02003136007B907
:100AC00062B6F8BD3402002010B5EFF3108472B6A0
:100AD0001C23094A5843111813581A6822F040027F
:100AE0001A601A6842F080021A600B796FF3820371
:100AF0000B7104B962B610BD3402002001280FDC6E
:100B00001C23084A584313181B79DB0708D51358D0
:100B1000DA691006FCD589B21985DA695206FCD566
:100B2000704700BF340200202DE9F84F01289DF8DE
:100B300028C09DF82CB00546884600F3C880654F54
:100B40001C2101FB00710879C00700F1C0808C698D
:100B50002CB900231A461946184601F0FDFA2168FF
:100B60005D4ED1F800E048688968082A0EEA06065A
:100B700020F4405903D0092AEBD146F48056012BCA
:100B800004D0022B40F0A38049F40059BCF1010FBE
:100B900061D0BCF1020F61D0BBF1010F21F4407AAA
:100BA00009D194F90E30002B4AF4407AD1DB94F944
:100BB0000F30002BCDDB6268A16813680B43136014
:100BC00000231A46217C94F90C0000F045F900231B
:100BD000217C94F90D001A4600F03EF9BBF1010F9B
:100BE00046F00C060DD100231A46217C94F90E0024
:100BF00000F032F90023217C94F90F001A4600F02E
:100C00002BF92368354A4FF01C0B0BFB05FB934275
:100C100047F80B30C3F808A0C3F804901E604FEAF1
:100C200058061ED100F0BAFE57F80B308119B1FBFF
:100C3000F8F1D9601C236B43F858838CC36994F98D
:100C40001130272B3DD00FDC252B15D0262B80D142
:100C5000234A244912E046F4C0669DE746F48066C4
:100C60009AE700F08BFEDFE7342B2DD0352B7FF495
:100C700070AF1D4A1D4901E01D4A1E491C2404FB9A
:100C800005740C601C4903F110048968002B41F8BD
:100C9000242008DB5909012203F01F0302FA03F3A1
:100CA000164A42F82130036843F0210303601C20F8
:100CB00000FB057500202B7943F001032B71BDE883
:100CC000F88F0F4A0F49D9E70F4A1049D6E74FF07E
:100CD000FF30F4E734020020FB69FFEF00380140E9
:100CE000470A000814020020590A00082C020020BC
:100CF000410A00080C02002000ED00E000E100E0E5
:100D00004D0A00081C020020530A0008240200209B
:100D10000128DFBF044B1C2202FB00308161D4BFDD
:100D200000204FF0FF3070473402002001280BDC18
:100D3000074A1C235843131819796FF300011971DE
:100D400013580020186070474FF0FF30704700BF05
:100D5000340200200138324B8AB0072805D8DFE87A
:100D600000F00F19232D37414B55DA6C42F0010288
:100D7000DA64DB6C03F001030193019B0AB0704756
:100D8000DA6C42F00202DA64DB6C03F002030293D5
:100D9000029BF3E7DA6C42F00402DA64DB6C03F0E6
:100DA00004030393039BE9E7DA6C42F00802DA6478
:100DB000DB6C03F008030493049BDFE7DA6C42F07A
:100DC0001002DA64DB6C03F010030593059BD5E792
:100DD000DA6C42F02002DA64DB6C03F02003069345
:100DE000069BCBE7DA6C42F04002DA64DB6C03F07E
:100DF00040030793079BC1E7DA6C42F08002DA6494
:100E0000DB6C03F080030893089BB7E7DA6C42F4CD
:100E10008072DA64DB6C03F480730993099BADE79D
:100E20000010024010B5C0F30314082C0FDC00F0D2
:100E30000F03012000FA03F30B602046FFF78AFF3F
:100E4000044B53F8240000F017F8002010BD4FF0B9
:100E5000FF30FBE7142400087FB5002B0CBF0223F2
:100E60001223CDE902320323CDE9043101A9FFF7B2
:100E7000D9FF07B05DF804FB2DE9F04FDFF8B4812E
:100E80006A4CDFF8B49185B000230A6832FA03F5A2
:100E900002D105B0BDE8F08F01279F403A4000F035
:100EA000B4804D6825F0100ABAF1020F16D14FEA4E
:100EB000D30E00EB8E0E03F0070BDEF820604FEA36
:100EC0008B0B4FF00F0C0CFA0BFC26EA0C0C0E6986
:100ED00006FA0BF646EA0C06CEF82060D0F800B011
:100EE0004FEA430E4FF0030C0CFA0EFC6FEA0C06AF
:100EF0002BEA0C0B05F0030C0CFA0EFC0AF1FF3A7E
:100F00004CEA0B0CBAF1010F0196C0F800C015D8DD
:100F1000D0F808C006EA0C0CCE6806FA0EFA4AEAC7
:100F20000C0CC0F808C0D0F804C02CEA0707C5F3C1
:100F3000001C0CFA03FC4CEA07074760C768019ED7
:100F400037408E6806FA0EF63E43C660EE005CD56A
:100F5000D8F8606046F00106C8F86060D8F86060B4
:100F600023F0030707F1804706F0010607F58037F5
:100F7000039603F0030C039ED7F808A04FF00F0E62
:100F80004FEA8C0C0EFA0CF6B0F1904F2AEA060EDE
:100F90003DD0274EB0423CD006F58066B0423AD0F4
:100FA00006F58066B04238D006F58066B04236D08D
:100FB00006F58066B04234D0484534D006F5006668
:100FC000B0420CBF0726082606FA0CF646EA0E06C3
:100FD000BE602668D74315F4803F0CBF3E401643E1
:100FE0002660666815F4003F0CBF3E4016436660FD
:100FF000A66815F4801F0CBF3E401643A660E66845
:10100000AD0254BF3E401643E66001333DE7002683
:10101000DAE70126D8E70226D6E70326D4E7042636
:10102000D2E70526D0E70626CEE700BF0004014040
:10103000000400480010024000180048024A1368EB
:1010400043F480731360704700700040074B1868CA
:1010500000F4C060B0F5806F06D0D3F8800010F4C3
:10106000807018BF4FF40070704700BF00700040E0
:10107000284B1A6828BB02F4C062B2F5806FD3F81F
:10108000802022F48072C3F8802019D11A68224986
:1010900022F4C06242F400721A60204A1268B2FB65
:1010A000F1F132224A4312B15969490504D45B690E
:1010B000580503D400207047013AF4E70320704735
:1010C0007047B0F5007F1ED102F4C062B2F5806FA8
:1010D000D3F8802042F48072C3F88020EAD11A68E5
:1010E0000D4922F4C06242F400721A600B4A126881
:1010F000B2FBF1F132224A43002AD8D0596949059E
:10110000D5D5013AF8E722F4C06242F480621A6051
:10111000D0E700BF0070004040420F00C001002037
:1011200037B51C4DAB6DDA00044618D5FFF78EFFBE
:10113000B0F5007F23D1802C28D9A02C8CBF0224AD
:10114000012415490A6822F00F0222430A60086848
:1011500000F00F00001B18BF012003B030BDAB6DC5
:1011600043F08053AB65AB6D03F080530193019B5B
:10117000FFF76CFFAB6D23F08053AB65D8E77F2C96
:1011800006D8A4F170035C425C41DAE70024D8E79A
:101190000224D6E7001002400020024070B5124C35
:1011A000E36C43F00103E364E36C86B003F00103F6
:1011B0000093009B164602234FF48072CDE9012371
:1011C0000D46049301A900234FF09040039305932B
:1011D000FFF752FEA36823F0FE4343EA06022A43C8
:1011E000A26006B070BD00BF001002402F4B9A688D
:1011F00012F00C0F10B509D09A6802F00C020C2AFC
:101200002ED1DA6802F00302012A29D11A6828498E
:10121000120755BFD3F894201A68C2F30322C2F311
:10122000031251F82220996811F00C0F0CBF1046E0
:101230000020996801F00C010C2931D1DC68D868D4
:1012400004F00304C0F30310022C00F1010119D0D3
:10125000032C26D0B2FBF1F2D868C0F3062017E0C9
:101260009A6802F00C02042A07D09A6802F00C0275
:10127000082A04D10F480022DBE70F48FBE70020D3
:101280000246D6E7DA680C48C2F30622B0FBF1F05A
:10129000DB68C3F34163013350435B00B0FBF3F001
:1012A00010BDDA680348C2F30622EFE700100240DF
:1012B0007423000800127A000024F4002DE9F341A1
:1012C000044608B901208DE00368D80638D5AB4D37
:1012D000AB6813F00C0F61D12B68990702D5A36995
:1012E000002BEFD02B68206A1A0756BFD5F8943030
:1012F0002B681B0903F0F00398423AD9FFF710FF5F
:101300000028DFD12B6843F008032B602B68226A8A
:1013100023F0F00313432B606B68E26923F47F43EF
:1013200043EA02236B60FFF761FFAB68944AC3F3A3
:101330000313D35CD840934B18600F20FFF70CF9D0
:101340002368DE0761D423689D0700F1A980236824
:10135000190700F1E78023685A0700F11581236817
:10136000990600F17C81A26A002A40F0A381002046
:1013700038E02B6843F008032B602B6823F0F00360
:1013800003432B606B68E26923F47F4343EA022343
:101390006B60FFF7C5FE0028C5D093E7A36923B3B0
:1013A0002B6843F001032B60FFF7D4F806462B6847
:1013B0009B0711D52B6843F008032B602B68226A2A
:1013C00023F0F00313432B606B68E26923F47F433F
:1013D00043EA02236B60B3E7FFF7BCF8801B0228E7
:1013E000E5D9032002B0BDE8F0812B6823F00103AA
:1013F0002B60FFF7AFF806462B689F07A0D5FFF7D5
:10140000A9F8801B0228F7D9EBE75C4DAB6803F025
:101410000C03082B09D0AB6803F00C030C2B0BD189
:10142000EB6803F00303032B06D12B6898038AD5DE
:101430006368002B87D145E76368B3F5803F10D11F
:101440002B6843F480332B60FFF784F806462B6843
:1014500099033FF578AFFFF77DF8801B6428F6D934
:10146000BFE7B3F5A02F04D12B6843F480232B6092
:10147000E6E72A6822F480322A602A6822F4802271
:101480002A60002BE0D1FFF765F806462B689A0327
:101490007FF559AFFFF75EF8801B6428F6D9A0E707
:1014A000364DAB6803F00C03042B09D0AB6803F096
:1014B0000C030C2B13D1EB6803F00303022B0ED1AA
:1014C0002B685B0503D5E368002B3FF4FBAE6B682C
:1014D000226923F0FE4343EA02636B6037E7E36867
:1014E0007BB12B6843F480732B60FFF733F806461B
:1014F0002B685F05EBD4FFF72DF8801B0228F7D986
:101500006FE72B6823F480732B60FFF723F8064600
:101510002B6858057FF51BAFFFF71CF8801B0228CE
:10152000F6D95EE76369154D9BB1D5F8943043F069
:101530000103C5F89430FFF70DF80646D5F894304E
:101540009B073FF508AFFFF705F8801B0228F5D988
:1015500047E7D5F8943023F00103C5F89430FEF73F
:10156000F9FF0646D5F894309F077FF5F4AEFEF7F5
:10157000F1FF801B0228F5D933E700BF00100240BD
:101580005C230008C00100207B4DAB6DD80027D440
:10159000AB6D43F08053AB65AB6D03F080530193AB
:1015A000019B0127754E3368D9051BD5A368012B14
:1015B00029D1D5F8903043F00103C5F89030FEF7FB
:1015C000C9FF41F288380646D5F890309B0740D5D0
:1015D000002F3FF4C4AEAB6D23F08053AB65BEE685
:1015E0000027DFE7336843F480733360FEF7B2FF10
:1015F00080463368DA05D9D4FEF7ACFFA0EB0800CB
:101600000228F6D9EDE6052B06D1D5F8903043F047
:101610000403C5F89030CCE7D5F8902022F0010201
:10162000C5F89020D5F8902022F00402C5F890204B
:10163000002BC4D1FEF78EFF41F288380646D5F85C
:1016400090309807C4D5FEF785FF801B4045F6D93A
:10165000C7E6FEF77FFF801B4045B5D9C1E6636A48
:10166000454D9BB1D5F8983043F00103C5F898304B
:10167000FEF770FF0646D5F898309A073FF573AE2F
:10168000FEF768FF801B0228F5D9AAE6D5F8983046
:1016900023F00103C5F89830FEF75CFF0646D5F845
:1016A00098309B077FF55FAEFEF754FF801B022842
:1016B000F5D996E6304DAB6803F00C030C2B3FF4E4
:1016C00001AE2B68022A23F080732B6036D1FEF71F
:1016D00041FF06462B689F012AD4D4E90D23DB067F
:1016E00043EA0223E26A1343226B013A43EA0213FC
:1016F000E26B5208013A43EA4253226C5208013A23
:1017000043EA4263EB602B6843F080732B60EB6825
:1017100043F08073EB60FEF71DFF04462B689801D1
:101720003FF525AEFEF716FF001B0228F6D958E656
:10173000FEF710FF801B0228CCD952E62B68190156
:1017400006D42B689A005EBFEB6823F00303EB60BE
:10175000EB6823F0887323F48033EB60FEF7FAFE26
:1017600004462B689B017FF502AEFEF7F3FE001BDB
:101770000228F6D935E600BF001002400070004094
:101780002DE9F8430E46054610B90120BDE8F8835F
:10179000724A136803F00F038B4232D3296811F0A9
:1017A000010739D129688A0740F1BC806C4AA868D2
:1017B000936823F0F00303439360684A136803F0CF
:1017C0000F03B34200F2B68011F0040F644C40F0F6
:1017D000BD800B0706D5A3682A6923F4605343EA4A
:1017E000C203A360FFF702FDA3685E4AC3F30313BD
:1017F000D35CD8405C4B18600F20FEF7ADFE002094
:10180000C4E7136823F00F030B431360136803F05E
:101810000F038B42B9D1C1E76B68514C032B6BD1DD
:1018200023689F01B1D5E36803F00303012B1FD1A7
:1018300023684E4A180755BFD4F894302368C3F381
:101840000323C3F3031352F82320E768E36807F088
:101850000307C3F30313022F03F101000AD0032F80
:1018600035D0B2FBF0F3E768C7F306277B4308E007
:101870000022EAE7E2683E4BC2F30622B3FBF0F334
:101880005343E268C2F3416201325200B3FBF2F308
:10189000384A934220D80027A3686A6823F00303DC
:1018A0001343A360FEF756FE41F288398046A368D1
:1018B0006A6803F00C03B3EB820F3FF473AFFEF7DB
:1018C00049FEA0EB08004845F1D903205EE7E26835
:1018D000294BC2F30622D1E7890701D5AB681BB1BA
:1018E000A36813F0F00FD6D1A36823F0F00343F000
:1018F0008003A3608027CFE7022B0AD1236813F46B
:10190000003F3FF442AFFFF771FC1A4B9842C2D937
:10191000EAE71BB9236813F0020FF2E7236813F418
:10192000806FEEE7802F7FF448AF0D4A936823F075
:10193000F00341E7136823F00F0333431360136888
:1019400003F00F03B3427FF420AF3DE7A368EA68DA
:1019500023F4E0631343A3603BE700BF0020024091
:10196000001002405C230008C0010020742300081E
:101970000024F40000B4C40400127A00044B054AA9
:101980009B68C3F30223D35C034A1068D8407047B6
:10199000001002406C230008C0010020044B054ADF
:1019A0009B68C3F3C223D35C034A1068D8407047D6
:1019B000001002406C230008C00100200F230360C8
:1019C0000B4B9A6802F0030242609A6802F0F00240
:1019D00082609A6802F4E062C2609B68DB0803F4EC
:1019E000E0630361034B1B6803F00F030B60704758
:1019F0000010024000200240F8B53C4BDA6812F0BB
:101A0000030F05460F4600681C4622D0DB6803F032
:101A10000303834230D17BB3236823F080632360C8
:101A2000FEF798FD064623681A012ED4AB681E0205
:101A30006B68013B18017FB3012F46D12B692769E1
:101A40005B08591E2A4B3B403343034343EA41534F
:101A50002AE002280CD0032810D001280CD11B68E2
:101A60009E0718D5E36823F003031843E060D3E72B
:101A70001B6813F4806FF5D101200CE01A68910304
:101A8000F0D41B6813F4802FF5E7FEF763FD801B8D
:101A90000228C8D90320F8BDE968226946EAC16373
:101AA000144911400B4303432361236843F08063CF
:101AB0002360FEF74FFD064623681B0110D52369FE
:101AC000AA69134323610020E5E76B6921695B087C
:101AD0005A1E094B0B403343034343EA4263E3E797
:101AE000FEF738FD801B0228E6D9D3E7001002403C
:101AF0000F809FFF0F80FF070F80FFF9304BDA68E0
:101B000012F0030F70B505461C46006826D0DB684E
:101B100003F00303834234D1002B32D0236823F037
:101B200080532360FEF716FD064623689A0031D4E1
:101B3000D5E90223DB06616943EA0223214A0A4010
:101B400013436A68013A43EA02136361236843F06E
:101B500080532360FEF7FEFC064627E002280CD0E7
:101B6000032810D001280CD11B689E0718D5E36804
:101B700023F003031843E060D0E71B6813F4806F81
:101B8000F5D101200CE01A689103F0D41B6813F41E
:101B9000802FF5E7FEF7DEFC801B0228C5D9032065
:101BA00070BDFEF7D7FC801B0228F8D823689B0085
:101BB000F7D56369AA69134363610020F0E700BFAA
:101BC000001002400F80FF072DE9F347066816F466
:101BD0000066044607D0C16E402922D012D831B326
:101BE00020292BD001262368DB0409D5216FB1F50C
:101BF000007F2FD026D899B3B1F5807F73D001260E
:101C000035463CE0602901D08029EBD13B4AE16EAA
:101C1000D2F89C3023F0E0030B43C2F89C3000263E
:101C2000E1E7364AD36843F48033D360EEE704300B
:101C3000FFF7E2FE06460028D5D1E7E72030FFF7A0
:101C40005DFFF7E7B1F5407F02D0B1F5806FD6D1E7
:101C5000354609E0294AD36843F48033D360F7E777
:101C6000201DFFF7C9FE0546002D41D1234A216FF3
:101C7000D2F89C3023F4E0630B43C2F89C30236815
:101C80009F0340F17D811D4FBB6DD80032D4BB6DE9
:101C900043F08053BB65BB6D03F080530193019B00
:101CA0004FF00108DFF85890D9F8003043F4807302
:101CB000C9F80030FEF74EFC8246D9F80030D9054D
:101CC00020D535BBD7F8903013F4407340F02E8107
:101CD000D7F89030D4F8902023F440731343C7F81A
:101CE0009030354615E004F12000FFF707FFBAE712
:101CF0002E46C4E74FF00008D4E700BF00100240B2
:101D000000700040FEF726FCA0EB0A000228D4D9A0
:101D10000325B8F1000F03D0BB6D23F08053BB65E2
:101D20002368D80708D5B249E06BD1F8882022F0A3
:101D300003020243C1F88820990708D5AC49206CFA
:101D4000D1F8882022F00C020243C1F888205A07FB
:101D500008D5A749606CD1F8882022F030020243F0
:101D6000C1F888201F0708D5A149A06CD1F88820A8
:101D700022F0C0020243C1F88820DE0608D59C4943
:101D8000E06CD1F8882022F440720243C1F8882028
:101D9000980608D59649206DD1F8882022F4406233
:101DA0000243C1F88820990508D59149606ED1F8A1
:101DB000882022F440220243C1F888205A0508D521
:101DC0008B49A06ED1F8882022F440120243C1F85A
:101DD00088205F0608D58649606DD1F8882022F4F6
:101DE00040520243C1F888201E0608D58049A06DE4
:101DF000D1F8882022F440420243C1F88820D80557
:101E000008D57B49E06DD1F8882022F440320243A6
:101E1000C1F88820D90208D57549206ED1F89C20D8
:101E200022F003020243C1F89C209A0410D5704AA4
:101E3000616FD2F8883023F040630B43B1F1006F3B
:101E4000C2F8883040F09E80D36843F48013D3609A
:101E500023681B030FD5A16F654BB1F5804FD3F8F5
:101E60009C2040F09B8042F48042C3F89C20DA68BA
:101E700042F48032DA6023685F0310D55C4AE16F78
:101E8000D2F8883023F040630B43B1F1006FC2F801
:101E9000883040F0A180D36843F48013D360236876
:101EA0005E0413D55249D4F88020D1F8883023F04D
:101EB00040531343B2F1805FC1F8883006D102214C
:101EC000201DFFF799FD002818BF05462268D003A2
:101ED00009D54749D4F88400D1F89C3023F0040395
:101EE0000343C1F89C30910209D54149D4F88800D8
:101EF000D1F89C3023F018030343C1F89C30D30180
:101F000010D53B4AD4F88C10D2F89C3023F44013FF
:101F10000B43C2F89C30B1F5001F02BFD36843F4F5
:101F20008013D360284602B0BDE8F087D4F8902033
:101F30009A423FF4CDAED7F89020D7F8903043F4D2
:101F40008033C7F89030D7F8903022F4407123F4F2
:101F50008033D207C7F89030C7F890107FF5B8AE3D
:101F6000FEF7F8FA41F288390546D7F890309B071A
:101F70003FF5AEAEFEF7EEFA401B4845F5D9C7E691
:101F80003546CDE6B1F1806F7FF462AF0121201DAF
:101F9000FFF732FD002818BF054659E722F48042BA
:101FA000C3F89C20D3F8882022F040620A43B1F1A4
:101FB000006FC3F8882003D1DA6842F4801259E731
:101FC000B1F1806F7FF457AF0121201DFFF714FDA1
:101FD000002818BF05464EE7B1F1806F7FF45FAF70
:101FE0000121201DFFF708FD002818BF054656E710
:101FF00000100240024A136843F004031360704764
:1020000000100240304A0368904212D0B0F1804F75
:102010000FD0A2F5943290420BD002F5806290422C
:1020200007D002F58062904203D002F594329042CC
:1020300019D14A6823F070031343234A90421DD0FC
:10204000B0F1804F1AD0A2F59432904216D002F52A
:102050008062904212D002F5806290420ED002F56A
:10206000943290420AD0194A904207D002F5806219
:10207000904203D002F58062904203D1CA6823F4F3
:10208000407313434A6923F08003134303608B6852
:10209000C3620B6883620C4B98420FD003F5006358
:1020A00098420BD003F54063984207D003F5806354
:1020B000984203D003F58063984201D10B69036312
:1020C00001234361704700BF002C014000400140E4
:1020D000036A01F01F0110B501248C4023EA0403B8
:1020E0000362036A8A401A43026210BD10B586B0CB
:1020F0000446694601A8FFF761FC144B9C4217D0C7
:102100000AD8A3F592339C421BD024F48064B4F126
:10211000804F16D0002010E00D4B9C4208D00ED806
:10212000A3F580539C4203D003F540639C42F1D158
:10213000FFF734FC059B03B1400006B010BD054B12
:10214000F4E7FFF71BFC049BF5E700BF002C014000
:10215000004401400048014008B500F084F800BE8A
:10216000FEF7F6F900B100BE034B4FF000425A6093
:10217000BFF36F8FFEF7DAF900ED00E008B5044B0E
:102180005A685A68DA6A9A6A9A6B5B6BFEF7CEF9FC
:1021900000ED00E001460020FEF7AEBB10B5D0E92F
:1021A000043104469847E37E20B113F0080F08BFBE
:1021B000002010BD43F00103E376FAE72DE9F0417A
:1021C00043769846069B03610025079BC161027612
:1021D00043611746458310222946044600F0AEF8B5
:1021E000164B1E681A4666B9224642F8206FC3E9AC
:1021F0000042134B1868F0B12046BDE8F041FFF7EC
:10220000CDBF3046037E9F4210D302D1437E43456B
:102210000CD8036A05463BB92B6A236213B904F153
:10222000200353602C62E4E71846EBE7002DF3D15E
:1022300026621460DDE7BDE8F08100BF6C0200207B
:10224000E0020020014B1868704700BF88020020A0
:10225000024A136803441360704700BF88020020DD
:102260000120FFF7F5BFEFF3108072B600F0010018
:102270007047000080F309882B480078023080F313
:102280001488BFF36F8F704780E8F00F7047EFF34B
:102290000980816911F8021C51B990E80F1010B53E
:1022A000E047BDE81040EFF3098C8CE80700704769
:1022B00010B51E4A1268914209D81D4C54F82140AD
:1022C00090E80F10A047EFF3098C8CE80F00BDE8F1
:1022D00010407047174B1A68174B1968914208BF96
:1022E0007047EFF3098C2CE9F00FC1F800C01A60B9
:1022F000D2F800C0BCE8F00F8CF30988704710B525
:10230000FFF7AEFFBDE8104070471EF0040F0CBF92
:10231000EFF30883EFF309832DE9F84F6846FFF7E1
:102320002DFFBDE8F84F7047740200200000000048
:10233000FCFFFFFFC4010020E4020020024403462A
:10234000934200D1704703F8011BF9E703461A4690
:10235000013311780029FAD1101A704700000000EB
:102360000000000001020304060708090000000045
:1023700001020304A0860100400D0300801A06003C
:1023800000350C0040420F0080841E0000093D0013
:1023900000127A000024F40000366E010048E801C3
:1023A000006CDC027561727432000000004800406D
:1023B00058100240000004003839FFFF07270000D2
:1023C00000000000000000000040000001000000CC
:1023D0000080000000A003000200000000200400B4
:1023E00000A003000300000000C007000010000070
:1023F000100000000040000000400000110000003C
:1024000000D007000030000078020020000000002B
:1024100000000000000000480004004800080048D8
:10242000000C004800100048001400480018004844
:10243000001C0048002000483CFEFF7F0100000017
:1024400048FEFF7FB0B0B08046FEFF7F0100000075
:1024500000093D0000000000C40100200000000051
:10246000FFFFFFFFFFFFFFFFFFFFFFFFFFFFFFFF7C
:10247000FFFFFFFFFFFFFFFFFFFFFFFFFFFFFFFF6C
:10248000FFFFFFFFFFFFFFFFFFFFFFFFFFFFFFFF5C
:10249000FFFFFFFFFFFFFFFFFFFFFFFFFFFFFFFF4C
:103FF000FFFFFFFFFFFFFFFF080002FF69A2B23BC8
:10400000FFFFFFFFFFFFFFFFFFFFFFFFFFFFFFFFC0
:10401000FFFFFFFFFFFFFFFFFFFFFFFFFFFFFFFFB0
:10402000FFFFFFFFFFFFFFFFFFFFFFFFFFFFFFFFA0
:10403000FFFFFFFFFFFFFFFFFFFFFFFFFFFFFFFF90
:108000003DB8F396000000002000000020A600000C
:10801000000000000000000001000000000000005F
:1080200000000320DD810008298200082982000861
:108030002982000829820008298200080000000027
:10804000000000000000000000000000A7B20008CF
:108050002982000800000000EDB2000817B30008F4
:108060002982000829820008298200082982000844
:108070002982000829820008298200082982000834
:108080002982000829820008298200082982000824
:108090002982000829820008298200082982000814
:1080A0002982000829820008298200082982000804
:1080B00029820008298200082982000829820008F4
:1080C00029820008298200082982000829820008E4
:1080D00029820008298200082982000829820008D4
:1080E00029820008298200082982000829820008C4
:1080F00029820008298200082982000829820008B4
:1081000029820008298200082982000829820008A3
:108110002982000829820008298200080000000046
:108120002982000829820008298200082982000883
:108130002982000829820008298200082982000873
:108140002982000829820008298200082982000863
:108150002982000829820008298200082982000853
:108160002982000829820008298200082982000843
:108170002982000829820008298200082982000833
:108180002982000829820008298200082982000823
:108190002982000829820008000000000000000079
:1081A0002982000829820008298200082982000803
:1081B0002982000829820008000000000000000059
:1081C0000000000000000000298200082982000849
:1081D000298200082982000829820008DFF830D0AF
:1081E000002103E00B4B5B58435004310A480B4B12
:1081F00042189A42F6D30A4A02E0002342F8043BAE
:10820000084B9A42F9D300F011F800F045F8FEE768
:108210000000032070250108C0010020900200200A
:1082200090020020C0390020FEE7000008B50C4B8A
:108230001A6842F001021A60002199601A6822F05F
:10824000A85222F410221A604FF48052DA601A68A1
:1082500022F480221A60996100F004F808BD00BF82
:1082600000100240094A0A4B9A420AD0002306E055
:10827000074A52F82310054A42F823100133612BB4
:10828000F6DD024A034B9A60704700BF00000020F1
:108290002080000800ED00E008B5034801F0EAFC8A
:1082A00001F044FD08BD00BFAF820008704708B56B
:1082B00004F08AFB00F0BCFE04F08CFB00F060F9D7
:1082C00000F04CF828B100231A461946184601F070
:1082D000CDFB00F05BFC20B901F07EFF01F04FFF09
:1082E000FAE700231A461946184601F0BFFB0000C2
:1082F0004AB300B585B01346C8B1DDE906010029CF
:1083000008BFB0F1806F12D11279FAB1124A00920F
:10831000012201921B68ADF80830684600F04CF865
:1083200010F1060F15D040B905B05DF804FB00232D
:108330001A461946184601F099FB00231A461946B9
:10834000184601F093FB6FF0010070476FF00100D9
:10835000EAE70020E8E700BF881F010810B5134CCA
:108360002146134800F0BCF843F69821204601F05E
:1083700069FA58B900210D4801F0FEF9034658B1D9
:108380000C4901F0B5FA58B9002010BD00231A4677
:108390001946184601F06AFB0246014601F066FBE9
:1083A00000231A461946184601F060FBE81C010834
:1083B000F41C0108C80100202DE9F041002866D016
:1083C000064600F049FD0746002866D0002000F070
:1083D000BFFC002873D000F085FB3A4D3A4928468F
:1083E00001F022F8284601F023F8284600F046FE66
:1083F000364C4FF0030884F8018006236380344B29
:10840000A36022463349284600F080FE84F80180AC
:10841000384603F0C4F86080A76022462E492846FB
:1084200000F074FE284600F0EFFF7368012B3AD18C
:10843000244D284600F022FE244C0323637030684C
:1084400003F0ADF860803368A360224621492846D6
:1084500000F05CFE0223637032890023C4E902232A
:1084600022461D49284600F051FE284600F0CCFF68
:10847000284600F0EDFF00F043FB00F081FCC0B1A6
:108480003946164800F02CF80020BDE8F0810023A2
:108490001A461946184601F0E9FA00231A46194609
:1084A000184601F0E3FA00231A461946184601F06F
:1084B000DDFA00231A461946184601F0D7FA6FF084
:1084C0000500E2E710380020041D01086038002094
:1084D0000C1D0108141D0108181D0108201D0108AC
:1084E0000FB410B582B000F019F960B10C4B1B68E5
:1084F0000BB1002408E002F08BFD0146094803F0AF
:1085000049FB044600E0002405A90191049803F00A
:1085100071FB204402B0BDE8104004B0704700BFBA
:10852000083800206C1D010803460A4605490978F1
:1085300021B118461146ABBE002070474FF0FF3006
:10854000704700BFE0010020024B186800F00100F6
:10855000704700BFF0ED00E070B584B006460D46F0
:108560001446FFF7F1FF08B114B9002004B070BD44
:1085700001960295039401A90520FFF7D5FFF5E7C1
:1085800038B50E4B1B78BBB10D4B1D68A5B10D4B1B
:108590005B68C3F308037BB9094B00221A602C46C1
:1085A00005E0E28821680220FFF7D6FFE468002C8E
:1085B000F7D1284601F08CFE38BD00BFE001002055
:1085C0009002002000ED00E008B5FFF7D9FF08BDDC
:1085D00038B5124B1B7803B938BD05460C46FFF77A
:1085E000B3FF0028F8D00E4B1B6873B10C4B186812
:1085F00001F07EFE2044B0F5006FEDD2A2B2294614
:10860000074B186801F07DFEE6E70021A0B202F0FA
:10861000E3F8034B18600028E8D1DDE7E001002013
:108620009002002000B583B08DF807000D2804D01B
:1086300001210DF10700FFF7CBFF03B05DF804FB4C
:1086400010B582B01023002205E0B0FBF3F103FB6C
:108650001100C0B21B098BB1B0FBF3F404F130017F
:10866000C9B2392902D904F15701C9B2022AECDC96
:1086700002AC144404F8041C0132E6E72AB902AB48
:108680001344302103F8041C0132022A04DC02AB3B
:108690001A44002302F8043C00238DF8063001A898
:1086A00002F07DFF014601A8FFF792FF02B010BD66
:1086B00080B170B50D46064659B10024AC4208D2CF
:1086C000305DFFF7BDFF01210348FFF781FF013453
:1086D000F4E770BD704700BF741D010838B5C5B21E
:1086E0000B4B1B7853B904460A2D09D0094B0122C4
:1086F0001A602846FFF796FF204638BD2846FCE75B
:108700000D20FFF78FFF034B00221A60F1E700BF37
:108710000D3800200838002000207047014B1878E1
:10872000704700BFE101002070B506460D460024E9
:10873000AC4207DA305DFFF7D1FFB0F1FF3F01D067
:108740000134F5E770BD08B5FFF73EFF08BD000036
:1087500010B582B00D4B1B7893B10D4801F0A0FC11
:108760000C4802F06DF8FFF7D7FF38B100200090F9
:10877000094B1C68034602460146A04702B010BDE3
:108780001A461946184601F071F900BF94390020C5
:1087900094020020A40200203C02002008B50248F8
:1087A000FFF79EFE08BD00BF781D010808B5104BFD
:1087B0001B68322B07D10F4B186830B159B192B2F8
:1087C00001F09FFD68B9002008BD00231A46194634
:1087D000184601F04BF900231A461946184601F0D5
:1087E00045F900231A461946184601F03FF900BF23
:1087F00028030020B002002008B50121064802F03D
:10880000A5FA18B9054B01221A7008BD00231A46B3
:108810001946184601F02AF92C03002034030020E1
:1088200010B50021054B1960054C4822204602F086
:1088300090FE044B44F8043C10BD00BFB002002081
:1088400014380020AD87000810B528B10446FFF7A2
:10885000E7FF044B1C6010BD00231A46194618465A
:1088600001F004F9B002002070B504460D46002165
:10887000084601F0B1FF304B186000285AD004F1CF
:10888000380003F01DFA2D4B186058B32C4B1B68B1
:10889000322B2ED03C2B31D12A4EE38E94F861201E
:1088A0000121304603F0EAFB254B1968304603F0FE
:1088B000B7FD94F8342004F12C01304603F09CFD00
:1088C000A16A304603F0B3FDA16DB1F1FF3F1BD1AA
:1088D00015B12B88012B1BD8A36DB3F1FF3F1CD022
:1088E000012070BD144C206801F0F2FC00202060D3
:1088F000F7E7114B1868FFF7A7FFCDE700231A46EB
:108900001946184601F0B2F8304603F0B5FDDFE72E
:1089100069680C4803F09DFDDEE794F86030012B98
:1089200001D00120DDE74FF47A61201D01F054FAF7
:108930000120D6E70020D4E724030020B402002061
:1089400028030020B802002070B582B0214B1B78AC
:10895000E3B106460D461446E8B111B302B932241C
:108960004FF0FF311C4802F02BFA00BB1B4B1C6080
:10897000012300931A4B02223146284603F036FAAF
:10898000D8B10021FFF770FF02B070BD1A4619463A
:10899000184601F06BF800231A461946184601F0F4
:1089A00065F800231A461946184601F05FF80023BF
:1089B0001A461946184601F059F8074802F0CEF950
:1089C00008B90020E0E700231A461946184601F0CE
:1089D0004DF800BF340300202C03002028030020A2
:1089E0009D87000838B5104B1B683BB11D8A29468E
:1089F0000E48FFF775FD0C4B1C680CE01A46194633
:108A0000184601F033F804F110006379E188184446
:108A1000FFF7DEFDE468002CF5D10548FFF760FDA7
:108A2000FFF7FEFE284638BDB0020020881D010871
:108A3000AC21010810B5244B1B681BB3322B26D088
:108A4000224B186801F044FC204B00221A60204B96
:108A50001968002930D01F4803F01EFB38BB0021E5
:108A60001B4B186803F0C0FC1A4B988803F0AEF952
:108A7000174B00221A600124174802F06FF9E8B979
:108A8000204610BD1A461946184600F0EFFFFFF7C2
:108A9000A9FF03460028D3D00E480C4A126882660C
:108AA000A0F86230084B196803F0B3FCCCE7084B20
:108AB000186801F00DFCD7E70024DDE700231A4613
:108AC0001946184600F0D2FF280300202403002096
:108AD000B4020020B80200202C03002008B5FFF7E4
:108AE000A9FF08BD08B5054800F0C8FA00B908BDDF
:108AF00000231A461946184600F0B8FF1038002027
:108B000008B5054800F080FC00B908BD00231A46EE
:108B10001946184600F0AAFF1038002000B585B0AD
:108B200001280AD800EB8002134901EB8202127C73
:108B30004AB1002005B05DF804FB00231A4619462F
:108B4000184600F093FF4FF4807203920B4A029292
:108B50004FF0FF3201920A2200920346084A094967
:108B6000094802F093F90028E4D000231A46194678
:108B7000184600F07BFF00BFDC070020BC0300208C
:108B8000698C0008A01D01086C03002008B50020B6
:108B9000FFF7C4FF00B908BD00231A46194618465E
:108BA00000F064FFF0B583B0012838D8044600EB2C
:108BB0008003274A02EB83031B7C002B46D1254E02
:108BC00006EB001600EB800302EB83035D6865B3E0
:108BD00000EB80031E4A02EB8303DB685BB32B468A
:108BE0001D4A52F820201D491D48FFF779FC04EB6F
:108BF0008403174A02EB8303DF681023009341F2DA
:108C00003363184A31462846B847C8B904EB840490
:108C10000F4B03EB84040123237403B0F0BD002346
:108C20001A461946184600F021FF00231A46194635
:108C3000184600F01BFF1A461946184600F016FFAA
:108C400000231A461946184600F010FF0020E4E7FA
:108C5000DC070020BC070020D01E0108A81D010869
:108C6000B01D0108641E010810B5C4B20B48FFF71F
:108C700037FC2046FFF796FF50B901F0BBFD0146D7
:108C80000748FFF72DFC42F2107002F0E9F9F4E713
:108C900000231A461946184600F0E8FEBC1D0108DC
:108CA000C81D010838B503460D4619B325B3012B7D
:108CB00028D803EB8302214800EB820252683AB3C2
:108CC00003EB83021D4800EB8202D26832B31C48DA
:108CD00000EB03101B4A52F8232003EB8303174CCD
:108CE00004EB83031B7CFBB12946FFF72DFE0346F3
:108CF000F8B138BD144DD9E700231A461946184675
:108D000000F0B4FE00231A461946184600F0AEFEE5
:108D100000231A461946184600F0A8FE00231A46FA
:108D20001946184600F0A2FE0848FFF7D9FB0020BC
:108D3000DFE70246014600F099FE00BFDC07002095
:108D4000BC070020C81E0108741E0108DC1D0108B4
:108D500008B501460020FFF7A5FF08BD08B50128AA
:108D600004D8FFF7BBFE034630B108BD00231A4606
:108D70001946184600F07AFE0246014600F076FEDB
:108D800008B50020FFF7EAFF00B108BD00231A462E
:108D90001946184600F06AFE044BD3E9002313433A
:108DA00001D1002070470120704700BF0808002053
:108DB00008B5164B1B680BB1154808BD00F056FBF3
:108DC000124B18600B2814D90C21114800F050FBED
:108DD0000E4B1860002812DD0E490F48FFF780FB8C
:108DE0000A4B19680A48FFF763FC0C48FFF778FB49
:108DF000E2E700231A461946184600F037FE002322
:108E00001A461946184600F031FE00BF68030020DC
:108E10005C030020A81D0108F41D0108AC21010815
:108E200008B5FFF7C5FF0C22034902F061FB08B14A
:108E3000002008BD0120FCE7801E010810B5FFF7E7
:108E4000EFFF28B90446FFF7A7FF10B9012400E09F
:108E50000024204610BD000038B50C4B1B789BB990
:108E600000240A4D0F2C07DC00220949284602F095
:108E70007AFB02350134F5E7044A002382F82030FA
:108E800004490548FFF72CFB004838BD3803002093
:108E9000FC1D0108A81D0108041E010838B50024A6
:108EA000042C14DC234B03EBC403D3E90023224935
:108EB000224850F8240002F056FB0A2801DC013455
:108EC000EEE700231A461946184600F0CFFDFFF7DB
:108ED0006FFF05460024042C19DC04EB44010C222E
:108EE000174B03EB8101284602F002FB08B1013465
:108EF000F1E7104B03EBC403D3E90001114BC3E9C5
:108F00000001631C104A11491148FFF7E9FAFFF705
:108F100087FF28B10C4A0D490E48FFF7E1FA38BD2A
:108F2000FFF78CFF0028FAD0074A08490A48FFF7E4
:108F3000D7FAF4E7D81E01081C1E0108E40100203E
:108F40008C1E010808080020241E0108A81D010825
:108F50002C1E01083C1E01084C1E0108F8B5002813
:108F600034D003460278012A36D84168002939D026
:108F7000017A00293CD0C06800283FD0102943D88E
:108F800002EB8201264800EB81014968002941D1AA
:108F9000234C02EB820504EB85011868D3F804C06A
:108FA0009F68DE6844F82500C1F804C08F60CE6079
:108FB0001869086100240C744B681A4951F8222082
:108FC00019491A48FFF78CFA2046F8BD00231A46C3
:108FD0001946184600F04AFD00231A46194618465D
:108FE00000F044FD00231A461946184600F03EFDE5
:108FF00000231A461946184600F038FD00231A4689
:109000001946184600F032FD00231A461946184644
:1090100000F02CFD00231A461946184600F026FDE4
:10902000DC070020D01E0108A81D0108B01D0108A2
:1090300008B500F089FE03F043FBFFF789FB03F05E
:109040007BFC03F075FB03F07BFA03F08BFA03F073
:109050008EFA03F08DFA03F08CFA03F090FA00F028
:1090600003FD00F093FB05F0A9F8FFF717FF03F0ED
:10907000E9FDFFF7C1FB04F0BDFE08BD10B50446D5
:10908000037A13F0010F08D00368012208494068F1
:109090009847237A6FF3000323722368012205495E
:1090A00060689847237A6FF300032372002010BD95
:1090B000001F0108041F010870B504460D46037A1D
:1090C00013F0010F08D0036801220D49406898474A
:1090D000237A6FF300032372236801220949606831
:1090E00098472668284602F05AFA024629466068E0
:1090F000B04723680322044960689847002070BD88
:10910000001F0108081F01080C1F0108F8B50446DC
:109110000D461646037A13F0010F08D003680122AA
:10912000114940689847237A6FF30003237223683C
:1091300001220E49606898472768284602F02FFAF6
:10914000024629466068B8472368032208496068D8
:1091500098473146204600F00DF818B9237A43F0BD
:1091600001032372F8BD00BF001F0108081F01089A
:109170000C1F0108F8B505460C464B78052B00F28C
:109180001E81DFE813F006001A0029003800D9001C
:10919000FE0000F10906D1E9022313430BD0894AEE
:1091A0008949304602F0DFF902462B68314668688B
:1091B00098470023BEE0854AF2E700F10906D1E9AD
:1091C00002238349304602F0CEF902462B6831462D
:1091D000686898470023ADE000F10906D1E9022351
:1091E0007C49304602F0BFF902462B683146686878
:1091F000984700239EE0036801227749406898471A
:10920000002612E05C2B04D02B6801226868984786
:109210000AE02B6801227149686898472B68A168A9
:10922000012239446868984701366388B3427BDD80
:10923000A368374699199B5D2F2BE3D8082BE3D3FE
:10924000083B272BE0D801A252F823F01D93000819
:10925000ED92000805930008099200081193000898
:10926000F992000809920008099200080992000882
:109270000992000809920008099200080992000862
:109280000992000809920008099200080992000852
:109290000992000809920008099200080992000842
:1092A0000992000809920008099200080992000832
:1092B0000992000813920008099200080992000818
:1092C0000992000809920008099200080992000812
:1092D0000992000809920008099200080992000802
:1092E0000992000809920008139200082B680222D4
:1092F0003B496868984797E72B68022239496868B4
:10930000984791E72B6802223749686898478BE7AE
:109310002B68022235496868984785E72B68022246
:109320003349686898477FE72B6801222A496868B3
:10933000984700231846F8BD036801222D4940686C
:109340009847002605E02B6801222B49686898475A
:1093500001366388B3420DDDE36853F826102846D2
:10936000FFF708FF03460028E4D16388013BB342BE
:10937000E9D1EDE72B68012220496868984700236E
:10938000D8E7036801221E49406898470026638891
:10939000B3420DDDA368E26852F8262053F8261088
:1093A0002846FFF7B3FE03460028C3D10136EEE797
:1093B0002B6801221349686898470023BAE74FF0E9
:1093C000FF33B7E7181F010824240108101F010804
:1093D000201F0108281F0108081F0108301F01086D
:1093E000341F0108381F01083C1F0108401F0108F5
:1093F000441F0108481F0108001F01084C1F0108F5
:10940000041F0108501F010810B50446036801221B
:10941000044940689847237A43F0010323720020EF
:1094200010BD00BF501F010808B5FFF745FE08BD7D
:1094300010B5044603680122044940689847237A1E
:109440006FF300032372002010BD00BF481F010806
:1094500008B5037A43F0010303720368012202494D
:1094600040689847002008BD4C1F01080C20704739
:1094700010B50C29A8BF0C210C460A46024902F07F
:109480005BF8204610BD00BF9075FF1F094B1B6B9A
:10949000834209D01A46D3F880308342FAD1D3F8F8
:1094A0008030C2F880307047D3F88020014B1A63B7
:1094B000704700BF7038002010B4036A1BB1134B13
:1094C0001B6B00210AE0114B1B6B002173B1194685
:1094D000D3F88030FAE71946D3F8803033B11A6AEE
:1094E00022B1426A5C6A121B002AF4DA39B1D1F85F
:1094F0008030C0F88030C1F8800010BC7047034B4A
:109500001A6BC0F880201863F7E700BF703800209E
:10951000C06FB0FA80F0400970470000014BD8627C
:10952000704700BF7038002010B40A684B680469A7
:10953000416922400B408469C16922400B401343BA
:1095400014BF0120002010BC70472DE9F04F83B0FC
:1095500081468B469246DDF830800D9D0B79012BBC
:1095600015D0C46E00E024698CB12268636802EAF9
:10957000080603EA050756EA0703F4D0A368E16882
:10958000CDF800800195524648469847EBE7DBF856
:10959000003053B1CDF8008001955246DBF804103D
:1095A0004846984703B0BDE8F08F0020FAE708B5B9
:1095B0000368D86901F0E7FF08B1002008BD012069
:1095C000FCE7000030B587B001F022FD044601A998
:1095D00002A801F059FD48B104F5122404F5F8641D
:1095E00021460A4800F0F8FB07B030BD04F5F4143A
:1095F00004F59064064D06AB13E90F0085E80F00F3
:10960000019B2B6100F072FC6861E9E7A43800203F
:10961000C838002070B5064600F068FC0C4A536953
:10962000C11A70645061D2E9004593681944094B2E
:10963000A3FB01039B0CE41845F10005C2E90045BA
:10964000C6E90C45044800FB13139360B36370BD77
:10965000C838002083DE1B4340420F0008B54FF09E
:10966000FF31054801F052F910B1092802D008BDB8
:109670000020FCE70020FAE77038002008B5024817
:1096800001F0E8F808BD00BF70380020014BD86A2F
:10969000704700BF7038002070B588B000F09CFDA6
:1096A000FFF73CFF1D4B00931D4B182205211D4861
:1096B00000F0E2FF58BBFFF7E9FF01461A4E002316
:1096C0001A4A304600F05CFB04AD03A9284601F0BD
:1096D000DBFC174C95E80F0084E80F00039B236127
:1096E00000F004FC6061FFF7D1FF0146114C00233C
:1096F000114A204600F044FB4FF47A71204600F0F6
:109700006BFBA6F10C0001F09BF808B070BD0023C4
:109710001A461946184600F0A9F900BF541F01085F
:1097200048080020C00800207C380020ED9900087F
:10973000C8380020A4380020C595000870B505463B
:109740000E461446FFF78AFF88B94CB1D4F8804022
:109750004CB131462046A84728B9D4F88040F7E7F5
:10976000044B1C6BF4E7FFF789FF204670BD002413
:10977000FBE700BF7038002008B50A4601460248E2
:10978000FFF7DCFF08BD00BFAF95000808B5FFF785
:1097900083FF08BD08B54FF0FF31043001F0B6F883
:1097A00010B1092802D008BD0020FCE70020FAE72C
:1097B00008B5043001F04EF808BD38B504460D4632
:1097C000FFF7E8FF25622046FFF7F2FF38BD30B50E
:1097D00083B004460D4601A9006A01F071FC2046E1
:1097E000FFF7D8FF2046FFF751FE01990D4465624F
:1097F0002046FFF761FE2046FFF7DAFF03B030BDD9
:1098000038B505460C46FFF7C5FF6B6A1C1B04D430
:109810002846FFF7CDFF204638BD0024F8E70000BA
:1098200070B505460C46FFF719FF054B1E6B294620
:109830003046FFF7E5FF2060FFF720FF304670BDA0
:109840007038002070B582B005460C46154800F00F
:10985000A5FA00212846FFF78FFFF8B10546FFF76C
:1098600099FF01F0D5FB064601A9204601F028FC2E
:1098700021462846FFF7A1FF31462846FFF7A7FFFC
:109880002846FFF795FF01A93046FFF7C9FF019968
:10989000044800F0A1FA002002B070BD6FF0010092
:1098A000FAE700BF7C38002038B50446FFF7D6FE43
:1098B000054608B1284638BD2046FFF76BFF054630
:1098C0000028F7D12046FFF7F7FD2046FFF770FF8D
:1098D000FFF7D4FEEEE738B504460D468822002196
:1098E00001F037FE201D00F0ABFF00B9256038BD48
:1098F00070B504460D46FFF74DFF064608B13046E9
:1099000070BDE36E2B61E5662046FFF751FFF6E779
:1099100030B589B00446CDE90423FFF73BFF054687
:10992000C8B90C9B06930D9B079304A92046FFF72B
:10993000FBFDF0B12046FFF76DFEA36A19680E9B90
:10994000029306AB01930C4B0093DDE90423204600
:109950008847054628B92046FFF72AFF284609B060
:1099600030BD236F002BF6D00246616F204698472A
:10997000F1E76FF00305EEE74B95000830B585B0D1
:109980000446089D0DB1A98AB9B94FF0FF31029183
:109990000021019100912046FFF7BAFF2046FFF712
:1099A000F9FE2DB1AB8A1BB96B8A0BB1013BAB82BF
:1099B0002046FFF7FDFE05B030BD0139A982FAE768
:1099C00070B582B005460E46FFF7E4FEEC6F44B179
:1099D000D4E90023019600942846FFF7CFFF246ABC
:1099E000F5E72846FFF7E4FE02B070BD70B584B01D
:1099F00001F00EFB0546FFF731FE12E02046FFF7AF
:109A0000D7FEFFF73BFE04B070BD32462946204624
:109A1000FFF7D6FF29462046FFF7D9FE2046FFF77D
:109A2000C7FE03A92846FFF7FBFE0446FFF7B2FE78
:109A3000236A002BE2D0039E6EB92046FFF768FD33
:109A40000028E2D0D4E906230195002100912046A8
:109A5000FFF794FFDEE7FFF711FE0399014800F0DE
:109A6000BBF9D0E77C3800207047000008B5744689
:109A700005460E4601F036FB21460F48FEF730FD45
:109A800000BEFEF760FE8DB133462A4621460B48E4
:109A9000FEF726FD04F070FF00B100BE084B4FF04A
:109AA00000425A60BFF36F8F04F068FF21460548FB
:109AB000FEF716FDEEE700BF681F01089C1F0108B6
:109AC00000ED00E08C1F010800B583B00446FEF7EE
:109AD0003AFE1B4D69682268C1F308011948FEF778
:109AE000FFFC2068836842680168C06800901648DF
:109AF000FEF7F6FC23690093E368A26861681348E7
:109B0000FEF7EEFC236A0093E369A26961691048DD
:109B1000FEF7E6FC2068836942690169C06900902C
:109B20000C48FEF7DDFC6968EA6AAB6A0A48FEF792
:109B3000D7FCA96B6A6B0948FEF7D2FC04F01EFF44
:109B400000ED00E0B41F0108E81F01081C20010817
:109B50005020010884200108B8200108E0200108F5
:109B6000F8B505F0F1FB00250BE000F075FF05F0FE
:109B7000EBFB254612E0002004F0D1FE304601F058
:109B8000B7FA154A13680133136001F041FA04462D
:109B900005F56A531833C31A002BE6DC01F0A2FA6C
:109BA000064601F035FA074601F082F804463846C9
:109BB00000F07CF9844228BF044605F56A53183347
:109BC000D81BA04228BF20466328D4D9034B984213
:109BD000D2D90248D0E700BF30390020C0270900A1
:109BE00008B5034600210846984700231A4619463F
:109BF0001846FFF73BFF0000014B1868704700BF95
:109C00003439002000B585B040230393154B0293EF
:109C10004FF0FF330193FF2300930023124A1349AF
:109C2000134801F033F950B900F04CFF68B947F21E
:109C3000305005F05FFB70B905B05DF804FB002300
:109C40001A4619461846FFF711FF00231A4619460F
:109C50001846FFF70BFF00231A4619461846FFF770
:109C600005FF00BFE0080020619B0008FC20010800
:109C7000E038002010B584B00446264B00221A605C
:109C80005B60254B1A605B6000F0A6FA00F008FAF2
:109C900000F0FEF901F05CFA18BB94B14FF4806358
:109CA00003931E4B02934FF0FF3301937F230093E6
:109CB00023461B4A1B491C4801F0E8F810F0FF0F2F
:109CC00015D102F029FF012000F084F910F0FF0FF8
:109CD00013D1022000F07EF910F0FF0F13D104B071
:109CE00010BD00231A4619461846FFF7BFFE002391
:109CF0001A4619461846FFF7B9FE00231A461946B8
:109D00001846FFF7B3FE00231A4619461846FFF718
:109D1000ADFE00BF383900205C390020E00900208A
:109D2000E19B000804210108E019002008B505F0B6
:109D3000FDFA01F079FA00B908BD00231A46194668
:109D40001846FFF793FE000008B50C4B1B7853B183
:109D5000032000F03FF910F0FF0F09D100F0D4FC10
:109D600000F054FD08BD1A4619461846FFF77EFE5E
:109D700000231A4619461846FFF778FE943900204A
:109D8000F8B504460D4617461E462022002101F074
:109D9000E0FB6760A6602561F8BD000038B50446A9
:109DA00001F0A0F90546E3693BB1A26972B1D36144
:109DB000E369A2691A600023E361206910B12146BA
:109DC00000F0E9F9284601F093F938BD014A5360E3
:109DD000EEE700BF3839002070B50369C3B104460F
:109DE0000E4600292FDB01F07DF905462046FFF7DE
:109DF000D5FF06B9012601F00BF930446061134B21
:109E00001B6853B15A69821A002A06DB9B69F8E77E
:109E10001A4619461846FFF729FE5BB1DA69E26176
:109E2000A361DA6914601834DC61284601F060F936
:109E3000002070BD0023A361044B5A68E2611460E6
:109E400018345C60F1E70220F3E700BF38390020E6
:109E500038B501F0DDF805460FE0E269124B5A60B3
:109E6000E369A2691A600023E36101F041F9D4B10A
:109E70002069A0B1214600F01BF901F033F90A4B2B
:109E80001C68002CF1D06369EB1A002B05DBA36979
:109E9000002BE2D0E269DA61E2E70024E5E76368DB
:109EA00020469847E9E738BD3839002010B5044608
:109EB00001F021F930B1094B1B685BB15869001BF7
:109EC00006D410BD00231A4619461846FFF7CEFDEA
:109ED0000020F6E74FF0FF30F3E700BF38390020ED
:109EE00008B50146002004F041FF08BD08B5002078
:109EF00004F09EFF08BD000030B4154B1D6815B17D
:109F00002B46002408E0034643F8205F104A5360C4
:109F1000106010E01C461B6A43B1017E1A7E91421C
:109F200004D3F7D1417E5A7E9142F3D25CB1236AC9
:109F300003621BB12062002030BC704700F1200397
:109F4000034A5360F6E70562014B1860F3E700BF70
:109F5000301A002010B5044603694169984728B1BA
:109F6000E37E13F0080F05D1002003E0E37E43F009
:109F70000103E37610BD10B40446C1610276437656
:109F80000020E076A076019B2361029B6361206044
:109F90006060A060E06010BC7047000030B583B026
:109FA0000446079D0195069D0095FFF7E4FF08B163
:109FB00003B030BD2046FFF79FFF0028F8D1044BC7
:109FC0001B68002BF4D02046FFF7C4FFF0E700BF6A
:109FD0003439002038B50546084B1C68002200E0E3
:109FE000246A44B1237EAB42FAD12046FFF7B2FF88
:109FF00002460028F4D0104638BD00BF301A0020B9
:10A0000038B50546054B1C6834B12946E06901F0B6
:10A01000BAFA08B1246AF7E7204638BD301A0020A2
:10A0200070B50D461646FFF7EBFF0446A0B1C37EA0
:10A0300013F0010F12D003681BB13246294698472E
:10A0400070B901F04FF8A37E0133A376E37E43F0AD
:10A050000203E37601F04CF8204670BD0024FBE7D4
:10A060000024F9E710B50446C3680BB1984768B9F6
:10A0700001F038F8A37E013BDBB2A3761BB9E37E87
:10A0800023F00603E37601F033F8002010BD000052
:10A09000024B00221A605B60704700BF301A00203C
:10A0A000002202604260034643F8082FC3607047F5
:10A0B00070B505460C4601F015F806462378A3B99D
:10A0C000012323700023E360EB681C600C34EC6018
:10A0D000686888B1027B022A0AD0002400236B60E2
:10A0E000304601F005F84CB970BD01F001F8FBE70E
:10A0F00000F086FD0124F1E70024F1E7002000F0E4
:10A10000FDFDF1E7F8B5064600F026FD044633688C
:10A11000834201D0DBB9306000F0E4FF0546B76848
:10A12000DFB974604FF0FF31204600F021FD637B02
:10A1300043F008036373284600F0DAFF002000F0C4
:10A14000DDFD00F0CFFF054600237360E7E7002345
:10A150001A4619461846FFF789FCFB68B36053B1ED
:10A1600000233B70637B23F008036373284600F0F1
:10A17000BFFF3846F8BD06F10803F360F0E708B505
:10A18000FFF7C0FF43680BB1984708BD1A46194650
:10A190001846FFF76BFC38B505460C4600F0A2FFE9
:10A1A00023784BB1AB68A3420BD01A46DB68A342BD
:10A1B000FBD1DB68D36063B10023237000F098FF0C
:10A1C00038BDDB68AB60002BF6D105F10803EB600E
:10A1D000F2E70C32EA60EFE700487047381A0020D7
:10A1E0000346002018605B6098605861D9601A616E
:10A1F000704738B5054600F075FF2C6814B16368E8
:10A200002B602BB100F074FF04B1103C204638BD28
:10A210006D60F7E7F8B55379072B16D905460E465A
:10A22000144602F1100700F05DFF002344F8143FCC
:10A230006B681F606C6000F05BFF46B105F10801C0
:10A240003046FFF735FF002000E00220F8BD002077
:10A25000FCE7103A028041600020704738B503885F
:10A260008B4210D304460D46406800F00FFA48B107
:10A270000023C36003714371C38000F110010D44DA
:10A280000560846038BD0020FCE738B501F10805A1
:10A290000388AB420ED3FF2D0ED80021FFF7DEFF5F
:10A2A00038B1457103681D44056000230382438271
:10A2B000436138BD0020FCE70020FAE708B5836859
:10A2C00023B10146586800F009FA08BD0020FCE7F8
:10A2D00058B110B5C468FFF7F1FF034618B920461E
:10A2E000002CF7D10023184610BD002318467047F4
:10A2F0000346002023B1DA88104480B2DB68F9E716
:10A3000070472DE9F04700284BD00F469146824612
:10A31000D0F8088003461E46DB68002BFBD14D4673
:10A32000B36806F110041B881C443068F388184495
:10A33000241AA4B264B14C4500DD4C46224639468D
:10A3400001F0FAF8F3882344F3802744A9EB0405CD
:10A35000002D16DD00214046FFF780FF044680B146
:10A36000B8F80020AA42A8BF2A4692B2C280394655
:10A37000006801F0E1F8E3881F44ED1AF460264616
:10A38000E6E79AF80530072B07D9A9EB0509BAF8D3
:10A39000103013FA89F9AAF8109025B92846BDE8BB
:10A3A000F0870225FAE70125F8E72DE9F041044698
:10A3B000D0F8088000273E4616E00021234653F8D7
:10A3C000102B0B44D31A99B24046FFF747FF0546BE
:10A3D000F86080B123792B71E288EA8021682868CF
:10A3E00001F0AAF8E4682F464CB15EB16379072BFF
:10A3F000E3D999B2E2E73046FFF76AFF2E463046CE
:10A40000BDE8F0816379072B11D999B2234653F83F
:10A41000102B0B44D31A99B24046FFF71FFF064694
:10A420000028ECD06379072B03D80546D2E700213A
:10A43000ECE7C3886BB900F11005627904F11001F3
:10A44000284601F079F8637973711D44356035460B
:10A45000C0E700231A4619461846FFF707FB0028F5
:10A460004DD0F8B5044600291BDB03460A4605E03B
:10A47000801AD880186802441A6000224BB1002A62
:10A4800007DDD8889042F3DC121A0020D880DB6800
:10A49000F4E76379072B03D9521A238A1A442282DC
:10A4A000F8BD4F4203460022D88802441E46DB68AE
:10A4B000002BF9D1B8420DDA8A1815D46379072B2D
:10A4C00000D92282002CEBD0E38893420EDAD21A14
:10A4D000E468F7E7BFB2C01BF0806379072BDFD9D0
:10A4E000238ADF1B2782DBE70022E7E7E280E068C0
:10A4F0000028D5D0FFF7ECFE0023E360D0E77047DB
:10A50000F8B504460E4619E000201BE00021A068C3
:10A51000FFF7A4FE0546002D33D06379072B36D80C
:10A52000AA6805F11003128813442968EA880A44CE
:10A530009B1A11FA83F32B60EC602C466179072992
:10A54000E2D988B2234653F8102B0344D31A9BB2A6
:10A550009E4200DA3346D21A226098B2E288024460
:10A56000E280072902D9228A10442082F61A0CD0F0
:10A570000729CBD90839C9B2A068FFF786FE05467E
:10A58000C9E72046FFF7A4FE2C462046F8BDEB881D
:10A5900073B905F11007627904F11001384600F033
:10A5A000CBFF63796B711F442F6000236371B7E7A2
:10A5B00000231A4619461846FFF758FA03461A466A
:10A5C000DB68002BFBD1D1604379072B06D94B798F
:10A5D000072B06D90B8A028A1344038200234B718E
:10A5E00070470B460029F9D010B4DA88048A224457
:10A5F0000282DB68002BF8D100234B7110BC70473E
:10A60000002831D030B40446002A2FD0BBB113B19A
:10A6100013F0030F2CD12260E18021819DF80C0002
:10A62000A072A180E3600298A061636199B112F009
:10A63000030F02D022F003020432012007E00029B8
:10A64000E5D003200EE09D181D6001302B468142AD
:10A65000F9DC00221A6000202061064B5A68146061
:10A6600010345C6030BC7047032070470320F9E76A
:10A670000420F7E74039002010B582B0002401948F
:10A68000049C0094FFF7BCFF02B010BD38B504462F
:10A6900098B100F027FDE38853B165692A686261CB
:10A6A000013B9BB2E3802289934202D2238100E0E6
:10A6B000002500F01DFD284638BD0546FBE738B5EE
:10A6C00004460D4600F00EFD63692B606561E3886A
:10A6D0000133E38000F00CFD002038BD78B1034663
:10A6E00079B110B5827A12F0010F04D0C46914B1A7
:10A6F000026AA04702E01846FFF7E1FF10BD032001
:10A700007047032070470000024B00221A605B6014
:10A71000704700BF403900200246094B19680846BF
:10A7200020B10388934201D28068F9E700B17047F5
:10A7300019B1034B5868083870470846F7E700BF5F
:10A74000F80100200E4B1B682BB101881A8891423A
:10A7500001D89B68F8E753B19A68826012B198609B
:10A760000020704700F1080205494A60F7E700231E
:10A770008360034B5A68106008305860F0E700BFF0
:10A78000F801002030B583B01446079D0195069D61
:10A79000009502F025F938B100200090094B1D68A2
:10A7A000034602460146A8472046FFF7CBFF38B1D3
:10A7B00000200090034B1C68034602460146A04758
:10A7C00003B030BD3C020020024B00221A605B60E7
:10A7D000704700BFF801002010B50C4601F10803D6
:10A7E00010FA83F080B2FFF797FF10B1E1B2FFF7E4
:10A7F0004CFD10BD044B1B68002023B15A68D28861
:10A8000010449B68F9E77047F801002000B583B059
:10A81000FFF7DAFF064B01934FF4927300930C237A
:10A82000044A05490548FFF7ADFF03B05DF804FB96
:10A830000C210108F827002004280020481A0020D5
:10A84000034628B100205871D8809860186070477E
:10A8500003207047F8B52C4B1B68002B4BD00446E7
:10A8600000284AD000F078F90546E388002B46D04E
:10A87000A268824245D1012B03D0013BE380002036
:10A880003AE000F02FFC0746E388013BE380EA7AD8
:10A8900063799A421ED1266846B1F369FBB130460E
:10A8A00000F0AEF90123E380F37A6371A66016B17C
:10A8B000B37B0133B373AB7B013BAB7300F018FA8E
:10A8C0000446854210D00125384600F011FC6DB9D0
:10A8D000002011E0EB72284600F022FADBE71A466E
:10A8E00019461846FFF7C2F80025EDE7204600F0AC
:10A8F00005FA002000E00920F8BD0320FCE7052050
:10A90000FAE70520F8E700BF34390020364B1B6812
:10A91000002B65D02DE9F04105460F46002861D097
:10A9200000F0E0FB804600F017F90446EA889AB18F
:10A93000AB6883421DD01FB3D97AC27A914224D822
:10A94000286860B30346002123B3E67ADA7A964298
:10A9500020D31946DB6CF7E7A860C37A6B71837B61
:10A96000013383730123EB80404600F0C1FB0020DC
:10A9700032E00132EA80404600F0BAFB00202BE0D2
:10A98000404600F0B5FB062026E0DA72A86800F029
:10A99000C7F9D5E719B1CB6CE364CC6401E0E0649E
:10A9A0002C60E561637B43F0040363733946204602
:10A9B00000F0DEF8404600F09BFB002000F09EF91E
:10A9C00000F090FB637B23F00403637300F090FBC3
:10A9D000AB68A34202D00620BDE8F0810020FBE76F
:10A9E000092070470320F7E73439002008B5054BEC
:10A9F000186800B908BD4FF0FF310348FFF786FF24
:10AA0000F8E700BF343900204839002008B5044B6E
:10AA1000186800B908BD0348FFF71CFFFAE700BF3C
:10AA2000343900204839002003460020186058605F
:10AA30009860D8601861704710B50446FFF7D6FFDC
:10AA400000B110BD034B1A6822611C60FFF7DEFFE6
:10AA5000F7E700BF2028002010B5FFF7C7FF10B9A7
:10AA6000174B1C680EE000231A4619461846FEF7DD
:10AA7000FDFF00F0CDFA236862681344C01A002875
:10AA80000DDC24698CB1A368002BF2D0E16820466C
:10AA900098470028EDD100F0BBFA2060F1E70023D1
:10AAA0001A4619461846FEF7E1FFFFF7AFFF00B957
:10AAB00010BD00231A4619461846FEF7D7FF00BFFF
:10AAC0002028002008B50248FFF7BAFE08BD00BFE5
:10AAD00048390020037B012B01D00220704710B5BC
:10AAE000044600F0FFFA0F4B1B682BB1E17ADA7ACB
:10AAF000914201D35B6CF8E753B19A6CA264636432
:10AB00009A6C146044349C6400F0F2FA002010BD8A
:10AB100000236364034B5A68A264146044345C608D
:10AB2000F2E700BF0002002010B4C36B0133C3631F
:10AB3000064B1C68064B186806490B68C21AA36BC3
:10AB40001344A363086010BC704700BF5439002051
:10AB50006839002058390020014B1868704700BF41
:10AB600054390020014B1860704700BF5439002051
:10AB700038B504460D46436C83B1826C9A64A36C6D
:10AB8000626C1A600223237300F042FA2844606367
:10AB9000B5F1FF3F06D0184B1B6811E0826C174BD4
:10ABA0005A60ECE7637B43F0010363730023636443
:10ABB000114B5A68A264146044345C6011E05B6C11
:10ABC0003BB15A7B12F0010F03D15A6B121A002AC3
:10ABD000F5DD43B19A6CA26463649A6C14604434EA
:10ABE0009C64002038BD00236364034B5A68A26450
:10ABF000146044345C60F4E7080200200002002086
:10AC000008B5037B022B21D1C26962B113681BB363
:10AC1000834226D01A46DB6C8342FBD1DB6CD364C3
:10AC20000023C364C3610123037300234363437B95
:10AC300023F001034373436CB3B1826C9A64836C59
:10AC4000426C1A60FFF746FF002008BD00231A4639
:10AC500019461846FEF70AFF1A4619461846FEF727
:10AC600005FFDB6C1360DBE7826C014B5A60E6E7A3
:10AC70000802002070B500F0CBF9054600F032FA6A
:10AC800006460A4B186802E0FFF7BAFF204640B1BB
:10AC9000437B13F0010F04D1446C436BEB1A002B80
:10ACA000F2DA304600F024FA70BD00BF080200203E
:10ACB00010B5044600F01FFA50B10C4B1B687BB175
:10ACC0005A7B12F0010F0ED1586B001B06D410BD39
:10ACD00000231A4619461846FEF7C8FE0020F6E77C
:10ACE0004FF0FF30F3E74FF0FF30F0E708020020AD
:10ACF000014B1868704700BF0002002038B50446B9
:10AD000000F0F0F9054634B1204600F0E1F928469C
:10AD100000F0EEF938BDFFF7EBFF0446F4E7000062
:10AD200008B5037B012B00D008BD436C3BB1826C9E
:10AD30009A64836C426C1A60FFF7CCFEF4E7826C75
:10AD4000014B5A60F5E700BF00020020034618B12E
:10AD5000C18000201860704703207047F8B5174B7A
:10AD60001B683BB3044638B3FFF7F6FE074600F016
:10AD7000B9F90646256865B16B7B23F002036B7356
:10AD80002846FFF73DFFFA7AEB7A9A420BD8002467
:10AD900003E0E3880133E3800024304600F0A8F9A3
:10ADA0001CB90020F8BD0124F7E72846FFF7A6FFED
:10ADB0000020F7E70920F5E70320F3E73439002006
:10ADC000F8B52B4B1B68002B4DD004460F460028CE
:10ADD0004BD0FFF7C1FE054600F084F90646E38834
:10ADE0004BB1013BE38000242746304600F080F958
:10ADF00047BB2046F8BD17B3EC616B7B43F0020301
:10AE00006B73D4F800C0BCF1000F0ED06346002075
:10AE100033B1E97ADA7A914202D31846DB6CF7E76C
:10AE200018B1C36CEB64C56402E0C5F84CC0256082
:10AE300039462846FFF79CFE00240127D5E7062463
:10AE40000027D2E70020FFF759FF6C7B14F00204C3
:10AE5000CFD000F047F96B7B23F002036B7300F057
:10AE600047F90624C5E70924C3E70324C1E700BF67
:10AE70003439002000238B4204DA034A40F82320AF
:10AE80000133F8E7704700BFEFBEADDE2DE9F042B9
:10AE900004460D4617461E46BDF824905022002158
:10AEA00000F057FB6761A66100F01CF92B4B1E7880
:10AEB000721C1A7000F01CF9A6729DF81830E3722B
:10AEC0000123237325610023636304F120063046C8
:10AED000FFF7AAFD0546002833D1079BB3F1FF3FDA
:10AEE00005D063623046FFF7A7FD054648BB4946DB
:10AEF0000898FFF7BFFF089B03EB89016160A4F886
:10AF000008904A46204600F0FBF82060144B1B686E
:10AF10005BB1E17ADA7A914201D01B6CF8E7002349
:10AF20001A4619461846FEF7A1FD23640C4B5A68D1
:10AF3000146004F140025A602046FFF7CBFD05463D
:10AF400010B12846BDE8F082FEF756FE08B9054666
:10AF5000F7E70020FFF7D2FEF3E700BF64390020D7
:10AF60005C39002070B4114BA3FB00439B094FF4E4
:10AF70007A7606FB1300D1E90045E41845F1000597
:10AF8000C2E900458B6806FB00309060084B984290
:10AF900009DD611C45F1000311605360A0F57420C8
:10AFA000A0F51070906070BC704700BFD34D621068
:10AFB0003F420F0070B5041E0DDB00F093F805460C
:10AFC00011490A68A3180B6093EA020F09D42846B6
:10AFD00000F08EF870BD00231A4619461846FEF799
:10AFE00045FD0A4E314651F8084B1C1B0A462046C7
:10AFF000FFF7B8FF06F118010A462046FFF7B2FF37
:10B00000014B1B683360E2E76839002028280020E4
:10B01000014B1868704700BF6839002010B5041E46
:10B0200002DB002C06DC10BD00231A461946184628
:10B03000FEF71CFDFEF7E0FD20B9084B1868204420
:10B040001860F0E72046FFF7B5FFFEF701FFFFF7B6
:10B0500011FE0020FFF752FEE5E700BF683900202F
:10B0600000B9704738B5044600F03CF80546FFF7D4
:10B0700073FD2146FFF77CFD284600F039F80020DB
:10B08000FFF73CFE38BD000070B505460C4600F0E9
:10B0900029F8064645B1FFF7BBFF084951F8183BB0
:10B0A0002A46C01AFFF75EFF14B1044B986A20606D
:10B0B000304600F01DF8002070BD00BF2828002099
:10B0C00008600020704708B50120FFF7A7FF08BD02
:10B0D00008B5FFF729FD024B4FF080525A6008BDBA
:10B0E00000ED00E0EFF3108072B600F00100704751
:10B0F00000B962B67047EFF3108000F001007047AE
:10B1000070B506460D46A1F1400409230D2B04DC61
:10B11000002244F823200133F8E7204600F0C0F86D
:10B120004FF0807345F8043C736945F8083CB369F7
:10B1300045F8203C204670BD08B5044A536943F0E9
:10B1400010035361FEF75EFD08BD00BF00ED00E097
:10B15000F8B5EFF305840CB9002409E0072038E0C6
:10B1600004F1604505F56145FF2685F8006301346B
:10B17000EF2CF5D9194CA568194EEE62A568194E49
:10B18000AE63A568184EEE63A568184FAF60A5685A
:10B19000EF60A5682F61A5686F61A468A7610024AE
:10B1A00006E065B20D4EB668103546F825700134DC
:10B1B000512CF6DD094CF02584F822501025E57756
:10B1C000EFF3148414F0010F04D0DFF824C000DF83
:10B1D0000020F8BDFFF7B0FF0020FAE700ED00E027
:10B1E000A7B20008EDB2000817B3000823B30008A7
:10B1F00039B1000810B5FFF77BFD0446FFF7B2FC3C
:10B200002368203383F309880E214FF47A7003F00A
:10B2100095FB044B01221A602046FFF759FFA069F5
:10B2200010BD00BF3439002010B51548006804383F
:10B2300000F02CF8EFF30584ECB9EFF3148404F07C
:10B240000304022C0DD003D8012C0FD8082010BD08
:10B25000032C0BD10B4C246814F0010F06D10820ED
:10B26000F5E7084C246814F0010F06D1DFF818C088
:10B2700000DF0020EBE70720E9E70820E7E700BF51
:10B28000E038002058280020F5B1000880F3098834
:10B290002B480078023080F31488BFF36F8F70471B
:10B2A00080E8F00F7047EFF30980816911F8021C04
:10B2B00051B990E80F1010B5E047BDE81040EFF32A
:10B2C000098C8CE80700704710B51E4A126891423D
:10B2D00009D81D4C54F8214090E80F10A047EFF317
:10B2E000098C8CE80F00BDE810407047174B1A68B6
:10B2F000174B1968914208BF7047EFF3098C2CE98E
:10B30000F00FC1F800C01A60D2F800C0BCE8F00F1E
:10B310008CF30988704710B5FFF7D5FEBDE81040E3
:10B3200070471EF0040F0CBFEFF30883EFF309839F
:10B330002DE9F84F6846FEF7C7FBBDE8F84F7047A8
:10B340005828002000000000FCFFFFFF0002002042
:10B3500054390020012070477047426801F12003F2
:10B36000934216D830B44318846801254550521AC8
:10B370005A60002202604160D8609C60E360836094
:10B380000169196142695A614B611361103030BC27
:10B390007047002303604269036913615A611030EA
:10B3A0007047000010B40346C06899680268012A1B
:10B3B0000ED001221A60134A106918615A61136194
:10B3C0001A69536118460B68012B0BD010BC7047EB
:10B3D000426884189C42ECD15B681A4442608160E8
:10B3E000C860F0E74368C2188A42EFD14A68134444
:10B3F00043604A690B6913615A61CA688B6893603C
:10B40000DA60E3E71002002017291ED910B50446C0
:10B410000123036041600D4B1B689847A0B10C4BA2
:10B42000DB681A68022A03D0A34201D3DB68F8E77D
:10B430009A68A260E3609C60A368DC602046FFF726
:10B44000B1FF044B1B68984710BD704728020020CD
:10B45000100200202C02002038B5431E13F1120FF9
:10B4600025D81F3020F00F04134B1B68984700B3FA
:10B4700000250DE02146FFF770FF054695B92046EF
:10B4800001F09AFBB0F1FF3F0CD02146FFF7BCFF63
:10B490000A4B18690368022BF0D04368A342E9D233
:10B4A0000069F7E7064B1B689847284638BD00251A
:10B4B000FBE70025F9E700BF28020020100200206A
:10B4C0002C02002070B110B5A0F11004064B1B68CF
:10B4D000984700B910BD2046FFF764FF034B1B6877
:10B4E0009847F7E7704700BF280200202C02002091
:10B4F00070B44FF0000522F0030605E043594C59A3
:10B50000A34204D105F10405B542F7D10DE01BBA01
:10B5100024BA1B1B8CBF01234FF0FF3309E0435DAE
:10B520004C5D1B1B05D105F101059542F7D14FF08C
:10B530000003184670BC704701E08B588350043AF2
:10B54000FBD502F1040201E08B5C8354013AFBD588
:10B55000704710B40346541E1AB103F8011B22466B
:10B56000F9E710BC70470EB400B582B003AB53F8D6
:10B57000042B01936FF0004100F01EFB02B05DF858
:10B5800004EB03B0704710B4044622780134087805
:10B590000131101A01D1002AF7D110BC70470346BF
:10B5A0001A780AB10133FBE7181A70472DE9F04FFA
:10B5B00087B004460D46934653680493012600273E
:10B5C00032463B462046294606F0F0F99BF80380B8
:10B5D0004FF00009494508BF404505D308FB07F374
:10B5E000A6FB08671F44EBE74FF0000ACDF814B044
