:020000040800F2
:1000000000000320BD0100080902000809020008E1
:1000100009020008090200080902000800000000A7
:10002000000000000000000000000000E3220008C3
:1000300009020008000000002923000853230008DB
:100040000902000809020008090200080902000864
:100050000902000809020008090200080902000854
:100060000902000809020008090200080902000844
:100070000902000809020008090200080902000834
:100080000902000809020008090200080902000824
:100090000902000809020008090200080902000814
:1000A0000902000809020008090200080902000804
:1000B00009020008090200080902000809020008F4
:1000C00009020008090200080902000809020008E4
:1000D00009020008090200080902000809020008D4
:1000E00009020008090200080902000809020008C4
:1000F00009020008090200080902000800000000C7
:1001000009020008090200080902000809020008A3
:100110000902000809020008090200080902000893
:100120000902000809020008090200080902000883
:100130000902000809020008090200080902000873
:100140000902000809020008090200080902000863
:100150000902000809020008090200080902000853
:100160000902000809020008090200080902000843
:100170000902000809020008000000000000000059
:100180000902000809020008090200080902000823
:100190000902000809020008000000000000000039
:1001A0000000000000000000090200080902000829
:1001B000090200080902000809020008DFF830D02F
:1001C000002103E00B4B5B58435004310A480B4BB2
:1001D00042189A42F6D30A4A02E0002342F8043B4E
:1001E000084B9A42F9D300F011F800F03DF8FEE711
:1001F00000000320BC240008C0010020E001002012
:10020000E001002090030020FEE700000B4B1A687D
:10021000002142F001021A6099601A6822F0A85287
:1002200022F410221A604FF48052DA601A6822F425
:1002300080221A60996100F003B800BF00100240EC
:10024000064B07498B4206D000228858985004324A
:10025000B2F5C47FF9D1034A9360704700000020D3
:100260000000000800ED00E0002108B5084600F09D
:1002700003F800F069F9704708B500F071F8024B17
:100280001869203000F094F91424000870B500209B
:10029000BCB000F017FF044628B100231A461946E7
:1002A000184601F083FF00F0F3FE2C4AD2F890309C
:1002B00023F01803C2F89030182660230125089413
:1002C0000D940E9302243C230DEB0600CDE90B5553
:1002D000CDE91045CDE91334CDE9154406961295C4
:1002E00001F016F80028D8D103234FF00F0CCDE908
:1002F00001C303904FF48063052101A8CDE90433C5
:1003000001F068FA0028C8D146F2272317934FF06E
:10031000805337934FF4802330934FF08063CDE9BF
:1003200026002B902890349317A84FF08073CDE9C6
:100330001A64CDE91C44CDE918551E9301F06EFCFA
:1003400004460028A9D101F07FFE22464FF0C0618B
:10035000204600F04DFF3CB070BD00BF00100240D1
:1003600007B5FFF793FF124B0193124B009312490D
:1003700012480023012201F04BFF28B100231A4646
:100380001946184601F012FF0D4900F073F90246B4
:100390000028F3D10B4900F0DBF80028EED10A4821
:1003A00001F022FF0028E9D103B05DF804FB00BF93
:1003B00000240008E1040008F8230008E001002000
:1003C000002C0140C401002040420F0013B590F8FA
:1003D0003730846B019390F83630009390F83530C5
:1003E00090F83420016B601E00F0C8FB002818BF95
:1003F000022002B010BD806B08B5013800F0C0FCCF
:10040000002818BF022008BD37B50546806B14468A
:1004100020B903460246014601F0C8FE2AB3EB7E2E
:100420009B0725D4137985F83430D37985F8373094
:10043000937985F8363013682B63537985F8353016
:1004400053690093D2E90332A168013800F032FB0E
:1004500058B9E379A86B0193A37900932279637962
:100460002168013800F08AFB00B1022003B030BDE2
:100470000B20FBE708B500231A461946184601F081
:1004800095FE806B08B508B9FFF7F4FFBDE808409A
:10049000013800F05DBB806B08B508B9FFF7EAFFD3
:1004A000BDE80840013800F01BBB806B08B508B9F7
:1004B000FFF7E0FFBDE80840013800F02FBB70B542
:1004C0000C460546164601F0E7FE241A002C05DC12
:1004D00026B1A86B013800F053FC00B1022070BDBA
:1004E00070B5C569044628460E4601F059FF05441B
:1004F00015F8013CA3F13000092814D82F3BA36361
:100500000A4B23600A4BE3600A4B63600A4BA3600B
:100510000A4B63620A4BA3620A4BE362314600F066
:1005200021FC002070BD0220FCE700BF0904000888
:10053000F7030008BF040008CD030008AB0400085F
:10054000970400088304000808B500F019F80000BB
:1005500081B1012A0ED805280CDC084B53F8203055
:1005600043B1D96693F8641062F3000183F8641014
:10057000002070474FF0FF30704700BF5C24000838
:10058000BFF34F8F0549064BCA6802F4E06213437C
:10059000CB60BFF34F8F00BFFDE700BF00ED00E071
:1005A0000400FA050020704701F076BE0020704775
:1005B000036883F30888034A436800211160BFF38E
:1005C0004F8F184700000140EFF3108172B60368A7
:1005D0001A69D20707D5426802F5803242601A696B
:1005E00022F001021A615B6A4068184401B962B6E0
:1005F000704700002DE9F0411D4C23681B6913F082
:1006000001061EBF626802F5803262609B0729D531
:10061000174F46F002064FF00008A56835B138467E
:10062000FFF7D2FFEB68C01A00280BDAA268206837
:10063000B2B9114601F076FD2268D36823F00203B7
:10064000D3600FE0D5E9043243B15A616A6913609F
:10065000D5E90130C5F814809847DEE7E260F5E798
:10066000D36843632368F6431E61BDE8F08100BF91
:100670001C03002030B5022889B003DD4FF0FF30A5
:1006800009B030BDA44B53F82030002BF6D0002920
:10069000F4D01960A14B994200F0CD80B1F1804FA8
:1006A00000F0D180A3F59433994217D003F580630D
:1006B000994213D003F5806399420FD003F5943328
:1006C00099420BD003F54063994207D003F580634C
:1006D000994203D003F580639942CFD1002840F0BE
:1006E000AC808F4B99425CD18E4B8F48F02283F8BF
:1006F0001D238E4A9268C2F8B4004FF000521A606F
:100700008B4B9A6D42F002029A659B6D03F00203D7
:100710000293029B874B99425CD1824B8248F02224
:1007200083F81823814A9268C2F8A0004FF08072C3
:100730001A607F4B1A6E42F480321A661B6E03F405
:1007400080330593059B754B99425CD17A4A1369B6
:1007500043F400631361794B99425CD1764A936804
:1007600043F004039360764B99425CD1724A13695B
:1007700043F40033CCE06B4B6B48F02283F8192331
:100780006A4A9268C2F8A4004FF000721A60684B7F
:100790001A6E42F400621A661B6E03F40063009343
:1007A000009B664B994266D15E4B5F48F02283F80E
:1007B0001E235E4A9268C2F8B8004FF080421A6069
:1007C0005B4B9A6D42F004029A659B6D03F0040343
:1007D0000393039B5A4B99426FD1524B5248F022DC
:1007E00083F81923514A9268C2F8A4004FF00072AE
:1007F0001A604F4B1A6E42F400321A661B6E03F4F5
:1008000000330693069BB1F1804F70D14A4A93683A
:1008100043F0010393604B4B994271D1464A1369EF
:1008200043F400531361484B994272D1424A136911
:1008300043F480236CE000289DD000231A4619461B
:10084000184601F0B3FC0028F7D1364B3648F022A9
:1008500083F81C23354A9268C2F8B0004FF08052EA
:100860001A60334B9A6D42F001029A659B6D03F05A
:1008700001030193019B334B99427FF44BAF294B0A
:100880002A48294AF02483F82E438568C5F8F820C1
:100890004FF480455D6083F82C438068C0F8F020F9
:1008A0004FF480525A60224B1A6E42F400521A667C
:1008B0001B6E03F400530493049B234B99427FF473
:1008C00042AF184B1848F02283F81A23174A92684F
:1008D000C2F8A8004FF080621A60154B1A6E42F4FD
:1008E00080221A661B6E03F480230793079B0C4B30
:1008F00099427FF430AF104A936843F0020393604B
:100900000C4B99427FF42FAF0B4A136943F48033A9
:1009100013610020B4E600BF74240008002C0140DD
:100920000004004000E100E0F505000800ED00E0F3
:100930000010024000400140002004E00008004098
:1009400000440140003401400048014030B5022815
:1009500087B00C4603DD4FF0FF3007B030BD244BAD
:1009600053F82050002DF6D02868224B98421ED014
:10097000B0F1804F1BD0A3F59433984217D003F504
:100980008063984213D003F5806398420FD003F53B
:10099000943398420BD003F54063984207D003F597
:1009A0008063984203D003F580639842D3D101F06D
:1009B000C7FBB0FBF4F0B0F5803FCCD20024CDE90A
:1009C000044400904FF6FF732868029304230394B5
:1009D000019403600123C360694601F03DFB2B686D
:1009E0001C611A6842F001021A602046B5E700BF98
:1009F00074240008002C0140254A02EBC001F8B520
:100A00004B6852F83040013325684B60EF69BE06F1
:100A100010D5AE8CA3686069F6B2314698470028BD
:100A200008DA2B6823F020032B602379667143F0EA
:100A30000203237117F0C00F22D038062E680FD59D
:100A4000E368606998470028BDBF237926F08006D7
:100A500043F0040380B2BABF46F0400623712885F4
:100A6000237959070BD57A0609D523690BB160693B
:100A7000984723796FF38203237126F040062E6096
:100A80003B0742BF2B6A43F008032B62F8BD00BF4F
:100A90001C0200200020FFF7AFBF0120FFF7ACBF12
:100AA0000220FFF7A9BF0320FFF7A6BF0420FFF72E
:100AB000A3BF0000022830B50DDC084C1C2505FB47
:100AC0000044207910F0010005D1C4E90231039BF4
:100AD0002261636130BD4FF0FF30FBE7440200202C
:100AE000F8B50D4E1C254543741923799B0712D583
:100AF000EFF3108772B6A36861796069984740B9CF
:100B00002379725960F341032371136843F0200382
:100B1000136007B962B6F8BD4402002010B5EFF3C8
:100B2000108472B61C23094A5843111813581A68C6
:100B300022F040021A601A6842F080021A600B79B3
:100B40006FF382030B7104B962B610BD440200203A
:100B500002280FDC1C23084A584313181B79DB07B3
:100B600008D51358DA691006FCD589B21985DA69F7
:100B70005206FCD5704700BF440200202DE9F84F13
:100B800002289DF828C09DF82CB00546884600F341
:100B9000C880654F1C2101FB00710879C00700F176
:100BA000C0808C692CB900231A461946184601F0FA
:100BB000FDFA21685D4ED1F800E048688968082A8E
:100BC0000EEA060620F4405903D0092AEBD146F478
:100BD0008056012B04D0022B40F0A38049F4005929
:100BE000BCF1010F61D0BCF1020F61D0BBF1010F6C
:100BF00021F4407A09D194F90E30002B4AF4407A5E
:100C0000D1DB94F90F30002BCDDB6268A16813684B
:100C10000B43136000231A46217C94F90C0000F06A
:100C200045F90023217C94F90D001A4600F03EF9A5
:100C3000BBF1010F46F00C060DD100231A46217CB2
:100C400094F90E0000F032F90023217C94F90F0092
:100C50001A4600F02BF92368354A4FF01C0B0BFBAA
:100C600005FB934247F80B30C3F808A0C3F8049083
:100C70001E604FEA58061ED100F0BAFE57F80B303E
:100C80008119B1FBF8F1D9601C236B43F858838CB0
:100C9000C36994F91130272B3DD00FDC252B15D0DB
:100CA000262B80D1234A244912E046F4C0669DE7F2
:100CB00046F480669AE700F08BFEDFE7342B2DD0F8
:100CC000352B7FF470AF1D4A1D4901E01D4A1E49B6
:100CD0001C2404FB05740C601C4903F11004896892
:100CE000002B41F8242008DB5909012203F01F03DF
:100CF00002FA03F3164A42F82130036843F0210355
:100D000003601C2000FB057500202B7943F00103D4
:100D10002B71BDE8F88F0F4A0F49D9E70F4A1049E8
:100D2000D6E74FF0FF30F4E744020020FB69FFEF05
:100D3000003801409B0A000824020020AD0A000888
:100D40003C020020950A00081C02002000ED00E093
:100D500000E100E0A10A00082C020020A70A000818
:100D6000340200200228DFBF044B1C2202FB0030AB
:100D70008161D4BF00204FF0FF3070474402002053
:100D800002280BDC074A1C235843131819796FF308
:100D90000001197113580020186070474FF0FF30A0
:100DA000704700BF440200200138324B8AB0072848
:100DB00005D8DFE800F00F19232D37414B55DA6CC9
:100DC00042F00102DA64DB6C03F001030193019B42
:100DD0000AB07047DA6C42F00202DA64DB6C03F0AE
:100DE00002030293029BF3E7DA6C42F00402DA6436
:100DF000DB6C03F004030393039BE9E7DA6C42F036
:100E00000802DA64DB6C03F008030493049BDFE759
:100E1000DA6C42F01002DA64DB6C03F01003059325
:100E2000059BD5E7DA6C42F02002DA64DB6C03F054
:100E300020030693069BCBE7DA6C42F04002DA64AB
:100E4000DB6C03F040030793079BC1E7DA6C42F0C9
:100E50008002DA64DB6C03F080030893089BB7E739
:100E6000DA6C42F48072DA64DB6C03F48073099309
:100E7000099BADE70010024010B5C0F30314082C25
:100E80000FDC00F00F03012000FA03F30B60204693
:100E9000FFF78AFF044B53F8240000F017F80020F6
:100EA00010BD4FF0FF30FBE7802400087FB5002B1A
:100EB0000CBF02231223CDE902320323CDE9043112
:100EC00001A9FFF7D9FF07B05DF804FB2DE9F04F4A
:100ED000DFF8B4816A4CDFF8B49185B000230A686A
:100EE00032FA03F502D105B0BDE8F08F01279F402B
:100EF0003A4000F0B4804D6825F0100ABAF1020FB4
:100F000016D14FEAD30E00EB8E0E03F0070BDEF87E
:100F100020604FEA8B0B4FF00F0C0CFA0BFC26EA0B
:100F20000C0C0E6906FA0BF646EA0C06CEF82060A9
:100F3000D0F800B04FEA430E4FF0030C0CFA0EFC51
:100F40006FEA0C062BEA0C0B05F0030C0CFA0EFCF6
:100F50000AF1FF3A4CEA0B0CBAF1010F0196C0F806
:100F600000C015D8D0F808C006EA0C0CCE6806FA06
:100F70000EFA4AEA0C0CC0F808C0D0F804C02CEAFB
:100F80000707C5F3001C0CFA03FC4CEA070747608F
:100F9000C768019E37408E6806FA0EF63E43C6606B
:100FA000EE005CD5D8F8606046F00106C8F86060D5
:100FB000D8F8606023F0030707F1804706F00106C8
:100FC00007F58037039603F0030C039ED7F808A0BB
:100FD0004FF00F0E4FEA8C0C0EFA0CF6B0F1904F5A
:100FE0002AEA060E3DD0274EB0423CD006F5806678
:100FF000B0423AD006F58066B04238D006F5806639
:10100000B04236D006F58066B04234D0484534D080
:1010100006F50066B0420CBF0726082606FA0CF655
:1010200046EA0E06BE602668D74315F4803F0CBF23
:101030003E4016432660666815F4003F0CBF3E40F4
:1010400016436660A66815F4801F0CBF3E40164329
:10105000A660E668AD0254BF3E401643E660013329
:101060003DE70026DAE70126D8E70226D6E7032681
:10107000D4E70426D2E70526D0E70626CEE700BF50
:10108000000401400004004800100240001800481D
:10109000024A136843F48073136070470070004085
:1010A000074B186800F4C060B0F5806F06D0D3F825
:1010B000800010F4807018BF4FF40070704700BFBC
:1010C00000700040284B1A6828BB02F4C062B2F5D9
:1010D000806FD3F8802022F48072C3F8802019D169
:1010E0001A68224922F4C06242F400721A60204A4F
:1010F0001268B2FBF1F132224A4312B15969490533
:1011000004D45B69580503D400207047013AF4E722
:10111000032070477047B0F5007F1ED102F4C06213
:10112000B2F5806FD3F8802042F48072C3F880203B
:10113000EAD11A680D4922F4C06242F400721A60C2
:101140000B4A1268B2FBF1F132224A43002AD8D08E
:1011500059694905D5D5013AF8E722F4C06242F44D
:1011600080621A60D0E700BF0070004040420F006C
:10117000C001002037B51C4DAB6DDA00044618D510
:10118000FFF78EFFB0F5007F23D1802C28D9A02C4B
:101190008CBF0224012415490A6822F00F02224361
:1011A0000A60086800F00F00001B18BF012003B0A0
:1011B00030BDAB6D43F08053AB65AB6D03F0805336
:1011C0000193019BFFF76CFFAB6D23F08053AB6580
:1011D000D8E77F2C06D8A4F170035C425C41DAE7C3
:1011E0000024D8E70224D6E7001002400020024085
:1011F00070B5124CE36C43F00103E364E36C86B01A
:1012000003F001030093009B164602234FF4807203
:10121000CDE901230D46049301A900234FF090402E
:1012200003930593FFF752FEA36823F0FE4343EABE
:1012300006022A43A26006B070BD00BF0010024043
:101240002F4B9A6812F00C0F10B509D09A6802F073
:101250000C020C2A2ED1DA6802F00302012A29D1ED
:101260001A682849120755BFD3F894201A68C2F3A8
:101270000322C2F3031251F82220996811F00C0FD7
:101280000CBF10460020996801F00C010C2931D1E7
:10129000DC68D86804F00304C0F30310022C00F1EA
:1012A000010119D0032C26D0B2FBF1F2D868C0F3AB
:1012B000062017E09A6802F00C02042A07D09A6808
:1012C00002F00C02082A04D10F480022DBE70F4885
:1012D000FBE700200246D6E7DA680C48C2F3062294
:1012E000B0FBF1F0DB68C3F34163013350435B00B3
:1012F000B0FBF3F010BDDA680348C2F30622EFE753
:1013000000100240C823000800127A000024F400F4
:101310002DE9F341044608B901208DE00368D806A1
:1013200038D5AB4DAB6813F00C0F61D12B68990722
:1013300002D5A369002BEFD02B68206A1A0756BF8D
:10134000D5F894302B681B0903F0F00398423AD982
:10135000FFF710FF0028DFD12B6843F008032B6054
:101360002B68226A23F0F00313432B606B68E26959
:1013700023F47F4343EA02236B60FFF761FFAB680E
:10138000944AC3F30313D35CD840934B18600F20E7
:10139000FFF70CF92368DE0761D423689D0700F18D
:1013A000A9802368190700F1E78023685A0700F134
:1013B00015812368990600F17C81A26A002A40F019
:1013C000A381002038E02B6843F008032B602B68D2
:1013D00023F0F00303432B606B68E26923F47F433F
:1013E00043EA02236B60FFF7C5FE0028C5D093E7F0
:1013F000A36923B32B6843F001032B60FFF7D4F8F4
:1014000006462B689B0711D52B6843F008032B6019
:101410002B68226A23F0F00313432B606B68E269A8
:1014200023F47F4343EA02236B60B3E7FFF7BCF882
:10143000801B0228E5D9032002B0BDE8F0812B68AB
:1014400023F001032B60FFF7AFF806462B689F07D8
:10145000A0D5FFF7A9F8801B0228F7D9EBE75C4D70
:10146000AB6803F00C03082B09D0AB6803F00C0346
:101470000C2B0BD1EB6803F00303032B06D12B6875
:1014800098038AD56368002B87D145E76368B3F575
:10149000803F10D12B6843F480332B60FFF784F832
:1014A00006462B6899033FF578AFFFF77DF8801B60
:1014B0006428F6D9BFE7B3F5A02F04D12B6843F415
:1014C00080232B60E6E72A6822F480322A602A68AB
:1014D00022F480222A60002BE0D1FFF765F806464F
:1014E0002B689A037FF559AFFFF75EF8801B6428DD
:1014F000F6D9A0E7364DAB6803F00C03042B09D0F6
:10150000AB6803F00C030C2B13D1EB6803F003035F
:10151000022B0ED12B685B0503D5E368002B3FF44B
:10152000FBAE6B68226923F0FE4343EA02636B6003
:1015300037E7E3687BB12B6843F480732B60FFF7D8
:1015400033F806462B685F05EBD4FFF72DF8801BB8
:101550000228F7D96FE72B6823F480732B60FFF71D
:1015600023F806462B6858057FF51BAFFFF71CF8DC
:10157000801B0228F6D95EE76369154D9BB1D5F84B
:10158000943043F00103C5F89430FFF70DF8064698
:10159000D5F894309B073FF508AFFFF705F8801B9F
:1015A0000228F5D947E7D5F8943023F00103C5F8B0
:1015B0009430FEF7F9FF0646D5F894309F077FF583
:1015C000F4AEFEF7F1FF801B0228F5D933E700BF28
:1015D00000100240B0230008C00100207B4DAB6D1D
:1015E000D80027D4AB6D43F08053AB65AB6D03F0EF
:1015F00080530193019B0127754E3368D9051BD594
:10160000A368012B29D1D5F8903043F00103C5F828
:101610009030FEF7C9FF41F288380646D5F8903081
:101620009B0740D5002F3FF4C4AEAB6D23F0805331
:10163000AB65BEE60027DFE7336843F480733360B1
:10164000FEF7B2FF80463368DA05D9D4FEF7ACFF67
:10165000A0EB08000228F6D9EDE6052B06D1D5F857
:10166000903043F00403C5F89030CCE7D5F89020D3
:1016700022F00102C5F89020D5F8902022F0040253
:10168000C5F89020002BC4D1FEF78EFF41F28838B8
:101690000646D5F890309807C4D5FEF785FF801B25
:1016A0004045F6D9C7E6FEF77FFF801B4045B5D918
:1016B000C1E6636A454D9BB1D5F8983043F001030C
:1016C000C5F89830FEF770FF0646D5F898309A07AF
:1016D0003FF573AEFEF768FF801B0228F5D9AAE636
:1016E000D5F8983023F00103C5F89830FEF75CFF79
:1016F0000646D5F898309B077FF55FAEFEF754FF9E
:10170000801B0228F5D996E6304DAB6803F00C0338
:101710000C2B3FF401AE2B68022A23F080732B6060
:1017200036D1FEF741FF06462B689F012AD4D4E943
:101730000D23DB0643EA0223E26A1343226B013ADC
:1017400043EA0213E26B5208013A43EA4253226C25
:101750005208013A43EA4263EB602B6843F080731E
:101760002B60EB6843F08073EB60FEF71DFF0446CF
:101770002B6898013FF525AEFEF716FF001B0228E7
:10178000F6D958E6FEF710FF801B0228CCD952E6A6
:101790002B68190106D42B689A005EBFEB6823F012
:1017A0000303EB60EB6823F0887323F48033EB6072
:1017B000FEF7FAFE04462B689B017FF502AEFEF7AA
:1017C000F3FE001B0228F6D935E600BF00100240E8
:1017D000007000402DE9F8430E46054610B901207F
:1017E000BDE8F883724A136803F00F038B4232D3CB
:1017F000296811F0010739D129688A0740F1BC80B6
:101800006C4AA868936823F0F00303439360684A26
:10181000136803F00F03B34200F2B68011F0040F17
:10182000644C40F0BD800B0706D5A3682A6923F4F9
:10183000605343EAC203A360FFF702FDA3685E4A58
:10184000C3F30313D35CD8405C4B18600F20FEF742
:10185000ADFE0020C4E7136823F00F030B431360B1
:10186000136803F00F038B42B9D1C1E76B68514C89
:10187000032B6BD123689F01B1D5E36803F0030309
:10188000012B1FD123684E4A180755BFD4F8943056
:101890002368C3F30323C3F3031352F82320E76839
:1018A000E36807F00307C3F30313022F03F10100FA
:1018B0000AD0032F35D0B2FBF0F3E768C7F3062751
:1018C0007B4308E00022EAE7E2683E4BC2F30622CF
:1018D000B3FBF0F35343E268C2F3416201325200BA
:1018E000B3FBF2F3384A934220D80027A3686A6812
:1018F00023F003031343A360FEF756FE41F2883939
:101900008046A3686A6803F00C03B3EB820F3FF4D0
:1019100073AFFEF749FEA0EB08004845F1D903205C
:101920005EE7E268294BC2F30622D1E7890701D5B9
:10193000AB681BB1A36813F0F00FD6D1A36823F0F6
:10194000F00343F08003A3608027CFE7022B0AD186
:10195000236813F4003F3FF442AFFFF771FC1A4BCA
:101960009842C2D9EAE71BB9236813F0020FF2E7E5
:10197000236813F4806FEEE7802F7FF448AF0D4AA1
:10198000936823F0F00341E7136823F00F03334318
:101990001360136803F00F03B3427FF420AF3DE7F9
:1019A000A368EA6823F4E0631343A3603BE700BF46
:1019B0000020024000100240B0230008C0010020B7
:1019C000C82300080024F40000B4C40400127A0004
:1019D000044B054A9B68C3F30223D35C034A106897
:1019E000D840704700100240C0230008C00100200A
:1019F000044B054A9B68C3F3C223D35C034A1068B7
:101A0000D840704700100240C0230008C0010020E9
:101A10000F2303600B4B9A6802F0030242609A683E
:101A200002F0F00282609A6802F4E062C2609B6891
:101A3000DB0803F4E0630361034B1B6803F00F034F
:101A40000B6070470010024000200240F8B53C4B8C
:101A5000DA6812F0030F05460F4600681C4622D0D4
:101A6000DB6803F00303834230D17BB3236823F0A8
:101A700080632360FEF798FD064623681A012ED482
:101A8000AB681E026B68013B18017FB3012F46D182
:101A90002B6927695B08591E2A4B3B40334303439C
:101AA00043EA41532AE002280CD0032810D0012831
:101AB0000CD11B689E0718D5E36823F00303184375
:101AC000E060D3E71B6813F4806FF5D101200CE0D0
:101AD0001A689103F0D41B6813F4802FF5E7FEF722
:101AE00063FD801B0228C8D90320F8BDE96822697C
:101AF00046EAC163144911400B4303432361236841
:101B000043F080632360FEF74FFD064623681B0108
:101B100010D52369AA69134323610020E5E76B69A7
:101B200021695B085A1E094B0B403343034343EAC8
:101B30004263E3E7FEF738FD801B0228E6D9D3E7CE
:101B4000001002400F809FFF0F80FF070F80FFF9FA
:101B5000304BDA6812F0030F70B505461C4600687A
:101B600026D0DB6803F00303834234D1002B32D04C
:101B7000236823F080532360FEF716FD0646236892
:101B80009A0031D4D5E90223DB06616943EA0223D6
:101B9000214A0A4013436A68013A43EA0213636127
:101BA000236843F080532360FEF7FEFC064627E0DF
:101BB00002280CD0032810D001280CD11B689E07E6
:101BC00018D5E36823F003031843E060D0E71B68EF
:101BD00013F4806FF5D101200CE01A689103F0D462
:101BE0001B6813F4802FF5E7FEF7DEFC801B02284C
:101BF000C5D9032070BDFEF7D7FC801B0228F8D89A
:101C000023689B00F7D56369AA69134363610020C9
:101C1000F0E700BF001002400F80FF072DE9F347F7
:101C2000066816F40066044607D0C16E402922D02B
:101C300012D831B320292BD001262368DB0409D523
:101C4000216FB1F5007F2FD026D899B3B1F5807FF1
:101C500073D0012635463CE0602901D08029EBD1C4
:101C60003B4AE16ED2F89C3023F0E0030B43C2F80C
:101C70009C300026E1E7364AD36843F48033D360D2
:101C8000EEE70430FFF7E2FE06460028D5D1E7E78D
:101C90002030FFF75DFFF7E7B1F5407F02D0B1F5E7
:101CA000806FD6D1354609E0294AD36843F48033A2
:101CB000D360F7E7201DFFF7C9FE0546002D41D18F
:101CC000234A216FD2F89C3023F4E0630B43C2F81F
:101CD0009C3023689F0340F17D811D4FBB6DD80070
:101CE00032D4BB6D43F08053BB65BB6D03F08053B2
:101CF0000193019B4FF00108DFF85890D9F80030AC
:101D000043F48073C9F80030FEF74EFC8246D9F8E0
:101D10000030D90520D535BBD7F8903013F4407387
:101D200040F02E81D7F89030D4F8902023F44073FF
:101D30001343C7F89030354615E004F12000FFF753
:101D400007FFBAE72E46C4E74FF00008D4E700BF0C
:101D50000010024000700040FEF726FCA0EB0A00D5
:101D60000228D4D90325B8F1000F03D0BB6D23F0AE
:101D70008053BB652368D80708D5B249E06BD1F81A
:101D8000882022F003020243C1F88820990708D571
:101D9000AC49206CD1F8882022F00C020243C1F833
:101DA00088205A0708D5A749606CD1F8882022F00E
:101DB00030020243C1F888201F0708D5A149A06C52
:101DC000D1F8882022F0C0020243C1F88820DE0644
:101DD00008D59C49E06CD1F8882022F44072024377
:101DE000C1F88820980608D59649206DD1F888203A
:101DF00022F440620243C1F88820990508D5914930
:101E0000606ED1F8882022F440220243C1F8882075
:101E10005A0508D58B49A06ED1F8882022F44012CB
:101E20000243C1F888205F0608D58649606DD1F865
:101E3000882022F440520243C1F888201E0608D5AB
:101E40008049A06DD1F8882022F440420243C1F8B5
:101E50008820D80508D57B49E06DD1F8882022F488
:101E600040320243C1F88820D90208D57549206E56
:101E7000D1F89C2022F003020243C1F89C209A046E
:101E800010D5704A616FD2F8883023F040630B435D
:101E9000B1F1006FC2F8883040F09E80D36843F4FF
:101EA0008013D36023681B030FD5A16F654BB1F579
:101EB000804FD3F89C2040F09B8042F48042C3F8CE
:101EC0009C20DA6842F48032DA6023685F0310D520
:101ED0005C4AE16FD2F8883023F040630B43B1F1E4
:101EE000006FC2F8883040F0A180D36843F48013BB
:101EF000D36023685E0413D55249D4F88020D1F80A
:101F0000883023F040531343B2F1805FC1F888302A
:101F100006D10221201DFFF799FD002818BF0546B4
:101F20002268D00309D54749D4F88400D1F89C3001
:101F300023F004030343C1F89C30910209D54149C1
:101F4000D4F88800D1F89C3023F018030343C1F87B
:101F50009C30D30110D53B4AD4F88C10D2F89C3079
:101F600023F440130B43C2F89C30B1F5001F02BFAD
:101F7000D36843F48013D360284602B0BDE8F087ED
:101F8000D4F890209A423FF4CDAED7F89020D7F8FD
:101F9000903043F48033C7F89030D7F8903022F473
:101FA000407123F48033D207C7F89030C7F89010FF
:101FB0007FF5B8AEFEF7F8FA41F288390546D7F852
:101FC00090309B073FF5AEAEFEF7EEFA401B48455A
:101FD000F5D9C7E63546CDE6B1F1806F7FF462AF43
:101FE0000121201DFFF732FD002818BF054659E7E3
:101FF00022F48042C3F89C20D3F8882022F040626B
:102000000A43B1F1006FC3F8882003D1DA6842F4C3
:10201000801259E7B1F1806F7FF457AF0121201D85
:10202000FFF714FD002818BF05464EE7B1F1806F99
:102030007FF45FAF0121201DFFF708FD002818BFC6
:10204000054656E700100240024A136843F00403B5
:102050001360704700100240304A0368904212D06B
:10206000B0F1804F0FD0A2F5943290420BD002F520
:102070008062904207D002F58062904203D002F560
:102080009432904219D14A6823F070031343234AD3
:1020900090421DD0B0F1804F1AD0A2F594329042F8
:1020A00016D002F58062904212D002F58062904212
:1020B0000ED002F5943290420AD0194A904207D0CD
:1020C00002F58062904203D002F58062904203D113
:1020D000CA6823F4407313434A6923F0800313430F
:1020E00003608B68C3620B6883620C4B98420FD00D
:1020F00003F5006398420BD003F54063984207D084
:1021000003F58063984203D003F58063984201D1C0
:102110000B69036301234361704700BF002C01403A
:1021200000400140036A01F01F0110B501248C40FA
:1021300023EA04030362036A8A401A43026210BD61
:1021400010B586B00446694601A8FFF761FC144B40
:102150009C4217D00AD8A3F592339C421BD024F49A
:102160008064B4F1804F16D0002010E00D4B9C42EB
:1021700008D00ED8A3F580539C4203D003F54063EA
:102180009C42F1D1FFF734FC059B03B1400006B03F
:1021900010BD054BF4E7FFF71BFC049BF5E700BF00
:1021A000002C0140004401400048014008B500F007
:1021B00084F800BEFEF7F6F900B100BE034B4FF005
:1021C00000425A60BFF36F8FFEF7DAF900ED00E0CE
:1021D00008B5044B5A685A68DA6A9A6A9A6B5B6B5C
:1021E000FEF7CEF900ED00E001460020FEF7AEBBA1
:1021F00010B5D0E9043104469847E37E20B113F0CE
:10220000080F08BF002010BD43F00103E376FAE792
:102210002DE9F04143769846069B03610025079B14
:10222000C161027643611746458310222946044660
:1022300000F0AEF8164B1E681A4666B9224642F800
:10224000206FC3E90042134B1868F0B12046BDE887
:10225000F041FFF7CDBF3046037E9F4210D302D13D
:10226000437E43450CD8036A05463BB92B6A23627B
:1022700013B904F1200353602C62E4E71846EBE73E
:10228000002DF3D126621460DDE7BDE8F08100BFC8
:102290009802002084030020014B1868704700BF9B
:1022A0002C030020024A136803441360704700BFE8
:1022B0002C0300200120FFF7F5BFEFF3108072B66A
:1022C00000F001007047000080F309882B48007877
:1022D000023080F31488BFF36F8F704780E8F00FEF
:1022E0007047EFF30980816911F8021C51B990E839
:1022F0000F1010B5E047BDE81040EFF3098C8CE8F3
:102300000700704710B51E4A1268914209D81D4C4B
:1023100054F8214090E80F10A047EFF3098C8CE8A7
:102320000F00BDE810407047174B1A68174B19682B
:10233000914208BF7047EFF3098C2CE9F00FC1F808
:1023400000C01A60D2F800C0BCE8F00F8CF3098816
:10235000704710B5FFF7AEFFBDE8104070471EF0A4
:10236000040F0CBFEFF30883EFF309832DE9F84F57
:102370006846FFF72DFFBDE8F84F7047A002002028
:1023800000000000FCFFFFFFD801002088030020B0
:1023900002440346934200D1704703F8011BF9E75A
:1023A00003461A46013311780029FAD1101A7047F2
:1023B00000000000000000000102030406070809F5
:1023C0000000000001020304A0860100400D03008C
:1023D000801A060000350C0040420F0080841E0069
:1023E00000093D0000127A000024F40000366E015E
:1023F0000048E801006CDC02756172743200000074
:102400000048004058100240000004003839FFFF27
:10241000072700000000000000000000004000004E
:10242000010000000080000000A003000200000086
:102430000020040000A003000300000000C007000B
:1024400000100000100000000040000000400000EC
:102450001100000000D0070000300000A40200209E
:10246000000000000000000000000000000000006C
:10247000000000001C03002000000000000000001D
:10248000000000480004004800080048000C004814
:10249000001000480014004800180048001C0048C4
:1024A0000020004824FEFF7F0100000030FEFF7F77
:1024B000B0B0B0802EFEFF7F0100000000093D009B
:1024C00000000000050000000B0000000C000000F0
:1024D0000200000000000000D8010020FFFFFFFF05
:1024E000FFFFFFFFFFFFFFFFFFFFFFFFFFFFFFFFFC
:1024F000FFFFFFFFFFFFFFFFFFFFFFFFFFFFFFFFEC
:10250000FFFFFFFFFFFFFFFFFFFFFFFFFFFFFFFFDB
:10251000FFFFFFFFFFFFFFFFFFFFFFFFFFFFFFFFCB
:103FF000FFFFFFFFFFFFFFFF080002FF69A2B23BC8
:10400000FFFFFFFFFFFFFFFFFFFFFFFFFFFFFFFFC0
:10401000FFFFFFFFFFFFFFFFFFFFFFFFFFFFFFFFB0
:10402000FFFFFFFFFFFFFFFFFFFFFFFFFFFFFFFFA0
:10403000FFFFFFFFFFFFFFFFFFFFFFFFFFFFFFFF90
:108000003DB8F39600000000200000002C52000054
:10801000000000000000000001000000000000005F
:1080200000000320DD810008298200082982000861
:108030002982000829820008298200080000000027
:108040000000000000000000000000003F97000852
:10805000298200080000000085970008AF970008FB
:108060002982000829820008298200082982000844
:108070002982000829820008298200082982000834
:108080002982000829820008298200082982000824
:108090002982000829820008298200082982000814
:1080A0002982000829820008298200082982000804
:1080B00029820008298200082982000829820008F4
:1080C00029820008298200082982000829820008E4
:1080D00029820008298200082982000829820008D4
:1080E00029820008298200082982000829820008C4
:1080F00029820008298200082982000829820008B4
:1081000029820008298200082982000829820008A3
:108110002982000829820008298200080000000046
:108120002982000829820008298200082982000883
:108130002982000829820008298200082982000873
:108140002982000829820008298200082982000863
:108150002982000829820008298200082982000853
:108160002982000829820008298200082982000843
:108170002982000829820008298200082982000833
:108180002982000829820008298200082982000823
:108190002982000829820008000000000000000079
:1081A0002982000829820008298200082982000803
:1081B0002982000829820008000000000000000059
:1081C0000000000000000000298200082982000849
:1081D000298200082982000829820008DFF830D0AF
:1081E000002103E00B4B5B58435004310A480B4B12
:1081F00042189A42F6D30A4A02E0002342F8043BAE
:10820000084B9A42F9D300F011F800F045F8FEE768
:10821000000003200CD20008C00100200002002052
:10822000000200208C250020FEE7000008B50C4B62
:108230001A6842F001021A60002199601A6822F05F
:10824000A85222F410221A604FF48052DA601A68A1
:1082500022F480221A60996100F004F808BD00BF82
:1082600000100240094A0A4B9A420AD0002306E055
:10827000074A52F82310054A42F823100133612BB4
:10828000F6DD024A034B9A60704700BF00000020F1
:108290002080000800ED00E008B5034800F00AFB6C
:1082A00000F064FB08BD00BFC982000870470000F1
:1082B00008B5252000F002F941F28831014800F0AC
:1082C000ABFB08BD0002002008B501F0CFFF00F0B5
:1082D0001DF801F0D1FF0021252000F0B5F800F0D5
:1082E000EBFC0146074C0023074A204600F068FBE0
:1082F00041F28831204600F08FFB00F0DDFC00F0F9
:10830000AEFCFAE700020020B182000808B500F0D8
:108310003BFB01F095FB01F083FF01F0E3FA01F074
:10832000D5FB01F0DFFE01F08BFD08BD00B58BB081
:1083300008286BD8DFE800F005121D28333E4954A9
:108340005F00354BDA6C42F00102DA64DB6C03F05B
:1083500001030193019B0BB05DF804FB2E4BDA6C1B
:1083600042F00202DA64DB6C03F002030293029B28
:10837000F1E7294BDA6C42F00402DA64DB6C03F0BB
:1083800004030393039BE6E7234BDA6C42F00802F5
:10839000DA64DB6C03F008030493049BDBE71E4BF9
:1083A000DA6C42F01002DA64DB6C03F01003059320
:1083B000059BD0E7184BDA6C42F02002DA64DB6CE4
:1083C00003F020030693069BC5E7134BDA6C42F0DB
:1083D0004002DA64DB6C03F040030793079BBAE7C3
:1083E0000D4BDA6C42F08002DA64DB6C03F0800340
:1083F0000893089BAFE7084BDA6C42F48072DA64AA
:10840000DB6C03F480730993099BA4E700231A46ED
:108410001946184600F04AF90010024010B5C0F3A2
:10842000031400F00F00012303FA00F039B11A46DB
:1084300081B2044B53F8240000F033F910BD002240
:10844000F6E700BF58CF000870B586B0C0F303163A
:10845000082E1DDC04460D463046FFF767FF29460F
:108460002046FFF7DBFF04F00F04012303FA04F4B6
:10847000019402930024039403230493059401A917
:10848000054B53F8260000F027F8204606B070BDD3
:108490004FF0FF30FAE700BF58CF000808B5C0F32F
:1084A000031200F00F000121814089B2024B53F802
:1084B000220000F0EFF808BD58CF000838B5054697
:1084C000FFF7ECFF441E18BF012421462846FFF7A2
:1084D000A5FF204638BD0000F0B482B0002236E08F
:1084E000072400E00024B4403C430235654E46F8C2
:1084F0002540654C2568DC4325EA03064F6817F4E0
:10850000803F01D043EA05065F4D2E606D6804EAA6
:1085100005064F6817F4003F01D043EA05065A4D9F
:108520006E60AD6804EA05064F6817F4801F01D03D
:1085300043EA0506544DAE60ED682C404E6816F4D3
:10854000001F01D043EA05044F4BDC6001320B6889
:1085500033FA02F400F09280012494402340F5D0D5
:108560004D68022D01D0122D10D1D608083650F8D2
:1085700026C002F00705AF000F25BD402CEA050C10
:108580000D69BD4045EA0C0540F82650D0F800C002
:1085900056000325B540EF432CEA050C4D6805F065
:1085A0000305B54045EA0C0505604D6805F1FF3C43
:1085B000BCF1010F03D9112D01D0122D10D1856806
:1085C00007EA050CCD68B54045EA0C0585604568AD
:1085D00025EA04044D68C5F3001595402543456020
:1085E000C46827408C68B4403C43C4604C6814F0B5
:1085F000805FABD0254C256E45F001052566246EC5
:1086000004F001040194019C9508AE1C1D4C54F823
:10861000267002F00304A6000F24B44027EA0407E2
:10862000B0F1904F3FF45EAF194CA0421AD004F560
:108630008064A04218D004F58064A04216D004F5EE
:108640008064A04214D004F58064A04212D004F5E6
:108650008064A04210D004F58064A0423FF440AF93
:10866000082440E701243EE702243CE703243AE7DC
:10867000042438E7052436E7062434E702B0F0BCCA
:10868000704700BF0000014000040140001002409C
:10869000000400480369194201D0012070470020FE
:1086A00070470AB1816170478162704708B57446AE
:1086B00005460E4600F086FE21460F4801F028F9D7
:1086C00000BE01F00BF98DB133462A4621460B4816
:1086D00001F01EF901F072FF00B100BE084B4FF02F
:1086E00000425A60BFF36F8F01F06AFF21460548D0
:1086F00001F00EF9EEE700BF7CCF0008B0CF000814
:1087000000ED00E0A0CF000800B583B0044601F002
:10871000E5F81B4D69682268C1F30801194801F0AA
:10872000F7F82068836842680168C06800901648BE
:1087300001F0EEF823690093E368A26861681348CA
:1087400001F0E6F8236A0093E369A26961691048C1
:1087500001F0DEF82068836942690169C069009010
:108760000C4801F0D5F86968EA6AAB6A0A4801F07A
:10877000CFF8A96B6A6B094801F0CAF801F020FF35
:1087800000ED00E0C8CF0008FCCF000830D00008A2
:1087900064D0000898D00008CCD00008F4D00008BD
:1087A000F8B502F091F900250BE000F08BFB02F028
:1087B0008BF9254612E0002001F0E6FE304600F07D
:1087C00007FE154A13680133136000F0C3FD044629
:1087D00005F56A531833C31A002BE6DC00F0F2FDEE
:1087E000064600F0B7FD074600F098FC0446384600
:1087F00000F07CF9844228BF044605F56A5318331B
:10880000D81BA04228BF20466328D4D9034B9842E6
:10881000D2D90248D0E700BFE4240020C0270900D5
:1088200008B5034600210846984700231A46194612
:108830001846FFF73BFF0000014B1868704700BF68
:10884000E824002000B585B080230393154B0293E4
:108850004FF0FF330193FF2300930023124A134983
:10886000134800F0B5FC50B900F062FB68B947F25C
:10887000305002F0FFF870B905B05DF804FB00233A
:108880001A4619461846FFF711FF00231A461946E3
:108890001846FFF70BFF00231A4619461846FFF744
:1088A00005FF00BF20020020A187000810D10008AA
:1088B0009424002010B584B00446264B00221A6090
:1088C0005B60254B1A605B6000F0F6F900F058F928
:1088D00000F04EF900F0ACFD18BB94B14FF480638A
:1088E00003931E4B02934FF0FF3301937F230093BA
:1088F00023461B4A1B491C4800F06AFC10F0FF0F7E
:1089000015D101F0D7FD012000F01CF910F0FF0F88
:1089100013D1022000F016F910F0FF0F13D104B0AC
:1089200010BD00231A4619461846FFF7BFFE002364
:108930001A4619461846FFF7B9FE00231A4619468B
:108940001846FFF7B3FE00231A4619461846FFF7EC
:10895000ADFE00BFEC2400201025002020040020E4
:108960002188000818D100082014002008B502F062
:108970009DF800F0C9FD00B908BD00231A4619464C
:108980001846FFF793FE000008B50C4B1B7853B157
:10899000032000F0D7F810F0FF0F09D100F0F0F934
:1089A00000F040FA08BD1A4619461846FFF77EFE49
:1089B00000231A4619461846FFF778FE682500205E
:1089C000F8B504460D4617461E462022002100F049
:1089D0000DFF6760A6602561F8BD000038B504464C
:1089E00000F0F0FC0546E3693BB1A26972B1D361C6
:1089F000E369A2691A600023E361206910B121468E
:108A000000F039F9284600F0E3FC38BD014A536014
:108A1000EEE700BFEC24002070B50369C3B1044643
:108A20000E4600292FDB00F0CDFC05462046FFF75F
:108A3000D5FF06B9012600F08DFC30446061134B70
:108A40001B6853B15A69821A002A06DB9B69F8E752
:108A50001A4619461846FFF729FE5BB1DA69E2614A
:108A6000A361DA6914601834DC61284600F0B0FCB8
:108A7000002070BD0023A361044B5A68E2611460BA
:108A800018345C60F1E70220F3E700BFEC2400201B
:108A900038B500F05FFC05460FE0E269124B5A6002
:108AA000E369A2691A600023E36100F091FCD4B18C
:108AB0002069A0B1214600F06BF800F083FC0A4B5E
:108AC0001C68002CF1D06369EB1A002B05DBA3694D
:108AD000002BE2D0E269DA61E2E70024E5E76368AF
:108AE00020469847E9E738BDEC24002010B504463D
:108AF00000F071FC30B1094B1B685BB15869001B79
:108B000006D410BD00231A4619461846FFF7CEFDBD
:108B10000020F6E74FF0FF30F3E700BFEC24002021
:108B200010B5044603694169984728B1E37E13F004
:108B3000080F05D1002003E0E37E43F00103E37654
:108B400010BD000038B50546084B1C68002200E047
:108B5000246A44B1237EAB42FAD12046FFF7E0FFFE
:108B600002460028F4D0104638BD00BF7014002023
:108B7000024B00221A605B60704700BF7014002037
:108B8000002202604260034643F8082FC36070472A
:108B900070B505460C4600F015FC06462378A3B9CF
:108BA000012323700023E360EB681C600C34EC604D
:108BB000686888B1027B022A0AD0002400236B6017
:108BC000304600F005FC4CB970BD00F001FCFBE73D
:108BD00000F04CFA0124F1E70024F1E7002000F056
:108BE000C3FAF1E7F8B5064600F0ECF9044633683D
:108BF000834201D0DBB9306000F0E4FB0546B76882
:108C0000DFB974604FF0FF31204600F0E7F9637B75
:108C100043F008036373284600F0DAFB002000F0FD
:108C2000A3FA00F0CFFB054600237360E7E70023BB
:108C30001A4619461846FFF739FDFB68B36053B171
:108C400000233B70637B23F008036373284600F026
:108C5000BFFB3846F8BD06F10803F360F0E708B53E
:108C6000FFF7C0FF43680BB1984708BD1A46194685
:108C70001846FFF71BFD38B505460C4600F0A2FB71
:108C800023784BB1AB68A3420BD01A46DB68A342F2
:108C9000FBD1DB68D36063B10023237000F098FB45
:108CA00038BDDB68AB60002BF6D105F10803EB6043
:108CB000F2E70C32EA60EFE70048704778140020D2
:108CC000002831D030B40446002A2FD0BBB113B1F4
:108CD00013F0030F2CD12260E18021819DF80C005C
:108CE000A072A180E3600298A061636199B112F063
:108CF000030F02D022F003020432012007E0002912
:108D0000E5D003200EE09D181D6001302B46814206
:108D1000F9DC00221A6000202061064B5A681460BA
:108D200010345C6030BC7047032070470320F9E7C3
:108D30000420F7E7F424002010B582B00024019449
:108D4000049C0094FFF7BCFF02B010BD38B5044688
:108D500098B100F037FBE38853B165692A68626116
:108D6000013B9BB2E3802289934202D2238100E03F
:108D7000002500F02DFB284638BD0546FBE7000026
:108D8000024B00221A605B60704700BFF424002091
:108D90000E4B1B682BB101881A88914201D89B6841
:108DA000F8E753B19A68826012B19860002070476A
:108DB00000F1080205494A60F7E700238360034B8E
:108DC0005A68106008305860F0E700BFC401002006
:108DD00030B583B01446079D0195069D009501F0BE
:108DE00051FA38B100200090094B1D680346024635
:108DF0000146A8472046FFF7CBFF38B1002000907E
:108E0000034B1C68034602460146A04703B030BD31
:108E1000F0010020024B00221A605B60704700BF27
:108E2000C401002000B583B0FFF7F4FF064B0193A7
:108E30004FF4927300930C23044A05490548FFF749
:108E4000C7FF03B05DF804FB20D1000838220020E2
:108E5000442200208814002008B5054B186800B98A
:108E600008BD4FF0FF31034800F0ECFBF8E700BF0E
:108E7000E8240020FC24002008B5044B186800B941
:108E800008BD034800F082FBFAE700BFE824002099
:108E9000FC24002003460020186058609860D860C9
:108EA0001861704710B50446FFF7D6FF00B110BD3A
:108EB000034B1A6822611C60FFF7DEFFF7E700BF73
:108EC0006022002010B5FFF7C7FF10B9174B1C68D0
:108ED0000EE000231A4619461846FFF7E7FB00F09C
:108EE00039FA236862681344C01A00280DDC24692B
:108EF0008CB1A368002BF2D0E16820469847002887
:108F0000EDD100F027FA2060F1E700231A46194658
:108F10001846FFF7CBFBFFF7AFFF00B910BD0023EA
:108F20001A4619461846FFF7C1FB00BF6022002011
:108F300008B5024800F01FFB08BD00BFFC2400205C
:108F4000037B012B01D00220704710B5044600F0CE
:108F500039FA0F4B1B682BB1E17ADA7A914201D3CF
:108F60005B6CF8E753B19A6CA26463649A6C14600A
:108F700044349C6400F02CFA002010BD002363648C
:108F8000034B5A68A264146044345C60F2E700BF8B
:108F9000CC01002010B4C36B0133C363064B1C68C3
:108FA000064B186806490B68C21AA36B1344A363E7
:108FB000086010BC704700BF082500201C25002059
:108FC0000C250020014B1868704700BF08250020C1
:108FD000014B1860704700BF0825002038B50446D3
:108FE0000D46436C83B1826C9A64A36C626C1A6008
:108FF0000223237300F0AEF928446063B5F1FF3F0C
:1090000006D0184B1B6811E0826C174B5A60ECE7D6
:10901000637B43F00103637300236364114B5A685D
:10902000A264146044345C6011E05B6C3BB15A7B19
:1090300012F0010F03D15A6B121A002AF5DD43B169
:109040009A6CA26463649A6C146044349C6400203B
:1090500038BD00236364034B5A68A264146044342F
:109060005C60F4E7D4010020CC01002008B5037B4C
:10907000022B21D1C26962B113681BB3834226D08F
:109080001A46DB6C8342FBD1DB6CD3640023C364E0
:10909000C3610123037300234363437B23F0010374
:1090A0004373436CB3B1826C9A64836C426C1A60F4
:1090B000FFF746FF002008BD00231A461946184650
:1090C000FFF7F4FA1A4619461846FFF7EFFADB6C79
:1090D0001360DBE7826C014B5A60E6E7D4010020A5
:1090E00070B500F037F9054600F06CF906460A4BFA
:1090F000186802E0FFF7BAFF204640B1437B13F047
:10910000010F04D1446C436BEB1A002BF2DA3046AA
:1091100000F05EF970BD00BFD401002010B5044618
:1091200000F059F950B10C4B1B687BB15A7B12F01F
:10913000010F0ED1586B001B06D410BD00231A4638
:1091400019461846FFF7B2FA0020F6E74FF0FF3055
:10915000F3E74FF0FF30F0E7D4010020014B18682F
:10916000704700BFCC01002038B5044600F02AF952
:10917000054634B1204600F01BF9284600F028F9D6
:1091800038BDFFF7EBFF0446F4E7000008B5037BAA
:10919000012B00D008BD436C3BB1826C9A64836C98
:1091A000426C1A60FFF7CCFEF4E7826C014B5A6008
:1091B000F5E700BFCC01002000238B4204DA034A0C
:1091C00040F823200133F8E7704700BFEFBEADDE63
:1091D0002DE9F04204460D4617461E46BDF8249080
:1091E0005022002100F002FB6761A66100F0EAF85E
:1091F0002B4B1E78721C1A7000F0EAF8A6729DF8CC
:109200001830E3720123237325610023636304F1A3
:1092100020063046FFF73EFE0546002833D1079B67
:10922000B3F1FF3F05D063623046FFF73BFE0546D2
:1092300048BB49460898FFF7BFFF089B03EB89012D
:109240006160A4F808904A46204600F0C9F8206002
:10925000144B1B685BB1E17ADA7A914201D01B6C46
:10926000F8E700231A4619461846FFF71FFA236449
:109270000C4B5A68146004F140025A602046FFF714
:109280005FFE054610B12846BDE8F082FFF7D4FA2C
:1092900008B90546F7E70020FFF766FFF3E700BFD0
:1092A000182500201025002070B4114BA3FB0043AB
:1092B0009B094FF47A7606FB1300D1E90045E418C8
:1092C00045F10005C2E900458B6806FB003090605F
:1092D000084B984209DD611C45F1000311605360A1
:1092E000A0F57420A0F51070906070BC704700BFAE
:1092F000D34D62103F420F0070B5041E0DDB00F02D
:1093000061F8054611490A68A3180B6093EA020F39
:1093100009D4284600F05CF870BD00231A461946AF
:109320001846FFF7C3F90A4E314651F8084B1C1B8B
:109330000A462046FFF7B8FF06F118010A46204604
:10934000FFF7B2FF014B1B683360E2E71C250020EA
:1093500068220020014B1868704700BF1C250020C0
:1093600010B5041E02DB002C06DC10BD00231A46DB
:1093700019461846FFF79AF9FFF75EFA20B9084B2D
:10938000186820441860F0E72046FFF7B5FFFFF7A4
:109390007FFBFFF7A5FE0020FFF7E6FEE5E700BF35
:1093A0001C25002008B50120FFF7DAFF08BD0000EA
:1093B00008B5FFF7EFFD024B4FF080525A6008BD31
:1093C00000ED00E0EFF3108072B600F0010070478E
:1093D00000B962B67047EFF3108000F001007047EB
:1093E00070B506460D46A1F1400409230D2B04DC9F
:1093F000002244F823200133F8E7204600F09CF9CE
:109400004FF0807345F8043C736945F8083CB36934
:1094100045F8203C204670BD08B5044A536943F026
:1094200010035361FFF70EFA08BD00BF00ED00E026
:10943000F8B5EFF305840CB9002409E0072038E003
:1094400004F1604505F56145FF2685F800630134A8
:10945000EF2CF5D9194CA568194EEE62A568194E86
:10946000AE63A568184EEE63A568184FAF60A56897
:10947000EF60A5682F61A5686F61A468A7610024EB
:1094800006E065B20D4EB668103546F82570013419
:10949000512CF6DD094CF02584F822501025E57793
:1094A000EFF3148414F0010F04D0DFF824C000DFC0
:1094B0000020F8BDFFF7B0FF0020FAE700ED00E064
:1094C0003F97000885970008AF970008BB970008F2
:1094D0001994000810B5FFF741FE0446FFF778FD28
:1094E0002368203383F309880E214FF47A7001F04A
:1094F00061F8044B01221A602046FFF759FFA0696A
:1095000010BD00BFE824002010B5154800680438DD
:1095100000F008F9EFF30584ECB9EFF3148404F0DC
:109520000304022C0DD003D8012C0FD8082010BD45
:10953000032C0BD10B4C246814F0010F06D108202A
:10954000F5E7084C246814F0010F06D1DFF818C0C5
:1095500000DF0020EBE70720E9E70820E7E700BF8E
:109560009424002098220020D5940008103A02800C
:10957000416000207047034628B100205871D88010
:10958000986018607047032070470000F8B52C4BB6
:109590001B68002B4BD0044600284AD0FFF712FD71
:1095A0000546E388002B46D0A268824245D1012BB4
:1095B00003D0013BE38000203AE0FFF703FF0746BA
:1095C000E388013BE380EA7A63799A421ED12668F8
:1095D00046B1F369FBB13046FFF748FD0123E38054
:1095E000F37A6371A66016B1B37B0133B373AB7BBF
:1095F000013BAB73FFF7B2FD0446854210D0012555
:109600003846FFF7E5FE6DB9002011E0EB72284601
:10961000FFF7BCFDDBE71A4619461846FFF746F888
:109620000025EDE72046FFF79FFD002000E0092020
:10963000F8BD0320FCE70520FAE70520F8E700BFA6
:10964000E8240020364B1B68002B65D02DE9F04143
:1096500005460F46002861D0FFF7B4FE8046FFF7AD
:10966000B1FC0446EA889AB1AB6883421DD01FB3AF
:10967000D97AC27A914224D8286860B3034600217F
:1096800023B3E67ADA7A964220D31946DB6CF7E701
:10969000A860C37A6B71837B013383730123EB80F2
:1096A0004046FFF795FE002032E00132EA80404656
:1096B000FFF78EFE00202BE04046FFF789FE0620D4
:1096C00026E0DA72A868FFF761FDD5E719B1CB6C27
:1096D000E364CC6401E0E0642C60E561637B43F00B
:1096E0000403637339462046FFF778FC4046FFF7D2
:1096F0006FFE0020FFF738FDFFF764FE637B23F069
:1097000004036373FFF764FEAB68A34202D0062034
:10971000BDE8F0810020FBE7092070470320F7E750
:10972000E824002080F309882B480078023080F379
:109730001488BFF36F8F704780E8F00F7047EFF326
:109740000980816911F8021C51B990E80F1010B519
:10975000E047BDE81040EFF3098C8CE80700704744
:1097600010B51E4A1268914209D81D4C54F8214088
:1097700090E80F10A047EFF3098C8CE80F00BDE8CC
:1097800010407047174B1A68174B1968914208BF71
:109790007047EFF3098C2CE9F00FC1F800C01A6094
:1097A000D2F800C0BCE8F00F8CF30988704710B500
:1097B000FFF7F8FDBDE8104070471EF0040F0CBF26
:1097C000EFF30883EFF309832DE9F84F6846FEF7BE
:1097D0009BFFBDE8F84F7047982200200000000072
:1097E000FCFFFFFFCC0100200825002010B4034639
:1097F000541E1AB103F8011B2246F9E710BC70474A
:1098000010B404462278013408780131101A01D1CD
:10981000002AF7D110BC70477047000008B50A4B0A
:109820005B68C3F3080333B1084B9B790BB9002085
:1098300007E00B2005E001460448FFF703FF092875
:1098400000D008BD0020FCE700ED00E0AC220020C5
:1098500008B50A4B5B68C3F308030BB1002008BDD1
:109860000748FFF793FE0028F9D00928F7D0002316
:109870001A4619461846FEF719FF00BF00ED00E032
:10988000AC22002070B506460D464FF47A70FFF703
:10989000C5FFC8B904460F4B1B7813B90E4B1B7894
:1098A0004BB9AC4207DA305DFFF7B6FFB0F1FF3FCE
:1098B00001D00134F5E7002D04DD354415F8013CF5
:1098C0000A2B02D0FFF7C4FF70BD024B00221A70B2
:1098D000F8E700BF2925002021250020704700203F
:1098E0007047000008B5074B1B7833B10648FFF7F7
:1098F00047F90648FFF73FFE08BD1A4619461846C5
:10990000FEF7D4FE682500209C220020AC22002017
:109910000FB410B582B000F01FF860B10C4B1B689B
:109920000BB1002408E0FFF715FD0146094802F0DD
:109930009DFF044600E0002405A90191049802F06F
:10994000A7FF204402B0BDE8104004B0704700BF3C
:109950002425002028D10008014B1878704700BF4B
:10996000DC01002070B586B005460E461446002383
:10997000136000F0B7FB01A800F0D0FB2368AB42F6
:1099800022DA022101A800F095FB10F10F0F1ED082
:10999000F0B903A901A800F09AFBC8B9236803EB4A
:1099A000430306EB83029DF80C1006F823109DF884
:1099B0000D305370DDF80E305360DDF812309360D7
:1099C000236801332360D9E74FF0FF3000E0002027
:1099D00006B070BD30B40E4B1C68ACB100230D4A0C
:1099E00012689A420CDD03EB430204EB820514F883
:1099F0002220824201D00133F1E70D60002001E016
:109A00006FF0030030BC70476FF00600FAE700BF4C
:109A10002C2500203025002038B584688C4208D3DE
:109A2000CD18AC4208D344682144407800F083FD4F
:109A300038BD4FF0FF30FBE74FF0FF30F8E7000094
:109A400010B584B0144B1B7803B300F060FD38B13F
:109A500000200090114B1C68034602460146A047B7
:109A60000F4B104A1A60104B06221A6003AA0F49C6
:109A70000A20FFF777FF38B9039B002B04DD084A63
:109A80000A491160084A136004B010BD1A4619460D
:109A90001846FEF70BFE00BF68250020F0010020ED
:109AA0002C2500209CD1000830250020B822002061
:109AB000054B1B681BB1834203D0DB68FAE700202B
:109AC00070470120704700BFE001002008B50B4B34
:109AD0001B7873B100230A4A13600A4A13700A4ABA
:109AE00013605260094A02211171136000F0DEF820
:109AF00008BD1A4619461846FEF7D8FD682500200D
:109B00003023002034230020E001002034250020F1
:109B100008B54368DB69984708BD000030B589B0D7
:109B200006910023079306AA04924FF0FF344FF0EA
:109B3000FF35CDE90045029303936A460549FFF7D7
:109B4000E7FF079B13B1002009B030BD4FF0FF3095
:109B5000FAE700BFF99B000810B584B00C461E4917
:109B60000978F9B920606260A3609DF81830237508
:109B7000002323612046FFF79BFF38B90023E360F1
:109B8000164B5A68146004F10C025A6063685B6AF1
:109B90000BB12046984763681B68022B08D0002051
:109BA00004B010BD00231A4619461846FEF77EFD84
:109BB00069462046FFF7B2FF0028F0D1FFF702FC0C
:109BC000029B074A1268934202D30133044A13608E
:109BD000FFF7FEFBE3E700BF34230020E001002095
:109BE0003425002030B583B044686468BDF818504F
:109BF0000095A04703B030BD10B582B00B461146AA
:109C00001C6922680E2300930023FFF7EBFF0D2849
:109C100001D901236360012002B010BD022070470A
:109C2000022070470220704700B583B0037B427B5F
:109C300001920093026843680248FFF769FE03B08F
:109C40005DF804FB30D1000870B50E4614461D4681
:109C5000FFF745FE30B1064B1B682BB12946204665
:109C6000FFF710FE002070BD3046FFF7DDFFF5E77F
:109C70002425002038B50C461546FFF730FE40B1CC
:109C8000074B1B683BB1A5F10E0104F10E00FFF775
:109C9000F9FD002038BD2046FFF7C6FFF3E700BFFF
:109CA00024250020004870473823002010B582B0DA
:109CB0000D4B1B7893B1FF23009300230B4A0C49F3
:109CC0000C48FFF749FF38B1002000900A4B1C6890
:109CD000034602460146A04702B010BD1A46194687
:109CE0001846FEF7E3FC00BF6825002058D10008A5
:109CF0003823002050D10008F001002010B40246A3
:109D0000074B1868002401E00446006820B1437A3C
:109D1000934201D0F8D9002001B10C6010BC70470B
:109D20001424002010B582B0044601A9407AFFF740
:109D3000E5FF019B43B11B682360019B1C60637AB4
:109D4000FF2B06D002B010BD034B1A6822601C60C6
:109D5000F5E7024B1C60F5E7142400205023002097
:109D600008B50548FEF7F2FF034618B1002202606D
:109D700042608260184608BD3C25002008B50F4AA5
:109D8000821A0F48A0FB0230BF2A0BD8C0080C4B28
:109D9000A3FB0213DB0803EB4303B2EB830F07D1F2
:109DA000C0B208BD00231A4619461846FEF77EFCCD
:109DB00000231A4619461846FEF778FC5423002063
:109DC000ABAAAAAAC9B12DE9F041074616461D461D
:109DD0008846FFF7C5FF044690B1FFF7CFFFC4F8F0
:109DE000048020726772A6722046FFF79BFF55B170
:109DF000237A2B700020BDE8F0816FF001007047DE
:109E00004FF0FF30F7E70020F5E700002DE9F041C3
:109E100004460D4616461F46DFF82080404600F0F7
:109E200077FA3B46324629462046FFF7CBFF0446E9
:109E3000404600F097FA2046BDE8F0811824002043
:109E400010B582B01E4B1B78002B34D01D4B0093F5
:109E50001D4B0C2210211D48FEF76EFF38B100206B
:109E600000901B4B1C68034602460146A047002396
:109E7000184A1360184A1360184800F082FA38B183
:109E800000200090124B1C68034602460146A04782
:109E9000FFF708FF014600231A46FF20FFF7B6FF31
:109EA00038B1002000900A4B1C6803460246014668
:109EB000A04702B010BD1A4619461846FEF7F6FB39
:109EC0006825002080D10008542300203C25002074
:109ED000F00100201424002050230020182400202A
:109EE00030B583B08578204B1B689D4233DA044639
:109EF00005EB450301A91D4A12F82300FFF76AFD8F
:109F000060BB6268C2B905EB4505184B03EB8505DC
:109F10006B686360616801988368083B994213D35A
:109F2000A378591C104A126891420ADA0022626032
:109F3000A1706FF005000CE0637813440233636096
:109F4000E8E76FF00E0004E002232246FFF764FD0D
:109F500038B903B030BD6FF00100FAE76FF00400CC
:109F6000F7E76FF00400F4E75824002040240020B5
:109F700030B585B005460C4603A9FFF72BFDD8B9CF
:109F800003988168082301AA0839FFF745FDB0B995
:109F9000029A114B9A4215D19DF80630022B14D12A
:109FA000BDF80420039B9B689A4211D89B1A257028
:109FB0006360A26005B030BD6FF00400FAE76FF097
:109FC0000400F7E76FF00800F4E76FF00B00F1E72B
:109FD0006FF00800EEE700BF69A2B23B08B50023AE
:109FE000104A1168994208DD03EB43020E4911F84B
:109FF0002220824210D00133F2E701290FDC01EB6D
:10A000004101094B03EB8101FFF7B2FF30B9054A6B
:10A0100013680133136001E06FF00A0008BD4FF0D0
:10A02000FF30FBE7582400204024002008B5837847
:10A030000A4A1268934208DA03EB4303084A12F80B
:10A040002300FFF7C7FC30B908BD00231A461946A4
:10A050001846FEF72BFB6FF00400F5E758240020AC
:10A060004024002070B582B006460C46154601A972
:10A07000FFF7DCFF08B102B070BD2A460021204680
:10A08000FFF7B4FB73787168AB42A8BF2B4622463A
:10A0900002310198FFF7C0FC0028ECD06FF00400FB
:10A0A000E9E710B504462046FFF71AFF10F1060F46
:10A0B000F9D010BD38B504460D462046FFF7F1FF34
:10A0C000024610B92378AB42F7D1104638BD08B527
:10A0D0000A22FFF7C7FF08BD08B50122FFF7C2FF3C
:10A0E00008BD000008B50B4B1B784BB9094B01228A
:10A0F0001A70094B1B7823B10020FFF76FFF28B1BE
:10A1000008BD1A4619461846FEF7D0FA00F00EF8B8
:10A11000F6E700BF3C2400206825002010B5044667
:10A12000FFF7E0FF00232360636010BD00B585B03A
:10A1300001A8FFF7F3FF04210DEB0100FFF7BAFFC1
:10A1400010F10F0F0FD078B903A901A8FFF7C4FFD2
:10A1500050B99DF80C00FFF741FF0028EBD010F13B
:10A160000B0FE8D000E0002005B05DF804FBC388C9
:10A1700013F0010F01D0302070470C207047000011
:10A1800070B505460E460D4B1C6834B12946206853
:10A19000FFF736FB70B1A468F7E735600020B060C8
:10A1A000064B5A68166008365E60054AD36801336C
:10A1B000D36070BD4FF0FF30FBE700BFE801002027
:10A1C0005825002070B504460E461546FFF7CFFF10
:10A1D00005FB06F200212044FFF708FB267165719C
:10A1E0000020E08070BD000000B583B0094A002364
:10A1F000136052600093012204210748FFF7E2FF39
:10A2000010B103B05DF804FB03490448FFF7B8FF41
:10A21000F7E700BFE80100205825002094D100088E
:10A2200010B582B00C4B1B7823B10C4BDB6833B1FB
:10A2300002B010BD1A4619461846FEF737FAFFF766
:10A24000D3FF0028F4D000200090054B1C68034683
:10A2500002460146A047EBE768250020582500206C
:10A26000F001002008B5FEF721FA0000014B0122A1
:10A270001A70704768250020014B00221A70704741
:10A2800068250020F0B583B00D4617469EB2099BA5
:10A2900000930346089A31462846FEF74DFD08B163
:10A2A00003B0F0BD3346089A92B229463846FFF70C
:10A2B0005DF9F5E790F82030013B80F820307047D9
:10A2C000838B23B990F820301BB101207047012007
:10A2D00070470020704710B50446C37F1BB9837FC9
:10A2E00080F8203010E0012380F82030143001F095
:10A2F0003DFFE37F013BE37709E004F10C0001F04F
:10A3000035FFA37F013BA377A37F002BF5D110BDC1
:10A3100038B504464FF0FF31FFF794F92046FFF7B8
:10A32000CFFF40B1E37F0133E37700252046FFF7FD
:10A330002DF91DB138BD01256577F7E74FF0FF31E5
:10A3400004F1140001F044FF4FF0FF312046FFF705
:10A3500079F9012363772046FFF7ACFF2046FFF72A
:10A3600015F9E7E710B504464FF0FF31FFF76AF93A
:10A37000002363772046FFF7AEFF2046FFF706F97C
:10A3800010BD10B5044624220021FFF72FFA204605
:10A39000FFF7F1F800B110BD002104F10C0001F04D
:10A3A000DDFE0028F7D1002104F1140001F0D6FEF3
:10A3B000F1E700207047000000B5BDB0002000F0BC
:10A3C00015FC00285CD100F0B9FB394AD2F8903076
:10A3D00023F01803C2F8903018232B9300232D93F9
:10A3E00001223092319232936023339302233593CA
:10A3F000369237923C22389239933A933B932BA86A
:10A4000000F0F0FD002841D10F232693032327936A
:10A41000002328934FF4806329932A93052126A8CB
:10A4200001F0D4F8002837D146F227230193002306
:10A4300015931093119312934FF0805321934FF47F
:10A4400080231A934FF080631E930123029303939A
:10A450001823049302230593069307934FF0807308
:10A46000089301A801F044FBE0B901F0B3FD00221C
:10A470004FF0C061104600F00DFD3DB05DF804FBEB
:10A4800000231A4619461846FEF710F900231A460B
:10A4900019461846FEF70AF900231A4619461846C7
:10A4A000FEF704F900231A4619461846FEF7FEF88F
:10A4B0000010024008B5FFF77FFF0B49002000F0B5
:10A4C000DDF920B9094801F043FE30B908BD002389
:10A4D0001A4619461846FEF7E9F800231A461946A7
:10A4E0001846FEF7E3F800BF002C014040420F0081
:10A4F00043688B4205D8826813448B4204D3002002
:10A5000070476FF0010070476FF00100704738B579
:10A5100000252C4601E00134E4B22046FFF749FF54
:10A5200038B10268526990470028F4D06FF00405F2
:10A53000F1E7284638BD2DE9F0410C4617461D4687
:10A54000FFF737FFA0B106462146FFF7D1FF90B9CC
:10A5500061193046FFF7CCFF80B93368D3F800802B
:10A560002B463A4621463046C04750B9BDE8F081F7
:10A570006FF00100FAE76FF00100F7E76FF00100FC
:10A58000F4E76FF00400F1E710B50446FEF723FF8F
:10A5900028B154B12146022002F0ECF910BD00238D
:10A5A0001A4619461846FEF781F80021022002F0EB
:10A5B000E1F9F3E708B502F0ABF908BD00207047F8
:10A5C00008B5FFF7FBFF00B100BEBFF34F8F054991
:10A5D000CA6802F4E062044B1343CB60BFF34F8FB1
:10A5E00000BFFDE700ED00E00400FA0508B5FEF746
:10A5F000B1FE08BD00207047002817DB00F1604362
:10A6000003F56143F02283F800230C4B9B6800F1B3
:10A61000100243F82210002807DB00F01F02400957
:10A6200001239340064A42F82030704700F00F02A1
:10A63000044B1344F0221A76E7E700BF00ED00E078
:10A6400000E100E0FCEC00E0EFF3108272B603687A
:10A65000196911F0010F07D0416801F5803141609F
:10A66000196921F00101196143680168486A1844B9
:10A6700002B962B67047000030B589B0D8B90C464F
:10A680004E4D4F4B99421CD0B4F1804F28D04D4BCA
:10A690009C4234D04C4B9C4240D04C4B9C424CD0C2
:10A6A0004B4B9C425CD04B4B9C4268D04A4B9C42EB
:10A6B00074D009B030BD00231A4619461846FDF77C
:10A6C000F5FF29461920FFF797FF444B1A6E42F415
:10A6D00000621A661B6E03F400630093009BD3E7CD
:10A6E00029461C20FFF788FF3C4B9A6D42F001027F
:10A6F0009A659B6D03F001030193019BC7E729460F
:10A700001D20FFF779FF354B9A6D42F002029A65E2
:10A710009B6D03F002030293029BBBE729461E20B8
:10A72000FFF76AFF2D4B9A6D42F004029A659B6D0C
:10A7300003F004030393039BAFE729462E20FFF7A2
:10A740005BFF29462C20FFF757FF244B1A6E42F47B
:10A7500000521A661B6E03F400530493049B9FE798
:10A7600029461820FFF748FF1C4B1A6E42F480322E
:10A770001A661B6E03F480330593059B93E7294605
:10A780001920FFF739FF154B1A6E42F400321A6692
:10A790001B6E03F400330693069B87E729461A20B5
:10A7A000FFF72AFF0D4B1A6E42F480221A661B6EC9
:10A7B00003F480230793079B7BE700BF6DA8000885
:10A7C000002C01400004004000080040003401401B
:10A7D0000040014000440140004801400010024098
:10A7E00038B5054609E06369EB60636922691A6060
:10A7F000002363616368A0689847AC6864B1284629
:10A80000FFF722FFE368C01A002805DB2369002B4D
:10A81000E9D062695A61E8E7AB681BB12A68DB6876
:10A82000536338BD00221146286801F03FFC2A68B6
:10A83000D36823F00203D360F3E738B50446036816
:10A840001B6913F0010504D0426802F580324260B2
:10A85000012513F0020F03D12368ED431D6138BDBC
:10A8600045F002052046FFF7BBFFF5E708B50248B3
:10A87000FFF7E3FF08BD00BF6C250020022879DC4C
:10A8800010B50C46414B53F82030002B75D00029F1
:10A8900076D019603E4B99421ED0B1F1804F1BD04B
:10A8A000A3F59433994217D003F58063994213D0EE
:10A8B00003F5806399420FD003F5943399420BD08E
:10A8C00003F54063994207D003F58063994203D0B2
:10A8D00003F58063994256D12146FFF7CDFE2C4BFC
:10A8E0009C4216D0B4F1804F19D02A4B9C421CD008
:10A8F000294B9C421FD0294B9C4222D0284B9C4282
:10A9000025D0284B9C4228D0274B9C422BD000209E
:10A9100010BD264A136943F400631361E2E7234A3A
:10A92000936843F001039360DFE7204A936843F0A4
:10A9300002039360DCE71D4A936843F004039360CD
:10A94000D9E71A4A136943F400531361D6E7174A4B
:10A95000136943F480331361D3E7144A136943F452
:10A9600000331361D0E7114A136943F48023136164
:10A970000020CDE74FF0FF3070474FF0FF30C7E7C2
:10A980004FF0FF30C4E74FF0FF30C1E7E4D10008DB
:10A99000002C014000040040000800400034014049
:10A9A000004001400044014000480140002004E014
:10A9B00002284EDC30B587B00C462C4B53F82050A3
:10A9C000002D49D028682A4B98421ED0B0F1804F04
:10A9D0001BD0A3F59433984217D003F580639842B7
:10A9E00013D003F5806398420FD003F59433984257
:10A9F0000BD003F54063984207D003F5806398427B
:10AA000003D003F58063984229D101F061FBB0FBCC
:10AA1000F4F0B0F5803F25D20024049405944FF65D
:10AA2000FF7302930090039401942B6804221A6030
:10AA30002B680122DA606946286801F0D3FA2B6896
:10AA40001C612A68136843F001031360204607B0B5
:10AA500030BD4FF0FF3070474FF0FF30F7E74FF059
:10AA6000FF30F4E74FF0FF30F1E700BFE4D100081A
:10AA7000002C0140C0010A4BA3FB00239B09B0F549
:10AA80007A1F0AD2074A0849116006215160936073
:10AA900040F6FF73D360002070474FF0FF307047DF
:10AAA000D34D62107C2500200030004008B5044AD8
:10AAB000936843F480539360024800F00DF808BD9A
:10AAC000002004E07C25002008B5024800F030F8A2
:10AAD00008BD00BF7C25002040B338B5044603689C
:10AAE0004CF6CC421A60036845F255521A6003686E
:10AAF00042685A60036882689A60FFF777FD0546EE
:10AB00002368DA6832B1FFF771FD401B3028F7D9AE
:10AB1000032038BD1969E268914202D01A61002011
:10AB2000F7E74AF6AA221A600020F2E701207047F0
:10AB300003684AF6AA221A6000207047024A136886
:10AB400043F480731360704700700040024A5368FA
:10AB500023F00103536070470070004010B50C46AD
:10AB600090B90E4B5B6913F4007F0AD10C4A13694C
:10AB700023F004031361012C0ED040BF20BF20BF7F
:10AB800010BD00F0C5F8F1E7044B5B6913F4007FDA
:10AB9000ECD100F0B5F8E9E730BFF1E70070004014
:10ABA00000ED00E0064A136823F0070343F00303B7
:10ABB0001360044A136943F00403136130BF704704
:10ABC0000070004000ED00E0074B186800F4C06022
:10ABD000B0F5806F04D0D3F8800010F4807000D1FD
:10ABE00070474FF40070FBE700700040002839D137
:10ABF000414B1B6803F4C063B3F5806F08D03E4A35
:10AC0000D2F8803023F48073C2F88030002070477F
:10AC1000394AD2F8803023F48073C2F88030136848
:10AC200023F4C06343F400731360344B1B6802F1D8
:10AC3000467202F55B3202F28322A2FB03239A0CD6
:10AC4000322303FB02F300E0013B23B12A4A52699D
:10AC500012F4806FF8D1284B5B6913F4806F47D1F1
:10AC600000207047B0F5007F08D0234A136823F412
:10AC7000C06343F480631360002070471E4B1B6861
:10AC800003F4C063B3F5806F08D01B4AD2F880305C
:10AC900043F48073C2F8803000207047164AD2F81F
:10ACA000803043F48073C2F88030136823F4C063AB
:10ACB00043F400731360114B1B6802F1467202F5F6
:10ACC0005B3202F28322A2FB03239A0C322303FBA2
:10ACD00002F300E0013B23B1074A526912F4806F8E
:10ACE000F8D1054B5B6913F4806F03D100207047E6
:10ACF000032070470320704700700040C00100200F
:10AD0000024A136843F480431360704700700040A8
:10AD1000114A136823F480431360104B1B6802F13F
:10AD2000467202F55B3202F28322A2FB03239A0CE5
:10AD3000322303FB02F333B1074A526912F4007F56
:10AD400001D0013BF7E7044B5B6913F4007F01D1AD
:10AD5000002070470320704700700040C0010020B1
:10AD6000254BDB6803F00303012B15D00021224A99
:10AD7000D36803F00303D068C0F303100130022B43
:10AD80001DD0032B2DD0B1FBF0F11B4BD868C0F3C5
:10AD9000062000FB01F01BE0174B1B6813F0080FA7
:10ADA00008D1154BD3F89430C3F30323134A52F858
:10ADB0002310DCE7104B1B68C3F30313F6E7104BBB
:10ADC000B3FBF0F30C4AD068C0F3062000FB03F09D
:10ADD000094BDB68C3F3416301335B00B0FBF3F065
:10ADE0007047084BB3FBF0F3034AD068C0F306206A
:10ADF00000FB03F0ECE700BF0010024028CF000882
:10AE00000024F40000127A0030B583B004461F4BD2
:10AE10009B6D13F0805F0AD0FFF7D6FEB0F5007F80
:10AE200016D07F2C1ED8702C2BD000211BE0174D84
:10AE3000AB6D43F08053AB65AB6D03F08053019372
:10AE4000019BFFF7C1FEAB6D23F08053AB65E5E7D7
:10AE5000802C03D9A02C03D9022104E0002102E0B8
:10AE6000012100E002210A4A136823F00F030B437B
:10AE70001360136803F00F038B4204D1002003B06A
:10AE800030BD0121EFE70120F9E700BF00100240CB
:10AE90000020024070B586B00D461646104CE36C9B
:10AEA00043F00103E364E36C03F001030093009BB0
:10AEB0004FF48073019302230293049300230393BE
:10AEC000059301A94FF09040FDF706FBA36823F01E
:10AED000FE4345EA06021A43A26006B070BD00BFF9
:10AEE000001002403B4B9B6813F00C0F1AD0394BFB
:10AEF0009B6803F00C030C2B0ED0364B9B6803F0C1
:10AF00000C03042B2FD0334B9B6803F00C03082B4E
:10AF10002CD00020014618E02E4BDB6803F0030321
:10AF2000012BEAD12B4B1B6813F0080F14D1294BCE
:10AF3000D3F89430C3F30323274A52F82310254B48
:10AF40009B6813F00C0F0CD00020224A936803F08A
:10AF50000C030C2B0DD070471E4B1B68C3F303135F
:10AF6000EAE70846F1E71D480021EEE71C4800210A
:10AF7000EBE71346D26802F00302DB68C3F3031366
:10AF80000133022A0AD0032A1AD0B1FBF3F3114A83
:10AF9000D068C0F3062000FB03F008E00F48B0FBC8
:10AFA000F3F30C4AD068C0F3062000FB03F0094B12
:10AFB000DB68C3F3416301335B00B0FBF3F0CAE726
:10AFC0000748B0FBF3F3034AD068C0F3062000FB48
:10AFD00003F0ECE70010024028CF00080024F40042
:10AFE00000127A00002800F0DF8270B582B00446BB
:10AFF000036813F0100F3FD0974B9B6813F00C0FB2
:10B0000040F09280944B1B6813F0020F03D08369C9
:10B01000002B00F0CB82206A8F4B1B6813F0080FC7
:10B0200062D08D4B1B6803F0F003984263D9FFF7A1
:10B03000EBFE002840F0BC82874B1A6842F0080201
:10B040001A601A6822F0F002216A0A431A605A68EC
:10B0500022F47F42E16942EA01225A60FFF742FF8F
:10B060007D4B9B68C3F303137C4AD35CD8407C4B75
:10B0700018600F20FFF7BEFA236813F0010F00F0ED
:10B08000A180754B9B6803F00C03082B00F09180A6
:10B09000714B9B6803F00C030C2B00F083806368FA
:10B0A000B3F5803F00F0B580B3F5A02F00F0B78076
:10B0B000694B1A6822F480321A601A6822F48022DE
:10B0C0001A606368002B00F0B780FFF78FFA05461F
:10B0D000614B1B6813F4003F74D1FFF787FA401BE4
:10B0E0006428F5D903206AE25B4BD3F894301B093E
:10B0F00003F0F00399E7584B1A6842F008021A600F
:10B100001A6822F0F002216A0A431A605A6822F48F
:10B110007F42E16942EA01225A60206AFFF774FE29
:10B1200000289BD001204AE2836933B34A4A13685E
:10B1300043F001031360FFF759FA0546464B1B68BD
:10B1400013F0020F06D1FFF751FA401B0228F5D980
:10B15000032034E2404B1A6842F008021A601A6871
:10B1600022F0F002216A0A431A605A6822F47F42F0
:10B17000E16942EA01225A607EE7374A136823F008
:10B1800001031360FFF732FA0546334B1B6813F0D7
:10B19000020F3FF471AFFFF729FA401B0228F4D9E0
:10B1A00003200CE22C4BDB6803F00303032B7FF43A
:10B1B00076AF294B1B6813F4003F03D06368002B64
:10B1C00000F0F881236813F0020F62D0224B9B68D5
:10B1D00003F00C03042B4BD01F4B9B6803F00C03B4
:10B1E0000C2B3FD0E368002B79D01B4A136843F443
:10B1F00080731360FFF7FAF90546174B1B6813F4C9
:10B20000806F63D1FFF7F2F9401B0228F5D90320C4
:10B21000D5E1114A136843F48033136051E703F119
:10B220008043A3F53C331A6842F480221A601A68FE
:10B2300042F480321A6044E7FFF7D8F90546064B1E
:10B240001B6813F4003FBDD0FFF7D0F9401B642802
:10B25000F5D90320B3E100BF0010024010CF000871
:10B26000C0010020B54BDB6803F00303022BB9D10A
:10B27000B24B1B6813F4806F03D0E368002B00F01F
:10B280009B81AE4A536823F0FE43216943EA016380
:10B290005360236813F0080F4CD063699BB3A74A2F
:10B2A000D2F8943043F00103C2F89430FFF79EF9CE
:10B2B0000546A24BD3F8943013F0020F3AD1FFF7B2
:10B2C00095F9401B0228F4D9032078E19B4A536882
:10B2D00023F0FE43216943EA01635360D9E7974AAB
:10B2E000136823F480731360FFF780F90546934BCE
:10B2F0001B6813F4806FCCD0FFF778F9401B02284D
:10B30000F5D903205BE18D4AD2F8943023F0010394
:10B31000C2F89430FFF76AF90546884BD3F89430A9
:10B3200013F0020F06D0FFF761F9401B0228F4D991
:10B33000032044E1236813F0040F7AD07F4B9B6D08
:10B3400013F0805F36D17D4B9A6D42F080529A6542
:10B350009B6D03F080530193019B0125784B1B6883
:10B3600013F4807F28D0A368012B39D0052B3FD060
:10B37000724BD3F8902022F00102C3F89020D3F84A
:10B38000902022F00402C3F89020A368002B3DD047
:10B39000FFF72CF90646694BD3F8903013F0020FF3
:10B3A00046D1FFF723F9801B41F288339842F2D946
:10B3B000032004E10025D1E7614A136843F4807358
:10B3C0001360FFF713F906465D4B1B6813F4807F8B
:10B3D000C9D1FFF70BF9801B0228F5D90320EEE055
:10B3E000564AD2F8903043F00103C2F89030CCE7CF
:10B3F000524BD3F8902042F00402C3F89020D3F8C7
:10B40000902042F00102C3F89020BEE7FFF7EEF86B
:10B4100006464A4BD3F8903013F0020F08D0FFF7DE
:10B42000E5F8801B41F288339842F2D90320C6E048
:10B43000E5B9236813F0200F35D0636AE3B13F4AC2
:10B44000D2F8983043F00103C2F89830FFF7CEF8F5
:10B4500005463A4BD3F8983013F0020F23D1FFF78B
:10B46000C5F8401B0228F4D90320A8E0334A936DA5
:10B4700023F080539365DCE7304AD2F8983023F00C
:10B480000103C2F89830FFF7B1F805462B4BD3F80B
:10B49000983013F0020F06D0FFF7A8F8401B0228DF
:10B4A000F4D903208BE0A36A002B00F08780234AA5
:10B4B000926802F00C020C2A00F08380022B28D044
:10B4C0001E4B1A6822F080721A601B6813F0006F1E
:10B4D00009D11A4B1B6813F0005F04D1174AD368D7
:10B4E00023F00303D360154AD36823F0887323F451
:10B4F0008033D360FFF77AF80446104B1B6813F0D3
:10B50000007F4FD0FFF772F8001B0228F5D9032007
:10B5100055E00A4A136823F080731360FFF766F85A
:10B520000546064B1B6813F0007F0BD0FFF75EF853
:10B53000401B0228F5D9032041E000BF0010024063
:10B5400000700040236B5A1E636B1B0243EA021318
:10B55000E26A1343E26B5208013A43EA4253226C17
:10B560005208013A43EA4263A26B43EAC263164AB5
